{
  "address": "0xa9c2372FdFA2ef145A0d13784C74DE96f0e3eaff",
  "_format": "hh-sol-artifact-1",
  "contractName": "Split",
  "sourceName": "contracts/Split.sol",
  "abi": [
    {
      "anonymous": false,
      "inputs": [
        {
          "indexed": true,
          "internalType": "uint256",
          "name": "index",
          "type": "uint256"
        },
        {
          "indexed": true,
          "internalType": "address",
          "name": "recipient",
          "type": "address"
        },
        {
          "indexed": true,
          "internalType": "address",
          "name": "debtor",
          "type": "address"
        },
        {
          "indexed": false,
          "internalType": "uint256",
          "name": "amountPaid",
          "type": "uint256"
        }
      ],
      "name": "DebtorPaid",
      "type": "event"
    },
    {
      "anonymous": false,
      "inputs": [
        {
          "indexed": true,
          "internalType": "uint256",
          "name": "index",
          "type": "uint256"
        },
        {
          "indexed": true,
          "internalType": "address",
          "name": "creator",
          "type": "address"
        },
        {
          "indexed": true,
          "internalType": "address",
          "name": "recipient",
          "type": "address"
        }
      ],
      "name": "ExpenseCancelled",
      "type": "event"
    },
    {
      "anonymous": false,
      "inputs": [
        {
          "indexed": true,
          "internalType": "uint256",
          "name": "index",
          "type": "uint256"
        },
        {
          "indexed": false,
          "internalType": "uint8",
          "name": "category",
          "type": "uint8"
        },
        {
          "indexed": false,
          "internalType": "uint8",
          "name": "status",
          "type": "uint8"
        },
        {
          "indexed": true,
          "internalType": "address",
          "name": "creator",
          "type": "address"
        },
        {
          "indexed": false,
          "internalType": "string",
          "name": "name",
          "type": "string"
        },
        {
          "indexed": false,
          "internalType": "string",
          "name": "description",
          "type": "string"
        },
        {
          "indexed": false,
          "internalType": "uint256",
          "name": "amount",
          "type": "uint256"
        }
      ],
      "name": "ExpenseCreated",
      "type": "event"
    },
    {
      "anonymous": false,
      "inputs": [
        {
          "indexed": true,
          "internalType": "address",
          "name": "previousOwner",
          "type": "address"
        },
        {
          "indexed": true,
          "internalType": "address",
          "name": "newOwner",
          "type": "address"
        }
      ],
      "name": "OwnershipTransferred",
      "type": "event"
    },
    {
      "anonymous": false,
      "inputs": [
        {
          "indexed": true,
          "internalType": "uint256",
          "name": "index",
          "type": "uint256"
        },
        {
          "indexed": true,
          "internalType": "address",
          "name": "recipient",
          "type": "address"
        }
      ],
      "name": "RecipientPaid",
      "type": "event"
    },
    {
      "inputs": [],
      "name": "_lpTokenContractAddress",
      "outputs": [
        {
          "internalType": "address",
          "name": "",
          "type": "address"
        }
      ],
      "stateMutability": "view",
      "type": "function"
    },
    {
      "inputs": [],
      "name": "_swapContractAddress",
      "outputs": [
        {
          "internalType": "address",
          "name": "",
          "type": "address"
        }
      ],
      "stateMutability": "view",
      "type": "function"
    },
    {
      "inputs": [
        {
          "internalType": "string",
          "name": "_name",
          "type": "string"
        },
        {
          "internalType": "string",
          "name": "_description",
          "type": "string"
        },
        {
          "internalType": "uint256",
          "name": "_amount",
          "type": "uint256"
        },
        {
          "internalType": "address",
          "name": "_tokenAddress",
          "type": "address"
        },
        {
          "internalType": "enum Split.ExpenseCategory",
          "name": "_category",
          "type": "uint8"
        },
        {
          "internalType": "uint256",
          "name": "_paymentDue",
          "type": "uint256"
        },
        {
          "components": [
            {
              "internalType": "address",
              "name": "_address",
              "type": "address"
            }
          ],
          "internalType": "struct Split.Participant",
          "name": "_recipient",
          "type": "tuple"
        },
        {
          "components": [
            {
              "internalType": "address",
              "name": "_address",
              "type": "address"
            }
          ],
          "internalType": "struct Split.Participant",
          "name": "_creator",
          "type": "tuple"
        },
        {
          "components": [
            {
              "internalType": "address",
              "name": "_address",
              "type": "address"
            },
            {
              "internalType": "uint256",
              "name": "amount",
              "type": "uint256"
            }
          ],
          "internalType": "struct Split.DebtParticipant[]",
          "name": "_debtors",
          "type": "tuple[]"
        }
      ],
      "name": "createExpense",
      "outputs": [],
      "stateMutability": "nonpayable",
      "type": "function"
    },
    {
      "inputs": [
        {
          "internalType": "address",
          "name": "_creatorAddress",
          "type": "address"
        },
        {
          "internalType": "uint256",
          "name": "index",
          "type": "uint256"
        }
      ],
      "name": "getCreatedExpense",
      "outputs": [
        {
          "internalType": "string",
          "name": "",
          "type": "string"
        },
        {
          "internalType": "string",
          "name": "",
          "type": "string"
        },
        {
          "internalType": "enum Split.ExpenseCategory",
          "name": "",
          "type": "uint8"
        },
        {
          "internalType": "address",
          "name": "",
          "type": "address"
        },
        {
          "internalType": "uint256",
          "name": "",
          "type": "uint256"
        },
        {
          "internalType": "uint256",
          "name": "",
          "type": "uint256"
        },
        {
          "internalType": "uint256",
          "name": "",
          "type": "uint256"
        },
        {
          "internalType": "enum Split.ExpenseStatus",
          "name": "",
          "type": "uint8"
        },
        {
          "internalType": "address",
          "name": "",
          "type": "address"
        },
        {
          "internalType": "address",
          "name": "",
          "type": "address"
        },
        {
          "components": [
            {
              "internalType": "address",
              "name": "_address",
              "type": "address"
            },
            {
              "internalType": "uint256",
              "name": "amount",
              "type": "uint256"
            },
            {
              "internalType": "uint256",
              "name": "amountOut",
              "type": "uint256"
            },
            {
              "internalType": "bool",
              "name": "hasPaid",
              "type": "bool"
            },
            {
              "internalType": "uint256",
              "name": "paidAt",
              "type": "uint256"
            }
          ],
          "internalType": "struct Split.Debtor[]",
          "name": "",
          "type": "tuple[]"
        }
      ],
      "stateMutability": "view",
      "type": "function"
    },
    {
      "inputs": [
        {
          "internalType": "uint256",
          "name": "expenseId",
          "type": "uint256"
        },
        {
          "internalType": "address",
          "name": "_debtorAddress",
          "type": "address"
        }
      ],
      "name": "getDebt",
      "outputs": [
        {
          "internalType": "uint256",
          "name": "",
          "type": "uint256"
        }
      ],
      "stateMutability": "view",
      "type": "function"
    },
    {
      "inputs": [
        {
          "internalType": "address",
          "name": "_creatorAddress",
          "type": "address"
        }
      ],
      "name": "getNumberOfCreatedExpenses",
      "outputs": [
        {
          "internalType": "uint256",
          "name": "",
          "type": "uint256"
        }
      ],
      "stateMutability": "view",
      "type": "function"
    },
    {
      "inputs": [
        {
          "internalType": "address",
          "name": "_debtorAddress",
          "type": "address"
        }
      ],
      "name": "getNumberOfOwedExpenses",
      "outputs": [
        {
          "internalType": "uint256",
          "name": "",
          "type": "uint256"
        }
      ],
      "stateMutability": "view",
      "type": "function"
    },
    {
      "inputs": [
        {
          "internalType": "address",
          "name": "_debtorAddress",
          "type": "address"
        },
        {
          "internalType": "uint256",
          "name": "index",
          "type": "uint256"
        }
      ],
      "name": "getOwedExpense",
      "outputs": [
        {
          "internalType": "string",
          "name": "",
          "type": "string"
        },
        {
          "internalType": "string",
          "name": "",
          "type": "string"
        },
        {
          "internalType": "enum Split.ExpenseCategory",
          "name": "",
          "type": "uint8"
        },
        {
          "internalType": "address",
          "name": "",
          "type": "address"
        },
        {
          "internalType": "uint256",
          "name": "",
          "type": "uint256"
        },
        {
          "internalType": "uint256",
          "name": "",
          "type": "uint256"
        },
        {
          "internalType": "uint256",
          "name": "",
          "type": "uint256"
        },
        {
          "internalType": "enum Split.ExpenseStatus",
          "name": "",
          "type": "uint8"
        },
        {
          "internalType": "address",
          "name": "",
          "type": "address"
        },
        {
          "internalType": "address",
          "name": "",
          "type": "address"
        },
        {
          "components": [
            {
              "internalType": "address",
              "name": "_address",
              "type": "address"
            },
            {
              "internalType": "uint256",
              "name": "amount",
              "type": "uint256"
            },
            {
              "internalType": "uint256",
              "name": "amountOut",
              "type": "uint256"
            },
            {
              "internalType": "bool",
              "name": "hasPaid",
              "type": "bool"
            },
            {
              "internalType": "uint256",
              "name": "paidAt",
              "type": "uint256"
            }
          ],
          "internalType": "struct Split.Debtor[]",
          "name": "",
          "type": "tuple[]"
        }
      ],
      "stateMutability": "view",
      "type": "function"
    },
    {
      "inputs": [],
      "name": "owner",
      "outputs": [
        {
          "internalType": "address",
          "name": "",
          "type": "address"
        }
      ],
      "stateMutability": "view",
      "type": "function"
    },
    {
      "inputs": [
        {
          "internalType": "bool",
          "name": "status",
          "type": "bool"
        }
      ],
      "name": "pauseContract",
      "outputs": [],
      "stateMutability": "nonpayable",
      "type": "function"
    },
    {
      "inputs": [
        {
          "internalType": "address",
          "name": "fromAsset",
          "type": "address"
        },
        {
          "internalType": "uint24",
          "name": "poolFee",
          "type": "uint24"
        },
        {
          "internalType": "uint256",
          "name": "amountIn",
          "type": "uint256"
        },
        {
          "internalType": "uint256",
          "name": "index",
          "type": "uint256"
        }
      ],
      "name": "payDebt",
      "outputs": [],
      "stateMutability": "nonpayable",
      "type": "function"
    },
    {
      "inputs": [],
      "name": "renounceOwnership",
      "outputs": [],
      "stateMutability": "nonpayable",
      "type": "function"
    },
    {
      "inputs": [
        {
          "internalType": "address",
          "name": "_address",
          "type": "address"
        }
      ],
      "name": "setSwapContractAddress",
      "outputs": [],
      "stateMutability": "nonpayable",
      "type": "function"
    },
    {
      "inputs": [
        {
          "internalType": "address",
          "name": "newOwner",
          "type": "address"
        }
      ],
      "name": "transferOwnership",
      "outputs": [],
      "stateMutability": "nonpayable",
      "type": "function"
    }
  ],
  "bytecode": "0x608060405260008060146101000a81548160ff0219169083151502179055503480156200002b57600080fd5b506200004c620000406200005260201b60201c565b6200005a60201b60201c565b6200011e565b600033905090565b60008060009054906101000a900473ffffffffffffffffffffffffffffffffffffffff169050816000806101000a81548173ffffffffffffffffffffffffffffffffffffffff021916908373ffffffffffffffffffffffffffffffffffffffff1602179055508173ffffffffffffffffffffffffffffffffffffffff168173ffffffffffffffffffffffffffffffffffffffff167f8be0079c531659141344cd1fd0a4f28419497f9722a3daafe3b4186f6b6457e060405160405180910390a35050565b6131ea806200012e6000396000f3fe608060405234801561001057600080fd5b50600436106100ea5760003560e01c80638da5cb5b1161008c578063e353967411610066578063e35396741461023f578063e5ffd1a81461026f578063e9b28f1a1461028d578063f2fde38b146102c7576100ea565b80638da5cb5b146101e7578063c890b60e14610205578063e272b89214610223576100ea565b80636f0c5179116100c85780636f0c5179146101755780636faaf2231461019157806370b4d9db146101ad578063715018a6146101dd576100ea565b80631164927b146100ef5780634c5eee1f1461011f578063539a6b2c14610159575b600080fd5b61010960048036038101906101049190611f17565b6102e3565b6040516101169190611f5d565b60405180910390f35b61013960048036038101906101349190611fa4565b6103eb565b6040516101509b9a9998979695949392919061229b565b60405180910390f35b610173600480360381019061016e919061260e565b610794565b005b61018f600480360381019061018a9190612767565b610fd6565b005b6101ab60048036038101906101a69190611f17565b611526565b005b6101c760048036038101906101c29190611f17565b6115e2565b6040516101d49190611f5d565b60405180910390f35b6101e56116ea565b005b6101ef6116fe565b6040516101fc91906127ce565b60405180910390f35b61020d611727565b60405161021a91906127ce565b60405180910390f35b61023d60048036038101906102389190612815565b61174d565b005b61025960048036038101906102549190612842565b611772565b6040516102669190611f5d565b60405180910390f35b610277611841565b60405161028491906127ce565b60405180910390f35b6102a760048036038101906102a29190611fa4565b611867565b6040516102be9b9a9998979695949392919061229b565b60405180910390f35b6102e160048036038101906102dc9190611f17565b611c10565b005b60008060149054906101000a900460ff1615610334576040517f08c379a000000000000000000000000000000000000000000000000000000000815260040161032b906128ce565b60405180910390fd5b600073ffffffffffffffffffffffffffffffffffffffff168273ffffffffffffffffffffffffffffffffffffffff1614156103a4576040517f08c379a000000000000000000000000000000000000000000000000000000000815260040161039b9061293a565b60405180910390fd5b600660008373ffffffffffffffffffffffffffffffffffffffff1673ffffffffffffffffffffffffffffffffffffffff168152602001908152602001600020549050919050565b6060806000806000806000806000806060600060149054906101000a900460ff161561044c576040517f08c379a0000000000000000000000000000000000000000000000000000000008152600401610443906128ce565b60405180910390fd5b6000600360008f73ffffffffffffffffffffffffffffffffffffffff1673ffffffffffffffffffffffffffffffffffffffff16815260200190815260200160002060008e8152602001908152602001600020549050600060086000838152602001908152602001600020905080600001816001018260020160009054906101000a900460ff168360020160019054906101000a900473ffffffffffffffffffffffffffffffffffffffff168460030154856005015486600601548760070160009054906101000a900460ff168860080160000160009054906101000a900473ffffffffffffffffffffffffffffffffffffffff168960090160000160009054906101000a900473ffffffffffffffffffffffffffffffffffffffff168a600a018a805461057890612989565b80601f01602080910402602001604051908101604052809291908181526020018280546105a490612989565b80156105f15780601f106105c6576101008083540402835291602001916105f1565b820191906000526020600020905b8154815290600101906020018083116105d457829003601f168201915b50505050509a5089805461060490612989565b80601f016020809104026020016040519081016040528092919081815260200182805461063090612989565b801561067d5780601f106106525761010080835404028352916020019161067d565b820191906000526020600020905b81548152906001019060200180831161066057829003601f168201915b5050505050995080805480602002602001604051908101604052809291908181526020016000905b8282101561076657838290600052602060002090600502016040518060a00160405290816000820160009054906101000a900473ffffffffffffffffffffffffffffffffffffffff1673ffffffffffffffffffffffffffffffffffffffff1673ffffffffffffffffffffffffffffffffffffffff16815260200160018201548152602001600282015481526020016003820160009054906101000a900460ff16151515158152602001600482015481525050815260200190600101906106a5565b5050505090509c509c509c509c509c509c509c509c509c509c509c5050509295989b509295989b9093969950565b600060149054906101000a900460ff16156107e4576040517f08c379a00000000000000000000000000000000000000000000000000000000081526004016107db906128ce565b60405180910390fd5b6000895111610828576040517f08c379a000000000000000000000000000000000000000000000000000000000815260040161081f90612a07565b60405180910390fd5b6000871161086b576040517f08c379a000000000000000000000000000000000000000000000000000000000815260040161086290612a73565b60405180910390fd5b600160009054906101000a900473ffffffffffffffffffffffffffffffffffffffff1673ffffffffffffffffffffffffffffffffffffffff16637e723266876040518263ffffffff1660e01b81526004016108c691906127ce565b60206040518083038186803b1580156108de57600080fd5b505afa1580156108f2573d6000803e3d6000fd5b505050506040513d601f19601f820116820180604052508101906109169190612aa8565b610955576040517f08c379a000000000000000000000000000000000000000000000000000000000815260040161094c90612b47565b60405180910390fd5b600073ffffffffffffffffffffffffffffffffffffffff16836000015173ffffffffffffffffffffffffffffffffffffffff1614156109c9576040517f08c379a00000000000000000000000000000000000000000000000000000000081526004016109c090612bd9565b60405180910390fd5b60006109d56009611c94565b905060006008600083815260200190815260200160002090508a816000019080519060200190610a06929190611e02565b5089816001019080519060200190610a1f929190611e02565b50888160030181905550878160020160016101000a81548173ffffffffffffffffffffffffffffffffffffffff021916908373ffffffffffffffffffffffffffffffffffffffff160217905550848160090160008201518160000160006101000a81548173ffffffffffffffffffffffffffffffffffffffff021916908373ffffffffffffffffffffffffffffffffffffffff160217905550905050838160080160008201518160000160006101000a81548173ffffffffffffffffffffffffffffffffffffffff021916908373ffffffffffffffffffffffffffffffffffffffff160217905550905050428160060181905550868160020160006101000a81548160ff02191690836003811115610b3a57610b3961207d565b5b021790555060008160070160006101000a81548160ff02191690836002811115610b6757610b6661207d565b5b0217905550858160050181905550600081600401819055508160036000866000015173ffffffffffffffffffffffffffffffffffffffff1673ffffffffffffffffffffffffffffffffffffffff168152602001908152602001600020600060066000886000015173ffffffffffffffffffffffffffffffffffffffff1673ffffffffffffffffffffffffffffffffffffffff16815260200190815260200160002054815260200190815260200160002081905550600160066000866000015173ffffffffffffffffffffffffffffffffffffffff1673ffffffffffffffffffffffffffffffffffffffff1681526020019081526020016000206000828254610c6f9190612c28565b9250508190555060005b8351811015610f2e576000848281518110610c9757610c96612c7e565b5b6020026020010151600001519050600073ffffffffffffffffffffffffffffffffffffffff168173ffffffffffffffffffffffffffffffffffffffff161415610d15576040517f08c379a0000000000000000000000000000000000000000000000000000000008152600401610d0c90612d1f565b60405180910390fd5b6000600760008373ffffffffffffffffffffffffffffffffffffffff1673ffffffffffffffffffffffffffffffffffffffff1681526020019081526020016000205490506001600760008473ffffffffffffffffffffffffffffffffffffffff1673ffffffffffffffffffffffffffffffffffffffff1681526020019081526020016000206000828254610da99190612c28565b9250508190555084600460008473ffffffffffffffffffffffffffffffffffffffff1673ffffffffffffffffffffffffffffffffffffffff16815260200190815260200160002060008381526020019081526020016000208190555083600a016040518060a001604052808473ffffffffffffffffffffffffffffffffffffffff168152602001888681518110610e4357610e42612c7e565b5b6020026020010151602001518152602001600081526020016000151581526020016000815250908060018154018082558091505060019003906000526020600020906005020160009091909190915060008201518160000160006101000a81548173ffffffffffffffffffffffffffffffffffffffff021916908373ffffffffffffffffffffffffffffffffffffffff160217905550602082015181600101556040820151816002015560608201518160030160006101000a81548160ff02191690831515021790555060808201518160040155505050508080610f2690612d3f565b915050610c79565b50610f396009611ca2565b836000015173ffffffffffffffffffffffffffffffffffffffff16827f3c79d61c98469e21c55452f60f02d0300aa8fad7f856ffabfcc524d93e4bdfaf896003811115610f8957610f8861207d565b5b8460070160009054906101000a900460ff166002811115610fad57610fac61207d565b5b8f8f8f604051610fc1959493929190612da4565b60405180910390a35050505050505050505050565b600160009054906101000a900473ffffffffffffffffffffffffffffffffffffffff1673ffffffffffffffffffffffffffffffffffffffff16637e723266856040518263ffffffff1660e01b815260040161103191906127ce565b60206040518083038186803b15801561104957600080fd5b505afa15801561105d573d6000803e3d6000fd5b505050506040513d601f19601f820116820180604052508101906110819190612aa8565b6110c0576040517f08c379a00000000000000000000000000000000000000000000000000000000081526004016110b790612e51565b60405180910390fd5b60008362ffffff1611611108576040517f08c379a00000000000000000000000000000000000000000000000000000000081526004016110ff90612ebd565b60405180910390fd5b6000821161114b576040517f08c379a000000000000000000000000000000000000000000000000000000000815260040161114290612f29565b60405180910390fd5b6000600160009054906101000a900473ffffffffffffffffffffffffffffffffffffffff1690506000600460003373ffffffffffffffffffffffffffffffffffffffff1673ffffffffffffffffffffffffffffffffffffffff1681526020019081526020016000206000848152602001908152602001600020549050600060086000838152602001908152602001600020905060006111ea8333611772565b9050600082600a01828154811061120457611203612c7e565b5b9060005260206000209060050201905060008573ffffffffffffffffffffffffffffffffffffffff16638b1ab4058b8660020160019054906101000a900473ffffffffffffffffffffffffffffffffffffffff1633308e8e6040518763ffffffff1660e01b815260040161127d96959493929190612f58565b602060405180830381600087803b15801561129757600080fd5b505af11580156112ab573d6000803e3d6000fd5b505050506040513d601f19601f820116820180604052508101906112cf9190612fce565b9050808260020160008282546112e59190612c28565b92505081905550808460040160008282546113009190612c28565b9250508190555081600101548260020154106113345760018260030160006101000a81548160ff0219169083151502179055505b428260040181905550836003015484600401541061148d5760005b84600a018054905081101561139e57600085600a01828154811061137657611375612c7e565b5b906000526020600020906005020160020181905550808061139690612d3f565b91505061134f565b50600084600401549050600085600401819055508460020160019054906101000a900473ffffffffffffffffffffffffffffffffffffffff1673ffffffffffffffffffffffffffffffffffffffff1663a9059cbb8660090160000160009054906101000a900473ffffffffffffffffffffffffffffffffffffffff16836040518363ffffffff1660e01b8152600401611438929190612ffb565b602060405180830381600087803b15801561145257600080fd5b505af1158015611466573d6000803e3d6000fd5b505050506040513d601f19601f8201168201806040525081019061148a9190612aa8565b50505b3373ffffffffffffffffffffffffffffffffffffffff168460090160000160009054906101000a900473ffffffffffffffffffffffffffffffffffffffff1673ffffffffffffffffffffffffffffffffffffffff16867f6e7b41b070de33dae21e20e9680390fd4a4cf1827dafb61fc22d9f0f724beed1846040516115129190611f5d565b60405180910390a450505050505050505050565b61152e611cb8565b600073ffffffffffffffffffffffffffffffffffffffff168173ffffffffffffffffffffffffffffffffffffffff16141561159e576040517f08c379a000000000000000000000000000000000000000000000000000000000815260040161159590613096565b60405180910390fd5b80600160006101000a81548173ffffffffffffffffffffffffffffffffffffffff021916908373ffffffffffffffffffffffffffffffffffffffff16021790555050565b60008060149054906101000a900460ff1615611633576040517f08c379a000000000000000000000000000000000000000000000000000000000815260040161162a906128ce565b60405180910390fd5b600073ffffffffffffffffffffffffffffffffffffffff168273ffffffffffffffffffffffffffffffffffffffff1614156116a3576040517f08c379a000000000000000000000000000000000000000000000000000000000815260040161169a9061293a565b60405180910390fd5b600760008373ffffffffffffffffffffffffffffffffffffffff1673ffffffffffffffffffffffffffffffffffffffff168152602001908152602001600020549050919050565b6116f2611cb8565b6116fc6000611d36565b565b60008060009054906101000a900473ffffffffffffffffffffffffffffffffffffffff16905090565b600260009054906101000a900473ffffffffffffffffffffffffffffffffffffffff1681565b611755611cb8565b80600060146101000a81548160ff02191690831515021790555050565b60008060086000858152602001908152602001600020905060005b81600a0180549050811015611834578373ffffffffffffffffffffffffffffffffffffffff1682600a0182815481106117c9576117c8612c7e565b5b906000526020600020906005020160000160009054906101000a900473ffffffffffffffffffffffffffffffffffffffff1673ffffffffffffffffffffffffffffffffffffffff16141561182157809250505061183b565b808061182c90612d3f565b91505061178d565b5060009150505b92915050565b600160009054906101000a900473ffffffffffffffffffffffffffffffffffffffff1681565b6060806000806000806000806000806060600060149054906101000a900460ff16156118c8576040517f08c379a00000000000000000000000000000000000000000000000000000000081526004016118bf906128ce565b60405180910390fd5b6000600460008f73ffffffffffffffffffffffffffffffffffffffff1673ffffffffffffffffffffffffffffffffffffffff16815260200190815260200160002060008e8152602001908152602001600020549050600060086000838152602001908152602001600020905080600001816001018260020160009054906101000a900460ff168360020160019054906101000a900473ffffffffffffffffffffffffffffffffffffffff168460030154856005015486600601548760070160009054906101000a900460ff168860080160000160009054906101000a900473ffffffffffffffffffffffffffffffffffffffff168960090160000160009054906101000a900473ffffffffffffffffffffffffffffffffffffffff168a600a018a80546119f490612989565b80601f0160208091040260200160405190810160405280929190818152602001828054611a2090612989565b8015611a6d5780601f10611a4257610100808354040283529160200191611a6d565b820191906000526020600020905b815481529060010190602001808311611a5057829003601f168201915b50505050509a50898054611a8090612989565b80601f0160208091040260200160405190810160405280929190818152602001828054611aac90612989565b8015611af95780601f10611ace57610100808354040283529160200191611af9565b820191906000526020600020905b815481529060010190602001808311611adc57829003601f168201915b5050505050995080805480602002602001604051908101604052809291908181526020016000905b82821015611be257838290600052602060002090600502016040518060a00160405290816000820160009054906101000a900473ffffffffffffffffffffffffffffffffffffffff1673ffffffffffffffffffffffffffffffffffffffff1673ffffffffffffffffffffffffffffffffffffffff16815260200160018201548152602001600282015481526020016003820160009054906101000a900460ff1615151515815260200160048201548152505081526020019060010190611b21565b5050505090509c509c509c509c509c509c509c509c509c509c509c5050509295989b509295989b9093969950565b611c18611cb8565b600073ffffffffffffffffffffffffffffffffffffffff168173ffffffffffffffffffffffffffffffffffffffff161415611c88576040517f08c379a0000000000000000000000000000000000000000000000000000000008152600401611c7f90613128565b60405180910390fd5b611c9181611d36565b50565b600081600001549050919050565b6001816000016000828254019250508190555050565b611cc0611dfa565b73ffffffffffffffffffffffffffffffffffffffff16611cde6116fe565b73ffffffffffffffffffffffffffffffffffffffff1614611d34576040517f08c379a0000000000000000000000000000000000000000000000000000000008152600401611d2b90613194565b60405180910390fd5b565b60008060009054906101000a900473ffffffffffffffffffffffffffffffffffffffff169050816000806101000a81548173ffffffffffffffffffffffffffffffffffffffff021916908373ffffffffffffffffffffffffffffffffffffffff1602179055508173ffffffffffffffffffffffffffffffffffffffff168173ffffffffffffffffffffffffffffffffffffffff167f8be0079c531659141344cd1fd0a4f28419497f9722a3daafe3b4186f6b6457e060405160405180910390a35050565b600033905090565b828054611e0e90612989565b90600052602060002090601f016020900481019282611e305760008555611e77565b82601f10611e4957805160ff1916838001178555611e77565b82800160010185558215611e77579182015b82811115611e76578251825591602001919060010190611e5b565b5b509050611e849190611e88565b5090565b5b80821115611ea1576000816000905550600101611e89565b5090565b6000604051905090565b600080fd5b600080fd5b600073ffffffffffffffffffffffffffffffffffffffff82169050919050565b6000611ee482611eb9565b9050919050565b611ef481611ed9565b8114611eff57600080fd5b50565b600081359050611f1181611eeb565b92915050565b600060208284031215611f2d57611f2c611eaf565b5b6000611f3b84828501611f02565b91505092915050565b6000819050919050565b611f5781611f44565b82525050565b6000602082019050611f726000830184611f4e565b92915050565b611f8181611f44565b8114611f8c57600080fd5b50565b600081359050611f9e81611f78565b92915050565b60008060408385031215611fbb57611fba611eaf565b5b6000611fc985828601611f02565b9250506020611fda85828601611f8f565b9150509250929050565b600081519050919050565b600082825260208201905092915050565b60005b8381101561201e578082015181840152602081019050612003565b8381111561202d576000848401525b50505050565b6000601f19601f8301169050919050565b600061204f82611fe4565b6120598185611fef565b9350612069818560208601612000565b61207281612033565b840191505092915050565b7f4e487b7100000000000000000000000000000000000000000000000000000000600052602160045260246000fd5b600481106120bd576120bc61207d565b5b50565b60008190506120ce826120ac565b919050565b60006120de826120c0565b9050919050565b6120ee816120d3565b82525050565b6120fd81611ed9565b82525050565b600381106121145761211361207d565b5b50565b600081905061212582612103565b919050565b600061213582612117565b9050919050565b6121458161212a565b82525050565b600081519050919050565b600082825260208201905092915050565b6000819050602082019050919050565b61218081611ed9565b82525050565b61218f81611f44565b82525050565b60008115159050919050565b6121aa81612195565b82525050565b60a0820160008201516121c66000850182612177565b5060208201516121d96020850182612186565b5060408201516121ec6040850182612186565b5060608201516121ff60608501826121a1565b5060808201516122126080850182612186565b50505050565b600061222483836121b0565b60a08301905092915050565b6000602082019050919050565b60006122488261214b565b6122528185612156565b935061225d83612167565b8060005b8381101561228e5781516122758882612218565b975061228083612230565b925050600181019050612261565b5085935050505092915050565b60006101608201905081810360008301526122b6818e612044565b905081810360208301526122ca818d612044565b90506122d9604083018c6120e5565b6122e6606083018b6120f4565b6122f3608083018a611f4e565b61230060a0830189611f4e565b61230d60c0830188611f4e565b61231a60e083018761213c565b6123286101008301866120f4565b6123366101208301856120f4565b818103610140830152612349818461223d565b90509c9b505050505050505050505050565b600080fd5b600080fd5b7f4e487b7100000000000000000000000000000000000000000000000000000000600052604160045260246000fd5b61239d82612033565b810181811067ffffffffffffffff821117156123bc576123bb612365565b5b80604052505050565b60006123cf611ea5565b90506123db8282612394565b919050565b600067ffffffffffffffff8211156123fb576123fa612365565b5b61240482612033565b9050602081019050919050565b82818337600083830152505050565b600061243361242e846123e0565b6123c5565b90508281526020810184848401111561244f5761244e612360565b5b61245a848285612411565b509392505050565b600082601f8301126124775761247661235b565b5b8135612487848260208601612420565b91505092915050565b6004811061249d57600080fd5b50565b6000813590506124af81612490565b92915050565b600080fd5b6000602082840312156124d0576124cf6124b5565b5b6124da60206123c5565b905060006124ea84828501611f02565b60008301525092915050565b600067ffffffffffffffff82111561251157612510612365565b5b602082029050602081019050919050565b600080fd5b60006040828403121561253d5761253c6124b5565b5b61254760406123c5565b9050600061255784828501611f02565b600083015250602061256b84828501611f8f565b60208301525092915050565b600061258a612585846124f6565b6123c5565b905080838252602082019050604084028301858111156125ad576125ac612522565b5b835b818110156125d657806125c28882612527565b8452602084019350506040810190506125af565b5050509392505050565b600082601f8301126125f5576125f461235b565b5b8135612605848260208601612577565b91505092915050565b60008060008060008060008060006101208a8c03121561263157612630611eaf565b5b60008a013567ffffffffffffffff81111561264f5761264e611eb4565b5b61265b8c828d01612462565b99505060208a013567ffffffffffffffff81111561267c5761267b611eb4565b5b6126888c828d01612462565b98505060406126998c828d01611f8f565b97505060606126aa8c828d01611f02565b96505060806126bb8c828d016124a0565b95505060a06126cc8c828d01611f8f565b94505060c06126dd8c828d016124ba565b93505060e06126ee8c828d016124ba565b9250506101008a013567ffffffffffffffff8111156127105761270f611eb4565b5b61271c8c828d016125e0565b9150509295985092959850929598565b600062ffffff82169050919050565b6127448161272c565b811461274f57600080fd5b50565b6000813590506127618161273b565b92915050565b6000806000806080858703121561278157612780611eaf565b5b600061278f87828801611f02565b94505060206127a087828801612752565b93505060406127b187828801611f8f565b92505060606127c287828801611f8f565b91505092959194509250565b60006020820190506127e360008301846120f4565b92915050565b6127f281612195565b81146127fd57600080fd5b50565b60008135905061280f816127e9565b92915050565b60006020828403121561282b5761282a611eaf565b5b600061283984828501612800565b91505092915050565b6000806040838503121561285957612858611eaf565b5b600061286785828601611f8f565b925050602061287885828601611f02565b9150509250929050565b7f436f6e7472616374206973207061757365640000000000000000000000000000600082015250565b60006128b8601283611fef565b91506128c382612882565b602082019050919050565b600060208201905081810360008301526128e7816128ab565b9050919050565b7f496e76616c696420616464726573730000000000000000000000000000000000600082015250565b6000612924600f83611fef565b915061292f826128ee565b602082019050919050565b6000602082019050818103600083015261295381612917565b9050919050565b7f4e487b7100000000000000000000000000000000000000000000000000000000600052602260045260246000fd5b600060028204905060018216806129a157607f821691505b602082108114156129b5576129b461295a565b5b50919050565b7f457870656e7365206e616d652069732072657175697265640000000000000000600082015250565b60006129f1601883611fef565b91506129fc826129bb565b602082019050919050565b60006020820190508181036000830152612a20816129e4565b9050919050565b7f616d6f756e74206d7573742062652067726561746572207468616e2030000000600082015250565b6000612a5d601d83611fef565b9150612a6882612a27565b602082019050919050565b60006020820190508181036000830152612a8c81612a50565b9050919050565b600081519050612aa2816127e9565b92915050565b600060208284031215612abe57612abd611eaf565b5b6000612acc84828501612a93565b91505092915050565b7f496e76616c696420746f6b656e2061646472657373206f7220454e53206e616d60008201527f6573000000000000000000000000000000000000000000000000000000000000602082015250565b6000612b31602283611fef565b9150612b3c82612ad5565b604082019050919050565b60006020820190508181036000830152612b6081612b24565b9050919050565b7f496e76616c69642020726563697069656e742061646472657373206f7220454e60008201527f53206e616d657300000000000000000000000000000000000000000000000000602082015250565b6000612bc3602783611fef565b9150612bce82612b67565b604082019050919050565b60006020820190508181036000830152612bf281612bb6565b9050919050565b7f4e487b7100000000000000000000000000000000000000000000000000000000600052601160045260246000fd5b6000612c3382611f44565b9150612c3e83611f44565b9250827fffffffffffffffffffffffffffffffffffffffffffffffffffffffffffffffff03821115612c7357612c72612bf9565b5b828201905092915050565b7f4e487b7100000000000000000000000000000000000000000000000000000000600052603260045260246000fd5b7f696e76616c6964206164647265737320646562746f72206f7220454e53206e6160008201527f6d65000000000000000000000000000000000000000000000000000000000000602082015250565b6000612d09602283611fef565b9150612d1482612cad565b604082019050919050565b60006020820190508181036000830152612d3881612cfc565b9050919050565b6000612d4a82611f44565b91507fffffffffffffffffffffffffffffffffffffffffffffffffffffffffffffffff821415612d7d57612d7c612bf9565b5b600182019050919050565b600060ff82169050919050565b612d9e81612d88565b82525050565b600060a082019050612db96000830188612d95565b612dc66020830187612d95565b8181036040830152612dd88186612044565b90508181036060830152612dec8185612044565b9050612dfb6080830184611f4e565b9695505050505050565b7f496e76616c696420617373657420616464726573730000000000000000000000600082015250565b6000612e3b601583611fef565b9150612e4682612e05565b602082019050919050565b60006020820190508181036000830152612e6a81612e2e565b9050919050565b7f506f6f6c20666565206973206e6f7420656e6f75676800000000000000000000600082015250565b6000612ea7601683611fef565b9150612eb282612e71565b602082019050919050565b60006020820190508181036000830152612ed681612e9a565b9050919050565b7f416d6f756e742073656e74206973206e6f7420656e6f75676800000000000000600082015250565b6000612f13601983611fef565b9150612f1e82612edd565b602082019050919050565b60006020820190508181036000830152612f4281612f06565b9050919050565b612f528161272c565b82525050565b600060c082019050612f6d60008301896120f4565b612f7a60208301886120f4565b612f8760408301876120f4565b612f9460608301866120f4565b612fa16080830185612f49565b612fae60a0830184611f4e565b979650505050505050565b600081519050612fc881611f78565b92915050565b600060208284031215612fe457612fe3611eaf565b5b6000612ff284828501612fb9565b91505092915050565b600060408201905061301060008301856120f4565b61301d6020830184611f4e565b9392505050565b7f5377617020636f6e747261637420616464726573732063616e6e6f742062652060008201527f3078300000000000000000000000000000000000000000000000000000000000602082015250565b6000613080602383611fef565b915061308b82613024565b604082019050919050565b600060208201905081810360008301526130af81613073565b9050919050565b7f4f776e61626c653a206e6577206f776e657220697320746865207a65726f206160008201527f6464726573730000000000000000000000000000000000000000000000000000602082015250565b6000613112602683611fef565b915061311d826130b6565b604082019050919050565b6000602082019050818103600083015261314181613105565b9050919050565b7f4f776e61626c653a2063616c6c6572206973206e6f7420746865206f776e6572600082015250565b600061317e602083611fef565b915061318982613148565b602082019050919050565b600060208201905081810360008301526131ad81613171565b905091905056fea26469706673582212200b32f3f4426864af5714456846d9d6258ca269b826a238e6926eebeb2a99902664736f6c63430008090033",
  "linkReferences": {},
  "deployedLinkReferences": {}
}