{
  "address": "0x371B3Ad39fEaAb44c619A4d2B1FEdD9e9A6e8dEb",
  "_format": "hh-sol-artifact-1",
  "contractName": "Split",
  "sourceName": "contracts/Split.sol",
  "abi": [
    {
      "anonymous": false,
      "inputs": [
        {
          "indexed": true,
          "internalType": "uint256",
          "name": "index",
          "type": "uint256"
        },
        {
          "indexed": true,
          "internalType": "address",
          "name": "recipient",
          "type": "address"
        },
        {
          "indexed": true,
          "internalType": "address",
          "name": "debtor",
          "type": "address"
        },
        {
          "indexed": false,
          "internalType": "uint256",
          "name": "amountPaid",
          "type": "uint256"
        }
      ],
      "name": "DebtorPaid",
      "type": "event"
    },
    {
      "anonymous": false,
      "inputs": [
        {
          "indexed": true,
          "internalType": "uint256",
          "name": "index",
          "type": "uint256"
        },
        {
          "indexed": true,
          "internalType": "address",
          "name": "creator",
          "type": "address"
        },
        {
          "indexed": true,
          "internalType": "address",
          "name": "recipient",
          "type": "address"
        }
      ],
      "name": "ExpenseCancelled",
      "type": "event"
    },
    {
      "anonymous": false,
      "inputs": [
        {
          "indexed": true,
          "internalType": "uint256",
          "name": "index",
          "type": "uint256"
        },
        {
          "indexed": false,
          "internalType": "uint8",
          "name": "category",
          "type": "uint8"
        },
        {
          "indexed": false,
          "internalType": "uint8",
          "name": "status",
          "type": "uint8"
        },
        {
          "indexed": true,
          "internalType": "address",
          "name": "creator",
          "type": "address"
        },
        {
          "indexed": false,
          "internalType": "string",
          "name": "name",
          "type": "string"
        },
        {
          "indexed": false,
          "internalType": "string",
          "name": "description",
          "type": "string"
        },
        {
          "indexed": false,
          "internalType": "uint256",
          "name": "amount",
          "type": "uint256"
        }
      ],
      "name": "ExpenseCreated",
      "type": "event"
    },
    {
      "anonymous": false,
      "inputs": [
        {
          "indexed": true,
          "internalType": "address",
          "name": "previousOwner",
          "type": "address"
        },
        {
          "indexed": true,
          "internalType": "address",
          "name": "newOwner",
          "type": "address"
        }
      ],
      "name": "OwnershipTransferred",
      "type": "event"
    },
    {
      "anonymous": false,
      "inputs": [
        {
          "indexed": true,
          "internalType": "uint256",
          "name": "index",
          "type": "uint256"
        },
        {
          "indexed": true,
          "internalType": "address",
          "name": "recipient",
          "type": "address"
        }
      ],
      "name": "RecipientPaid",
      "type": "event"
    },
    {
      "inputs": [
        {
          "internalType": "string",
          "name": "_name",
          "type": "string"
        },
        {
          "internalType": "string",
          "name": "_description",
          "type": "string"
        },
        {
          "internalType": "uint256",
          "name": "_amount",
          "type": "uint256"
        },
        {
          "internalType": "address",
          "name": "_tokenAddress",
          "type": "address"
        },
        {
          "internalType": "enum Split.ExpenseCategory",
          "name": "_category",
          "type": "uint8"
        },
        {
          "internalType": "uint256",
          "name": "_paymentDue",
          "type": "uint256"
        },
        {
          "components": [
            {
              "internalType": "address",
              "name": "_address",
              "type": "address"
            }
          ],
          "internalType": "struct Split.Participant",
          "name": "_recipient",
          "type": "tuple"
        },
        {
          "components": [
            {
              "internalType": "address",
              "name": "_address",
              "type": "address"
            }
          ],
          "internalType": "struct Split.Participant",
          "name": "_creator",
          "type": "tuple"
        },
        {
          "components": [
            {
              "internalType": "address",
              "name": "_address",
              "type": "address"
            },
            {
              "internalType": "uint256",
              "name": "amount",
              "type": "uint256"
            }
          ],
          "internalType": "struct Split.DebtParticipant[]",
          "name": "_debtors",
          "type": "tuple[]"
        }
      ],
      "name": "createExpense",
      "outputs": [],
      "stateMutability": "nonpayable",
      "type": "function"
    },
    {
      "inputs": [
        {
          "internalType": "address",
          "name": "_creatorAddress",
          "type": "address"
        },
        {
          "internalType": "uint256",
          "name": "index",
          "type": "uint256"
        }
      ],
      "name": "getCreatedExpense",
      "outputs": [
        {
          "internalType": "string",
          "name": "",
          "type": "string"
        },
        {
          "internalType": "string",
          "name": "",
          "type": "string"
        },
        {
          "internalType": "enum Split.ExpenseCategory",
          "name": "",
          "type": "uint8"
        },
        {
          "internalType": "uint256",
          "name": "",
          "type": "uint256"
        },
        {
          "internalType": "address",
          "name": "",
          "type": "address"
        },
        {
          "internalType": "enum Split.ExpenseStatus",
          "name": "",
          "type": "uint8"
        },
        {
          "internalType": "uint256",
          "name": "",
          "type": "uint256"
        },
        {
          "internalType": "uint256",
          "name": "",
          "type": "uint256"
        }
      ],
      "stateMutability": "view",
      "type": "function"
    },
    {
      "inputs": [
        {
          "internalType": "uint256",
          "name": "expenseId",
          "type": "uint256"
        },
        {
          "internalType": "address",
          "name": "_debtorAddress",
          "type": "address"
        }
      ],
      "name": "getDebt",
      "outputs": [
        {
          "internalType": "uint256",
          "name": "",
          "type": "uint256"
        }
      ],
      "stateMutability": "view",
      "type": "function"
    },
    {
      "inputs": [
        {
          "internalType": "address",
          "name": "_creatorAddress",
          "type": "address"
        }
      ],
      "name": "getNumberOfCreatedExpenses",
      "outputs": [
        {
          "internalType": "uint256",
          "name": "",
          "type": "uint256"
        }
      ],
      "stateMutability": "view",
      "type": "function"
    },
    {
      "inputs": [
        {
          "internalType": "address",
          "name": "_debtorAddress",
          "type": "address"
        }
      ],
      "name": "getNumberOfOwedExpenses",
      "outputs": [
        {
          "internalType": "uint256",
          "name": "",
          "type": "uint256"
        }
      ],
      "stateMutability": "view",
      "type": "function"
    },
    {
      "inputs": [
        {
          "internalType": "address",
          "name": "_debtorAddress",
          "type": "address"
        },
        {
          "internalType": "uint256",
          "name": "index",
          "type": "uint256"
        }
      ],
      "name": "getOwedExpense",
      "outputs": [
        {
          "internalType": "string",
          "name": "",
          "type": "string"
        },
        {
          "internalType": "string",
          "name": "",
          "type": "string"
        },
        {
          "internalType": "enum Split.ExpenseCategory",
          "name": "",
          "type": "uint8"
        },
        {
          "internalType": "uint256",
          "name": "",
          "type": "uint256"
        },
        {
          "internalType": "bool",
          "name": "",
          "type": "bool"
        },
        {
          "internalType": "uint256",
          "name": "",
          "type": "uint256"
        },
        {
          "internalType": "enum Split.ExpenseStatus",
          "name": "",
          "type": "uint8"
        },
        {
          "internalType": "uint256",
          "name": "",
          "type": "uint256"
        },
        {
          "internalType": "uint256",
          "name": "",
          "type": "uint256"
        }
      ],
      "stateMutability": "view",
      "type": "function"
    },
    {
      "inputs": [],
      "name": "getSwapContractAddress",
      "outputs": [
        {
          "internalType": "address",
          "name": "",
          "type": "address"
        }
      ],
      "stateMutability": "view",
      "type": "function"
    },
    {
      "inputs": [],
      "name": "owner",
      "outputs": [
        {
          "internalType": "address",
          "name": "",
          "type": "address"
        }
      ],
      "stateMutability": "view",
      "type": "function"
    },
    {
      "inputs": [
        {
          "internalType": "bool",
          "name": "status",
          "type": "bool"
        }
      ],
      "name": "pauseContract",
      "outputs": [],
      "stateMutability": "nonpayable",
      "type": "function"
    },
    {
      "inputs": [
        {
          "internalType": "address",
          "name": "fromAsset",
          "type": "address"
        },
        {
          "internalType": "uint24",
          "name": "poolFee",
          "type": "uint24"
        },
        {
          "internalType": "uint256",
          "name": "amountIn",
          "type": "uint256"
        },
        {
          "internalType": "uint256",
          "name": "index",
          "type": "uint256"
        }
      ],
      "name": "payDebt",
      "outputs": [],
      "stateMutability": "nonpayable",
      "type": "function"
    },
    {
      "inputs": [],
      "name": "renounceOwnership",
      "outputs": [],
      "stateMutability": "nonpayable",
      "type": "function"
    },
    {
      "inputs": [
        {
          "internalType": "address",
          "name": "_address",
          "type": "address"
        }
      ],
      "name": "setSwapContractAddress",
      "outputs": [],
      "stateMutability": "nonpayable",
      "type": "function"
    },
    {
      "inputs": [
        {
          "internalType": "address",
          "name": "newOwner",
          "type": "address"
        }
      ],
      "name": "transferOwnership",
      "outputs": [],
      "stateMutability": "nonpayable",
      "type": "function"
    }
  ],
  "bytecode": "0x608060405260008060146101000a81548160ff0219169083151502179055503480156200002b57600080fd5b506200004c620000406200005260201b60201c565b6200005a60201b60201c565b6200011e565b600033905090565b60008060009054906101000a900473ffffffffffffffffffffffffffffffffffffffff169050816000806101000a81548173ffffffffffffffffffffffffffffffffffffffff021916908373ffffffffffffffffffffffffffffffffffffffff1602179055508173ffffffffffffffffffffffffffffffffffffffff168173ffffffffffffffffffffffffffffffffffffffff167f8be0079c531659141344cd1fd0a4f28419497f9722a3daafe3b4186f6b6457e060405160405180910390a35050565b612f53806200012e6000396000f3fe608060405234801561001057600080fd5b50600436106100cf5760003560e01c806370b4d9db1161008c578063e272b89211610066578063e272b89214610205578063e353967414610221578063e9b28f1a14610251578063f2fde38b14610289576100cf565b806370b4d9db146101ad578063715018a6146101dd5780638da5cb5b146101e7576100cf565b80631164927b146100d45780634c5eee1f14610104578063539a6b2c1461013b578063588c2f14146101575780636f0c5179146101755780636faaf22314610191575b600080fd5b6100ee60048036038101906100e99190611ce2565b6102a5565b6040516100fb9190611d28565b60405180910390f35b61011e60048036038101906101199190611d6f565b6103ad565b604051610132989796959493929190611f16565b60405180910390f35b61015560048036038101906101509190612255565b61060c565b005b61015f610e4e565b60405161016c9190612373565b60405180910390f35b61018f600480360381019061018a91906123c9565b610e78565b005b6101ab60048036038101906101a69190611ce2565b6113c8565b005b6101c760048036038101906101c29190611ce2565b611484565b6040516101d49190611d28565b60405180910390f35b6101e561158c565b005b6101ef6115a0565b6040516101fc9190612373565b60405180910390f35b61021f600480360381019061021a9190612468565b6115c9565b005b61023b60048036038101906102369190612495565b6115ee565b6040516102489190611d28565b60405180910390f35b61026b60048036038101906102669190611d6f565b6116bd565b604051610280999897969594939291906124e4565b60405180910390f35b6102a3600480360381019061029e9190611ce2565b6119db565b005b60008060149054906101000a900460ff16156102f6576040517f08c379a00000000000000000000000000000000000000000000000000000000081526004016102ed906125cb565b60405180910390fd5b600073ffffffffffffffffffffffffffffffffffffffff168273ffffffffffffffffffffffffffffffffffffffff161415610366576040517f08c379a000000000000000000000000000000000000000000000000000000000815260040161035d90612637565b60405180910390fd5b600660008373ffffffffffffffffffffffffffffffffffffffff1673ffffffffffffffffffffffffffffffffffffffff168152602001908152602001600020549050919050565b606080600080600080600080600060149054906101000a900460ff1615610409576040517f08c379a0000000000000000000000000000000000000000000000000000000008152600401610400906125cb565b60405180910390fd5b6000600360008c73ffffffffffffffffffffffffffffffffffffffff1673ffffffffffffffffffffffffffffffffffffffff16815260200190815260200160002060008b8152602001908152602001600020549050600060086000838152602001908152602001600020905080600001816001018260020160009054906101000a900460ff1683600301548460020160019054906101000a900473ffffffffffffffffffffffffffffffffffffffff168560070160009054906101000a900460ff16866005015487600601548780546104e190612686565b80601f016020809104026020016040519081016040528092919081815260200182805461050d90612686565b801561055a5780601f1061052f5761010080835404028352916020019161055a565b820191906000526020600020905b81548152906001019060200180831161053d57829003601f168201915b5050505050975086805461056d90612686565b80601f016020809104026020016040519081016040528092919081815260200182805461059990612686565b80156105e65780601f106105bb576101008083540402835291602001916105e6565b820191906000526020600020905b8154815290600101906020018083116105c957829003601f168201915b505050505096509950995099509950995099509950995050509295985092959890939650565b600060149054906101000a900460ff161561065c576040517f08c379a0000000000000000000000000000000000000000000000000000000008152600401610653906125cb565b60405180910390fd5b60008951116106a0576040517f08c379a000000000000000000000000000000000000000000000000000000000815260040161069790612704565b60405180910390fd5b600087116106e3576040517f08c379a00000000000000000000000000000000000000000000000000000000081526004016106da90612770565b60405180910390fd5b600160009054906101000a900473ffffffffffffffffffffffffffffffffffffffff1673ffffffffffffffffffffffffffffffffffffffff16637e723266876040518263ffffffff1660e01b815260040161073e9190612373565b60206040518083038186803b15801561075657600080fd5b505afa15801561076a573d6000803e3d6000fd5b505050506040513d601f19601f8201168201806040525081019061078e91906127a5565b6107cd576040517f08c379a00000000000000000000000000000000000000000000000000000000081526004016107c490612844565b60405180910390fd5b600073ffffffffffffffffffffffffffffffffffffffff16836000015173ffffffffffffffffffffffffffffffffffffffff161415610841576040517f08c379a0000000000000000000000000000000000000000000000000000000008152600401610838906128d6565b60405180910390fd5b600061084d6009611a5f565b905060006008600083815260200190815260200160002090508a81600001908051906020019061087e929190611bcd565b5089816001019080519060200190610897929190611bcd565b50888160030181905550878160020160016101000a81548173ffffffffffffffffffffffffffffffffffffffff021916908373ffffffffffffffffffffffffffffffffffffffff160217905550848160090160008201518160000160006101000a81548173ffffffffffffffffffffffffffffffffffffffff021916908373ffffffffffffffffffffffffffffffffffffffff160217905550905050838160080160008201518160000160006101000a81548173ffffffffffffffffffffffffffffffffffffffff021916908373ffffffffffffffffffffffffffffffffffffffff160217905550905050428160060181905550868160020160006101000a81548160ff021916908360038111156109b2576109b1611e48565b5b021790555060008160070160006101000a81548160ff021916908360028111156109df576109de611e48565b5b0217905550858160050181905550600081600401819055508160036000866000015173ffffffffffffffffffffffffffffffffffffffff1673ffffffffffffffffffffffffffffffffffffffff168152602001908152602001600020600060066000886000015173ffffffffffffffffffffffffffffffffffffffff1673ffffffffffffffffffffffffffffffffffffffff16815260200190815260200160002054815260200190815260200160002081905550600160066000866000015173ffffffffffffffffffffffffffffffffffffffff1673ffffffffffffffffffffffffffffffffffffffff1681526020019081526020016000206000828254610ae79190612925565b9250508190555060005b8351811015610da6576000848281518110610b0f57610b0e61297b565b5b6020026020010151600001519050600073ffffffffffffffffffffffffffffffffffffffff168173ffffffffffffffffffffffffffffffffffffffff161415610b8d576040517f08c379a0000000000000000000000000000000000000000000000000000000008152600401610b8490612a1c565b60405180910390fd5b6000600760008373ffffffffffffffffffffffffffffffffffffffff1673ffffffffffffffffffffffffffffffffffffffff1681526020019081526020016000205490506001600760008473ffffffffffffffffffffffffffffffffffffffff1673ffffffffffffffffffffffffffffffffffffffff1681526020019081526020016000206000828254610c219190612925565b9250508190555084600460008473ffffffffffffffffffffffffffffffffffffffff1673ffffffffffffffffffffffffffffffffffffffff16815260200190815260200160002060008381526020019081526020016000208190555083600a016040518060a001604052808473ffffffffffffffffffffffffffffffffffffffff168152602001888681518110610cbb57610cba61297b565b5b6020026020010151602001518152602001600081526020016000151581526020016000815250908060018154018082558091505060019003906000526020600020906005020160009091909190915060008201518160000160006101000a81548173ffffffffffffffffffffffffffffffffffffffff021916908373ffffffffffffffffffffffffffffffffffffffff160217905550602082015181600101556040820151816002015560608201518160030160006101000a81548160ff02191690831515021790555060808201518160040155505050508080610d9e90612a3c565b915050610af1565b50610db16009611a6d565b836000015173ffffffffffffffffffffffffffffffffffffffff16827f3c79d61c98469e21c55452f60f02d0300aa8fad7f856ffabfcc524d93e4bdfaf896003811115610e0157610e00611e48565b5b8460070160009054906101000a900460ff166002811115610e2557610e24611e48565b5b8f8f8f604051610e39959493929190612aa1565b60405180910390a35050505050505050505050565b6000600160009054906101000a900473ffffffffffffffffffffffffffffffffffffffff16905090565b600160009054906101000a900473ffffffffffffffffffffffffffffffffffffffff1673ffffffffffffffffffffffffffffffffffffffff16637e723266856040518263ffffffff1660e01b8152600401610ed39190612373565b60206040518083038186803b158015610eeb57600080fd5b505afa158015610eff573d6000803e3d6000fd5b505050506040513d601f19601f82011682018060405250810190610f2391906127a5565b610f62576040517f08c379a0000000000000000000000000000000000000000000000000000000008152600401610f5990612b4e565b60405180910390fd5b60008362ffffff1611610faa576040517f08c379a0000000000000000000000000000000000000000000000000000000008152600401610fa190612bba565b60405180910390fd5b60008211610fed576040517f08c379a0000000000000000000000000000000000000000000000000000000008152600401610fe490612c26565b60405180910390fd5b6000600160009054906101000a900473ffffffffffffffffffffffffffffffffffffffff1690506000600460003373ffffffffffffffffffffffffffffffffffffffff1673ffffffffffffffffffffffffffffffffffffffff16815260200190815260200160002060008481526020019081526020016000205490506000600860008381526020019081526020016000209050600061108c83336115ee565b9050600082600a0182815481106110a6576110a561297b565b5b9060005260206000209060050201905060008573ffffffffffffffffffffffffffffffffffffffff16638b1ab4058b8660020160019054906101000a900473ffffffffffffffffffffffffffffffffffffffff1633308e8e6040518763ffffffff1660e01b815260040161111f96959493929190612c55565b602060405180830381600087803b15801561113957600080fd5b505af115801561114d573d6000803e3d6000fd5b505050506040513d601f19601f820116820180604052508101906111719190612ccb565b9050808260020160008282546111879190612925565b92505081905550808460040160008282546111a29190612925565b9250508190555081600101548260020154106111d65760018260030160006101000a81548160ff0219169083151502179055505b428260040181905550836003015484600401541061132f5760005b84600a018054905081101561124057600085600a0182815481106112185761121761297b565b5b906000526020600020906005020160020181905550808061123890612a3c565b9150506111f1565b50600084600401549050600085600401819055508460020160019054906101000a900473ffffffffffffffffffffffffffffffffffffffff1673ffffffffffffffffffffffffffffffffffffffff1663a9059cbb8660090160000160009054906101000a900473ffffffffffffffffffffffffffffffffffffffff16836040518363ffffffff1660e01b81526004016112da929190612cf8565b602060405180830381600087803b1580156112f457600080fd5b505af1158015611308573d6000803e3d6000fd5b505050506040513d601f19601f8201168201806040525081019061132c91906127a5565b50505b3373ffffffffffffffffffffffffffffffffffffffff168460090160000160009054906101000a900473ffffffffffffffffffffffffffffffffffffffff1673ffffffffffffffffffffffffffffffffffffffff16867f6e7b41b070de33dae21e20e9680390fd4a4cf1827dafb61fc22d9f0f724beed1846040516113b49190611d28565b60405180910390a450505050505050505050565b6113d0611a83565b600073ffffffffffffffffffffffffffffffffffffffff168173ffffffffffffffffffffffffffffffffffffffff161415611440576040517f08c379a000000000000000000000000000000000000000000000000000000000815260040161143790612d93565b60405180910390fd5b80600160006101000a81548173ffffffffffffffffffffffffffffffffffffffff021916908373ffffffffffffffffffffffffffffffffffffffff16021790555050565b60008060149054906101000a900460ff16156114d5576040517f08c379a00000000000000000000000000000000000000000000000000000000081526004016114cc906125cb565b60405180910390fd5b600073ffffffffffffffffffffffffffffffffffffffff168273ffffffffffffffffffffffffffffffffffffffff161415611545576040517f08c379a000000000000000000000000000000000000000000000000000000000815260040161153c90612637565b60405180910390fd5b600760008373ffffffffffffffffffffffffffffffffffffffff1673ffffffffffffffffffffffffffffffffffffffff168152602001908152602001600020549050919050565b611594611a83565b61159e6000611b01565b565b60008060009054906101000a900473ffffffffffffffffffffffffffffffffffffffff16905090565b6115d1611a83565b80600060146101000a81548160ff02191690831515021790555050565b60008060086000858152602001908152602001600020905060005b81600a01805490508110156116b0578373ffffffffffffffffffffffffffffffffffffffff1682600a0182815481106116455761164461297b565b5b906000526020600020906005020160000160009054906101000a900473ffffffffffffffffffffffffffffffffffffffff1673ffffffffffffffffffffffffffffffffffffffff16141561169d5780925050506116b7565b80806116a890612a3c565b915050611609565b5060009150505b92915050565b60608060008060008060008060008060149054906101000a900460ff161561171a576040517f08c379a0000000000000000000000000000000000000000000000000000000008152600401611711906125cb565b60405180910390fd5b6000600460008d73ffffffffffffffffffffffffffffffffffffffff1673ffffffffffffffffffffffffffffffffffffffff16815260200190815260200160002060008c815260200190815260200160002054905060006008600083815260200190815260200160002090506000611792838f6115ee565b9050600082600a0182815481106117ac576117ab61297b565b5b906000526020600020906005020190508e73ffffffffffffffffffffffffffffffffffffffff168160000160009054906101000a900473ffffffffffffffffffffffffffffffffffffffff1673ffffffffffffffffffffffffffffffffffffffff161461184e576040517f08c379a000000000000000000000000000000000000000000000000000000000815260040161184590612dff565b60405180910390fd5b82600001836001018460020160009054906101000a900460ff1683600101548460030160009054906101000a900460ff1685600401548860070160009054906101000a900460ff1689600501548a600601548880546118ac90612686565b80601f01602080910402602001604051908101604052809291908181526020018280546118d890612686565b80156119255780601f106118fa57610100808354040283529160200191611925565b820191906000526020600020905b81548152906001019060200180831161190857829003601f168201915b5050505050985087805461193890612686565b80601f016020809104026020016040519081016040528092919081815260200182805461196490612686565b80156119b15780601f10611986576101008083540402835291602001916119b1565b820191906000526020600020905b81548152906001019060200180831161199457829003601f168201915b505050505097509c509c509c509c509c509c509c509c509c50505050509295985092959850929598565b6119e3611a83565b600073ffffffffffffffffffffffffffffffffffffffff168173ffffffffffffffffffffffffffffffffffffffff161415611a53576040517f08c379a0000000000000000000000000000000000000000000000000000000008152600401611a4a90612e91565b60405180910390fd5b611a5c81611b01565b50565b600081600001549050919050565b6001816000016000828254019250508190555050565b611a8b611bc5565b73ffffffffffffffffffffffffffffffffffffffff16611aa96115a0565b73ffffffffffffffffffffffffffffffffffffffff1614611aff576040517f08c379a0000000000000000000000000000000000000000000000000000000008152600401611af690612efd565b60405180910390fd5b565b60008060009054906101000a900473ffffffffffffffffffffffffffffffffffffffff169050816000806101000a81548173ffffffffffffffffffffffffffffffffffffffff021916908373ffffffffffffffffffffffffffffffffffffffff1602179055508173ffffffffffffffffffffffffffffffffffffffff168173ffffffffffffffffffffffffffffffffffffffff167f8be0079c531659141344cd1fd0a4f28419497f9722a3daafe3b4186f6b6457e060405160405180910390a35050565b600033905090565b828054611bd990612686565b90600052602060002090601f016020900481019282611bfb5760008555611c42565b82601f10611c1457805160ff1916838001178555611c42565b82800160010185558215611c42579182015b82811115611c41578251825591602001919060010190611c26565b5b509050611c4f9190611c53565b5090565b5b80821115611c6c576000816000905550600101611c54565b5090565b6000604051905090565b600080fd5b600080fd5b600073ffffffffffffffffffffffffffffffffffffffff82169050919050565b6000611caf82611c84565b9050919050565b611cbf81611ca4565b8114611cca57600080fd5b50565b600081359050611cdc81611cb6565b92915050565b600060208284031215611cf857611cf7611c7a565b5b6000611d0684828501611ccd565b91505092915050565b6000819050919050565b611d2281611d0f565b82525050565b6000602082019050611d3d6000830184611d19565b92915050565b611d4c81611d0f565b8114611d5757600080fd5b50565b600081359050611d6981611d43565b92915050565b60008060408385031215611d8657611d85611c7a565b5b6000611d9485828601611ccd565b9250506020611da585828601611d5a565b9150509250929050565b600081519050919050565b600082825260208201905092915050565b60005b83811015611de9578082015181840152602081019050611dce565b83811115611df8576000848401525b50505050565b6000601f19601f8301169050919050565b6000611e1a82611daf565b611e248185611dba565b9350611e34818560208601611dcb565b611e3d81611dfe565b840191505092915050565b7f4e487b7100000000000000000000000000000000000000000000000000000000600052602160045260246000fd5b60048110611e8857611e87611e48565b5b50565b6000819050611e9982611e77565b919050565b6000611ea982611e8b565b9050919050565b611eb981611e9e565b82525050565b611ec881611ca4565b82525050565b60038110611edf57611ede611e48565b5b50565b6000819050611ef082611ece565b919050565b6000611f0082611ee2565b9050919050565b611f1081611ef5565b82525050565b6000610100820190508181036000830152611f31818b611e0f565b90508181036020830152611f45818a611e0f565b9050611f546040830189611eb0565b611f616060830188611d19565b611f6e6080830187611ebf565b611f7b60a0830186611f07565b611f8860c0830185611d19565b611f9560e0830184611d19565b9998505050505050505050565b600080fd5b600080fd5b7f4e487b7100000000000000000000000000000000000000000000000000000000600052604160045260246000fd5b611fe482611dfe565b810181811067ffffffffffffffff8211171561200357612002611fac565b5b80604052505050565b6000612016611c70565b90506120228282611fdb565b919050565b600067ffffffffffffffff82111561204257612041611fac565b5b61204b82611dfe565b9050602081019050919050565b82818337600083830152505050565b600061207a61207584612027565b61200c565b90508281526020810184848401111561209657612095611fa7565b5b6120a1848285612058565b509392505050565b600082601f8301126120be576120bd611fa2565b5b81356120ce848260208601612067565b91505092915050565b600481106120e457600080fd5b50565b6000813590506120f6816120d7565b92915050565b600080fd5b600060208284031215612117576121166120fc565b5b612121602061200c565b9050600061213184828501611ccd565b60008301525092915050565b600067ffffffffffffffff82111561215857612157611fac565b5b602082029050602081019050919050565b600080fd5b600060408284031215612184576121836120fc565b5b61218e604061200c565b9050600061219e84828501611ccd565b60008301525060206121b284828501611d5a565b60208301525092915050565b60006121d16121cc8461213d565b61200c565b905080838252602082019050604084028301858111156121f4576121f3612169565b5b835b8181101561221d5780612209888261216e565b8452602084019350506040810190506121f6565b5050509392505050565b600082601f83011261223c5761223b611fa2565b5b813561224c8482602086016121be565b91505092915050565b60008060008060008060008060006101208a8c03121561227857612277611c7a565b5b60008a013567ffffffffffffffff81111561229657612295611c7f565b5b6122a28c828d016120a9565b99505060208a013567ffffffffffffffff8111156122c3576122c2611c7f565b5b6122cf8c828d016120a9565b98505060406122e08c828d01611d5a565b97505060606122f18c828d01611ccd565b96505060806123028c828d016120e7565b95505060a06123138c828d01611d5a565b94505060c06123248c828d01612101565b93505060e06123358c828d01612101565b9250506101008a013567ffffffffffffffff81111561235757612356611c7f565b5b6123638c828d01612227565b9150509295985092959850929598565b60006020820190506123886000830184611ebf565b92915050565b600062ffffff82169050919050565b6123a68161238e565b81146123b157600080fd5b50565b6000813590506123c38161239d565b92915050565b600080600080608085870312156123e3576123e2611c7a565b5b60006123f187828801611ccd565b9450506020612402878288016123b4565b935050604061241387828801611d5a565b925050606061242487828801611d5a565b91505092959194509250565b60008115159050919050565b61244581612430565b811461245057600080fd5b50565b6000813590506124628161243c565b92915050565b60006020828403121561247e5761247d611c7a565b5b600061248c84828501612453565b91505092915050565b600080604083850312156124ac576124ab611c7a565b5b60006124ba85828601611d5a565b92505060206124cb85828601611ccd565b9150509250929050565b6124de81612430565b82525050565b60006101208201905081810360008301526124ff818c611e0f565b90508181036020830152612513818b611e0f565b9050612522604083018a611eb0565b61252f6060830189611d19565b61253c60808301886124d5565b61254960a0830187611d19565b61255660c0830186611f07565b61256360e0830185611d19565b612571610100830184611d19565b9a9950505050505050505050565b7f436f6e7472616374206973207061757365640000000000000000000000000000600082015250565b60006125b5601283611dba565b91506125c08261257f565b602082019050919050565b600060208201905081810360008301526125e4816125a8565b9050919050565b7f496e76616c696420616464726573730000000000000000000000000000000000600082015250565b6000612621600f83611dba565b915061262c826125eb565b602082019050919050565b6000602082019050818103600083015261265081612614565b9050919050565b7f4e487b7100000000000000000000000000000000000000000000000000000000600052602260045260246000fd5b6000600282049050600182168061269e57607f821691505b602082108114156126b2576126b1612657565b5b50919050565b7f457870656e7365206e616d652069732072657175697265640000000000000000600082015250565b60006126ee601883611dba565b91506126f9826126b8565b602082019050919050565b6000602082019050818103600083015261271d816126e1565b9050919050565b7f616d6f756e74206d7573742062652067726561746572207468616e2030000000600082015250565b600061275a601d83611dba565b915061276582612724565b602082019050919050565b600060208201905081810360008301526127898161274d565b9050919050565b60008151905061279f8161243c565b92915050565b6000602082840312156127bb576127ba611c7a565b5b60006127c984828501612790565b91505092915050565b7f496e76616c696420746f6b656e2061646472657373206f7220454e53206e616d60008201527f6573000000000000000000000000000000000000000000000000000000000000602082015250565b600061282e602283611dba565b9150612839826127d2565b604082019050919050565b6000602082019050818103600083015261285d81612821565b9050919050565b7f496e76616c69642020726563697069656e742061646472657373206f7220454e60008201527f53206e616d657300000000000000000000000000000000000000000000000000602082015250565b60006128c0602783611dba565b91506128cb82612864565b604082019050919050565b600060208201905081810360008301526128ef816128b3565b9050919050565b7f4e487b7100000000000000000000000000000000000000000000000000000000600052601160045260246000fd5b600061293082611d0f565b915061293b83611d0f565b9250827fffffffffffffffffffffffffffffffffffffffffffffffffffffffffffffffff038211156129705761296f6128f6565b5b828201905092915050565b7f4e487b7100000000000000000000000000000000000000000000000000000000600052603260045260246000fd5b7f696e76616c6964206164647265737320646562746f72206f7220454e53206e6160008201527f6d65000000000000000000000000000000000000000000000000000000000000602082015250565b6000612a06602283611dba565b9150612a11826129aa565b604082019050919050565b60006020820190508181036000830152612a35816129f9565b9050919050565b6000612a4782611d0f565b91507fffffffffffffffffffffffffffffffffffffffffffffffffffffffffffffffff821415612a7a57612a796128f6565b5b600182019050919050565b600060ff82169050919050565b612a9b81612a85565b82525050565b600060a082019050612ab66000830188612a92565b612ac36020830187612a92565b8181036040830152612ad58186611e0f565b90508181036060830152612ae98185611e0f565b9050612af86080830184611d19565b9695505050505050565b7f496e76616c696420617373657420616464726573730000000000000000000000600082015250565b6000612b38601583611dba565b9150612b4382612b02565b602082019050919050565b60006020820190508181036000830152612b6781612b2b565b9050919050565b7f506f6f6c20666565206973206e6f7420656e6f75676800000000000000000000600082015250565b6000612ba4601683611dba565b9150612baf82612b6e565b602082019050919050565b60006020820190508181036000830152612bd381612b97565b9050919050565b7f416d6f756e742073656e74206973206e6f7420656e6f75676800000000000000600082015250565b6000612c10601983611dba565b9150612c1b82612bda565b602082019050919050565b60006020820190508181036000830152612c3f81612c03565b9050919050565b612c4f8161238e565b82525050565b600060c082019050612c6a6000830189611ebf565b612c776020830188611ebf565b612c846040830187611ebf565b612c916060830186611ebf565b612c9e6080830185612c46565b612cab60a0830184611d19565b979650505050505050565b600081519050612cc581611d43565b92915050565b600060208284031215612ce157612ce0611c7a565b5b6000612cef84828501612cb6565b91505092915050565b6000604082019050612d0d6000830185611ebf565b612d1a6020830184611d19565b9392505050565b7f5377617020636f6e747261637420616464726573732063616e6e6f742062652060008201527f3078300000000000000000000000000000000000000000000000000000000000602082015250565b6000612d7d602383611dba565b9150612d8882612d21565b604082019050919050565b60006020820190508181036000830152612dac81612d70565b9050919050565b7f44656274204e6f7420666f756e64000000000000000000000000000000000000600082015250565b6000612de9600e83611dba565b9150612df482612db3565b602082019050919050565b60006020820190508181036000830152612e1881612ddc565b9050919050565b7f4f776e61626c653a206e6577206f776e657220697320746865207a65726f206160008201527f6464726573730000000000000000000000000000000000000000000000000000602082015250565b6000612e7b602683611dba565b9150612e8682612e1f565b604082019050919050565b60006020820190508181036000830152612eaa81612e6e565b9050919050565b7f4f776e61626c653a2063616c6c6572206973206e6f7420746865206f776e6572600082015250565b6000612ee7602083611dba565b9150612ef282612eb1565b602082019050919050565b60006020820190508181036000830152612f1681612eda565b905091905056fea2646970667358221220e247fbe86124e86e4c117f357153dbc43f78758b8d853aba292e8af9de87751564736f6c63430008090033",
  "linkReferences": {},
  "deployedLinkReferences": {}
}