{
  "address": "0x5249CEC6672786e5daA407aC24C24A9373520ef9",
  "_format": "hh-sol-artifact-1",
  "contractName": "Split",
  "sourceName": "contracts/Split.sol",
  "abi": [
    {
      "anonymous": false,
      "inputs": [
        {
          "indexed": true,
          "internalType": "uint256",
          "name": "index",
          "type": "uint256"
        },
        {
          "indexed": true,
          "internalType": "address",
          "name": "recipient",
          "type": "address"
        },
        {
          "indexed": true,
          "internalType": "address",
          "name": "debtor",
          "type": "address"
        },
        {
          "indexed": false,
          "internalType": "uint256",
          "name": "amount",
          "type": "uint256"
        }
      ],
      "name": "DebtorPaid",
      "type": "event"
    },
    {
      "anonymous": false,
      "inputs": [
        {
          "indexed": true,
          "internalType": "uint256",
          "name": "index",
          "type": "uint256"
        },
        {
          "indexed": true,
          "internalType": "address",
          "name": "creator",
          "type": "address"
        },
        {
          "indexed": true,
          "internalType": "address",
          "name": "recipient",
          "type": "address"
        },
        {
          "indexed": false,
          "internalType": "uint256",
          "name": "amount",
          "type": "uint256"
        }
      ],
      "name": "ExpenseCancelled",
      "type": "event"
    },
    {
      "anonymous": false,
      "inputs": [
        {
          "indexed": true,
          "internalType": "uint256",
          "name": "index",
          "type": "uint256"
        },
        {
          "indexed": true,
          "internalType": "address",
          "name": "creator",
          "type": "address"
        },
        {
          "indexed": true,
          "internalType": "address",
          "name": "recipient",
          "type": "address"
        },
        {
          "indexed": false,
          "internalType": "uint256",
          "name": "amount",
          "type": "uint256"
        }
      ],
      "name": "ExpenseCreated",
      "type": "event"
    },
    {
      "anonymous": false,
      "inputs": [
        {
          "indexed": true,
          "internalType": "address",
          "name": "previousOwner",
          "type": "address"
        },
        {
          "indexed": true,
          "internalType": "address",
          "name": "newOwner",
          "type": "address"
        }
      ],
      "name": "OwnershipTransferred",
      "type": "event"
    },
    {
      "inputs": [
        {
          "internalType": "string",
          "name": "_name",
          "type": "string"
        },
        {
          "internalType": "string",
          "name": "_description",
          "type": "string"
        },
        {
          "internalType": "uint256",
          "name": "_amount",
          "type": "uint256"
        },
        {
          "internalType": "address",
          "name": "_tokenAddress",
          "type": "address"
        },
        {
          "internalType": "enum Split.ExpenseCategory",
          "name": "_category",
          "type": "uint8"
        },
        {
          "internalType": "uint256",
          "name": "_paymentDue",
          "type": "uint256"
        },
        {
          "components": [
            {
              "internalType": "address",
              "name": "_address",
              "type": "address"
            },
            {
              "internalType": "string",
              "name": "name",
              "type": "string"
            },
            {
              "internalType": "string",
              "name": "avatarURL",
              "type": "string"
            }
          ],
          "internalType": "struct Split.Participant",
          "name": "_recipient",
          "type": "tuple"
        },
        {
          "components": [
            {
              "internalType": "address",
              "name": "_address",
              "type": "address"
            },
            {
              "internalType": "string",
              "name": "name",
              "type": "string"
            },
            {
              "internalType": "string",
              "name": "avatarURL",
              "type": "string"
            }
          ],
          "internalType": "struct Split.Participant",
          "name": "_creator",
          "type": "tuple"
        },
        {
          "components": [
            {
              "internalType": "address",
              "name": "_address",
              "type": "address"
            },
            {
              "internalType": "string",
              "name": "name",
              "type": "string"
            },
            {
              "internalType": "string",
              "name": "avatarURL",
              "type": "string"
            },
            {
              "internalType": "uint256",
              "name": "amount",
              "type": "uint256"
            },
            {
              "internalType": "bool",
              "name": "hasPaid",
              "type": "bool"
            },
            {
              "internalType": "uint256",
              "name": "paidAt",
              "type": "uint256"
            }
          ],
          "internalType": "struct Split.Debtor[]",
          "name": "_debtors",
          "type": "tuple[]"
        }
      ],
      "name": "createExpense",
      "outputs": [],
      "stateMutability": "nonpayable",
      "type": "function"
    },
    {
      "inputs": [
        {
          "internalType": "address",
          "name": "_creatorAddress",
          "type": "address"
        },
        {
          "internalType": "uint256",
          "name": "index",
          "type": "uint256"
        }
      ],
      "name": "getCreatedExpense",
      "outputs": [
        {
          "internalType": "string",
          "name": "",
          "type": "string"
        },
        {
          "internalType": "string",
          "name": "",
          "type": "string"
        },
        {
          "internalType": "enum Split.ExpenseCategory",
          "name": "",
          "type": "uint8"
        },
        {
          "internalType": "uint256",
          "name": "",
          "type": "uint256"
        },
        {
          "internalType": "address",
          "name": "",
          "type": "address"
        },
        {
          "internalType": "enum Split.ExpenseStatus",
          "name": "",
          "type": "uint8"
        },
        {
          "internalType": "uint256",
          "name": "",
          "type": "uint256"
        },
        {
          "internalType": "uint256",
          "name": "",
          "type": "uint256"
        }
      ],
      "stateMutability": "view",
      "type": "function"
    },
    {
      "inputs": [
        {
          "internalType": "address",
          "name": "_creatorAddress",
          "type": "address"
        }
      ],
      "name": "getNumberOfCreatedExpenses",
      "outputs": [
        {
          "internalType": "uint256",
          "name": "",
          "type": "uint256"
        }
      ],
      "stateMutability": "view",
      "type": "function"
    },
    {
      "inputs": [
        {
          "internalType": "address",
          "name": "_debtorAddress",
          "type": "address"
        }
      ],
      "name": "getNumberOfOwedExpenses",
      "outputs": [
        {
          "internalType": "uint256",
          "name": "",
          "type": "uint256"
        }
      ],
      "stateMutability": "view",
      "type": "function"
    },
    {
      "inputs": [
        {
          "internalType": "address",
          "name": "_debtorAddress",
          "type": "address"
        },
        {
          "internalType": "uint256",
          "name": "index",
          "type": "uint256"
        }
      ],
      "name": "getOwedExpense",
      "outputs": [
        {
          "internalType": "string",
          "name": "",
          "type": "string"
        },
        {
          "internalType": "string",
          "name": "",
          "type": "string"
        },
        {
          "internalType": "enum Split.ExpenseCategory",
          "name": "",
          "type": "uint8"
        },
        {
          "internalType": "uint256",
          "name": "",
          "type": "uint256"
        },
        {
          "internalType": "bool",
          "name": "",
          "type": "bool"
        },
        {
          "internalType": "uint256",
          "name": "",
          "type": "uint256"
        },
        {
          "internalType": "enum Split.ExpenseStatus",
          "name": "",
          "type": "uint8"
        },
        {
          "internalType": "uint256",
          "name": "",
          "type": "uint256"
        },
        {
          "internalType": "uint256",
          "name": "",
          "type": "uint256"
        }
      ],
      "stateMutability": "view",
      "type": "function"
    },
    {
      "inputs": [],
      "name": "owner",
      "outputs": [
        {
          "internalType": "address",
          "name": "",
          "type": "address"
        }
      ],
      "stateMutability": "view",
      "type": "function"
    },
    {
      "inputs": [
        {
          "internalType": "bool",
          "name": "status",
          "type": "bool"
        }
      ],
      "name": "pauseContract",
      "outputs": [],
      "stateMutability": "nonpayable",
      "type": "function"
    },
    {
      "inputs": [],
      "name": "renounceOwnership",
      "outputs": [],
      "stateMutability": "nonpayable",
      "type": "function"
    },
    {
      "inputs": [
        {
          "internalType": "address",
          "name": "newOwner",
          "type": "address"
        }
      ],
      "name": "transferOwnership",
      "outputs": [],
      "stateMutability": "nonpayable",
      "type": "function"
    }
  ],
  "bytecode": "0x608060405260008060146101000a81548160ff0219169083151502179055503480156200002b57600080fd5b506200004c620000406200005260201b60201c565b6200005a60201b60201c565b6200011e565b600033905090565b60008060009054906101000a900473ffffffffffffffffffffffffffffffffffffffff169050816000806101000a81548173ffffffffffffffffffffffffffffffffffffffff021916908373ffffffffffffffffffffffffffffffffffffffff1602179055508173ffffffffffffffffffffffffffffffffffffffff168173ffffffffffffffffffffffffffffffffffffffff167f8be0079c531659141344cd1fd0a4f28419497f9722a3daafe3b4186f6b6457e060405160405180910390a35050565b61261e806200012e6000396000f3fe608060405234801561001057600080fd5b50600436106100935760003560e01c8063715018a611610066578063715018a61461014b5780638da5cb5b14610155578063e272b89214610173578063e9b28f1a1461018f578063f2fde38b146101c757610093565b80631164927b14610098578063150bb3f5146100c85780634c5eee1f146100e457806370b4d9db1461011b575b600080fd5b6100b260048036038101906100ad9190611728565b6101e3565b6040516100bf919061176e565b60405180910390f35b6100e260048036038101906100dd9190611bbc565b6102eb565b005b6100fe60048036038101906100f99190611d12565b610b3a565b604051610112989796959493929190611ea8565b60405180910390f35b61013560048036038101906101309190611728565b610d99565b604051610142919061176e565b60405180910390f35b610153610ea1565b005b61015d610eb5565b60405161016a9190611f34565b60405180910390f35b61018d60048036038101906101889190611f4f565b610ede565b005b6101a960048036038101906101a49190611d12565b610f03565b6040516101be99989796959493929190611f8b565b60405180910390f35b6101e160048036038101906101dc9190611728565b6113d3565b005b60008060149054906101000a900460ff1615610234576040517f08c379a000000000000000000000000000000000000000000000000000000000815260040161022b90612072565b60405180910390fd5b600073ffffffffffffffffffffffffffffffffffffffff168273ffffffffffffffffffffffffffffffffffffffff1614156102a4576040517f08c379a000000000000000000000000000000000000000000000000000000000815260040161029b906120de565b60405180910390fd5b600460008373ffffffffffffffffffffffffffffffffffffffff1673ffffffffffffffffffffffffffffffffffffffff168152602001908152602001600020549050919050565b600060149054906101000a900460ff161561033b576040517f08c379a000000000000000000000000000000000000000000000000000000000815260040161033290612072565b60405180910390fd5b600089511161037f576040517f08c379a00000000000000000000000000000000000000000000000000000000081526004016103769061214a565b60405180910390fd5b600087116103c2576040517f08c379a00000000000000000000000000000000000000000000000000000000081526004016103b9906121b6565b60405180910390fd5b600073ffffffffffffffffffffffffffffffffffffffff168673ffffffffffffffffffffffffffffffffffffffff161415610432576040517f08c379a000000000000000000000000000000000000000000000000000000000815260040161042990612248565b60405180910390fd5b600073ffffffffffffffffffffffffffffffffffffffff16836000015173ffffffffffffffffffffffffffffffffffffffff1614156104a6576040517f08c379a000000000000000000000000000000000000000000000000000000000815260040161049d906122da565b60405180910390fd5b60006104b26007611457565b905060006006600083815260200190815260200160002090508a8160000190805190602001906104e39291906115c5565b50898160010190805190602001906104fc9291906115c5565b50888160030181905550878160020160016101000a81548173ffffffffffffffffffffffffffffffffffffffff021916908373ffffffffffffffffffffffffffffffffffffffff1602179055508481600a0160008201518160000160006101000a81548173ffffffffffffffffffffffffffffffffffffffff021916908373ffffffffffffffffffffffffffffffffffffffff16021790555060208201518160010190805190602001906105b19291906115c5565b5060408201518160020190805190602001906105ce9291906115c5565b50905050838160070160008201518160000160006101000a81548173ffffffffffffffffffffffffffffffffffffffff021916908373ffffffffffffffffffffffffffffffffffffffff160217905550602082015181600101908051906020019061063a9291906115c5565b5060408201518160020190805190602001906106579291906115c5565b50905050428160050181905550868160020160006101000a81548160ff0219169083600381111561068b5761068a611dda565b5b021790555060008160060160006101000a81548160ff021916908360028111156106b8576106b7611dda565b5b02179055508581600401819055506000846000015190506000600460008373ffffffffffffffffffffffffffffffffffffffff1673ffffffffffffffffffffffffffffffffffffffff1681526020019081526020016000205490506001600460008473ffffffffffffffffffffffffffffffffffffffff1673ffffffffffffffffffffffffffffffffffffffff16815260200190815260200160002060008282546107639190612329565b9250508190555083600160008473ffffffffffffffffffffffffffffffffffffffff1673ffffffffffffffffffffffffffffffffffffffff16815260200190815260200160002060008381526020019081526020016000208190555060005b8551811015610ab25760008682815181106107e0576107df61237f565b5b602002602001015160000151905060008783815181106108035761080261237f565b5b60200260200101516080019015159081151581525050600087838151811061082e5761082d61237f565b5b602002602001015160a0018181525050600073ffffffffffffffffffffffffffffffffffffffff168173ffffffffffffffffffffffffffffffffffffffff1614156108ae576040517f08c379a00000000000000000000000000000000000000000000000000000000081526004016108a590612420565b60405180910390fd5b6000600560008373ffffffffffffffffffffffffffffffffffffffff1673ffffffffffffffffffffffffffffffffffffffff1681526020019081526020016000205490506001600560008473ffffffffffffffffffffffffffffffffffffffff1673ffffffffffffffffffffffffffffffffffffffff16815260200190815260200160002060008282546109429190612329565b9250508190555086600260008473ffffffffffffffffffffffffffffffffffffffff1673ffffffffffffffffffffffffffffffffffffffff16815260200190815260200160002060008381526020019081526020016000208190555085600d018884815181106109b5576109b461237f565b5b6020026020010151908060018154018082558091505060019003906000526020600020906006020160009091909190915060008201518160000160006101000a81548173ffffffffffffffffffffffffffffffffffffffff021916908373ffffffffffffffffffffffffffffffffffffffff1602179055506020820151816001019080519060200190610a499291906115c5565b506040820151816002019080519060200190610a669291906115c5565b506060820151816003015560808201518160040160006101000a81548160ff02191690831515021790555060a08201518160050155505050508080610aaa90612440565b9150506107c2565b50610abd6007611465565b866000015173ffffffffffffffffffffffffffffffffffffffff16866000015173ffffffffffffffffffffffffffffffffffffffff16857f95e8fd4584a871f729251ea2ce1f8850cfd5f23b6802fe44f7dd81ceb1e4ddc18e604051610b23919061176e565b60405180910390a450505050505050505050505050565b606080600080600080600080600060149054906101000a900460ff1615610b96576040517f08c379a0000000000000000000000000000000000000000000000000000000008152600401610b8d90612072565b60405180910390fd5b6000600160008c73ffffffffffffffffffffffffffffffffffffffff1673ffffffffffffffffffffffffffffffffffffffff16815260200190815260200160002060008b8152602001908152602001600020549050600060066000838152602001908152602001600020905080600001816001018260020160009054906101000a900460ff1683600301548460020160019054906101000a900473ffffffffffffffffffffffffffffffffffffffff168560060160009054906101000a900460ff1686600401548760050154878054610c6e906124b8565b80601f0160208091040260200160405190810160405280929190818152602001828054610c9a906124b8565b8015610ce75780601f10610cbc57610100808354040283529160200191610ce7565b820191906000526020600020905b815481529060010190602001808311610cca57829003601f168201915b50505050509750868054610cfa906124b8565b80601f0160208091040260200160405190810160405280929190818152602001828054610d26906124b8565b8015610d735780601f10610d4857610100808354040283529160200191610d73565b820191906000526020600020905b815481529060010190602001808311610d5657829003601f168201915b505050505096509950995099509950995099509950995050509295985092959890939650565b60008060149054906101000a900460ff1615610dea576040517f08c379a0000000000000000000000000000000000000000000000000000000008152600401610de190612072565b60405180910390fd5b600073ffffffffffffffffffffffffffffffffffffffff168273ffffffffffffffffffffffffffffffffffffffff161415610e5a576040517f08c379a0000000000000000000000000000000000000000000000000000000008152600401610e51906120de565b60405180910390fd5b600560008373ffffffffffffffffffffffffffffffffffffffff1673ffffffffffffffffffffffffffffffffffffffff168152602001908152602001600020549050919050565b610ea961147b565b610eb360006114f9565b565b60008060009054906101000a900473ffffffffffffffffffffffffffffffffffffffff16905090565b610ee661147b565b80600060146101000a81548160ff02191690831515021790555050565b60608060008060008060008060008060149054906101000a900460ff1615610f60576040517f08c379a0000000000000000000000000000000000000000000000000000000008152600401610f5790612072565b60405180910390fd5b6000600260008d73ffffffffffffffffffffffffffffffffffffffff1673ffffffffffffffffffffffffffffffffffffffff16815260200190815260200160002060008c81526020019081526020016000205490506000600660008381526020019081526020016000209050610fd461164b565b60005b82600d0180549050811015611253578e73ffffffffffffffffffffffffffffffffffffffff1683600d0182815481106110135761101261237f565b5b906000526020600020906006020160000160009054906101000a900473ffffffffffffffffffffffffffffffffffffffff1673ffffffffffffffffffffffffffffffffffffffff1614156112405782600d0181815481106110775761107661237f565b5b90600052602060002090600602016040518060c00160405290816000820160009054906101000a900473ffffffffffffffffffffffffffffffffffffffff1673ffffffffffffffffffffffffffffffffffffffff1673ffffffffffffffffffffffffffffffffffffffff1681526020016001820180546110f6906124b8565b80601f0160208091040260200160405190810160405280929190818152602001828054611122906124b8565b801561116f5780601f106111445761010080835404028352916020019161116f565b820191906000526020600020905b81548152906001019060200180831161115257829003601f168201915b50505050508152602001600282018054611188906124b8565b80601f01602080910402602001604051908101604052809291908181526020018280546111b4906124b8565b80156112015780601f106111d657610100808354040283529160200191611201565b820191906000526020600020905b8154815290600101906020018083116111e457829003601f168201915b50505050508152602001600382015481526020016004820160009054906101000a900460ff161515151581526020016005820154815250509150611253565b808061124b90612440565b915050610fd7565b5081600001826001018360020160009054906101000a900460ff16836060015184608001518560a001518760060160009054906101000a900460ff16886004015489600501548880546112a5906124b8565b80601f01602080910402602001604051908101604052809291908181526020018280546112d1906124b8565b801561131e5780601f106112f35761010080835404028352916020019161131e565b820191906000526020600020905b81548152906001019060200180831161130157829003601f168201915b50505050509850878054611331906124b8565b80601f016020809104026020016040519081016040528092919081815260200182805461135d906124b8565b80156113aa5780601f1061137f576101008083540402835291602001916113aa565b820191906000526020600020905b81548152906001019060200180831161138d57829003601f168201915b505050505097509b509b509b509b509b509b509b509b509b505050509295985092959850929598565b6113db61147b565b600073ffffffffffffffffffffffffffffffffffffffff168173ffffffffffffffffffffffffffffffffffffffff16141561144b576040517f08c379a00000000000000000000000000000000000000000000000000000000081526004016114429061255c565b60405180910390fd5b611454816114f9565b50565b600081600001549050919050565b6001816000016000828254019250508190555050565b6114836115bd565b73ffffffffffffffffffffffffffffffffffffffff166114a1610eb5565b73ffffffffffffffffffffffffffffffffffffffff16146114f7576040517f08c379a00000000000000000000000000000000000000000000000000000000081526004016114ee906125c8565b60405180910390fd5b565b60008060009054906101000a900473ffffffffffffffffffffffffffffffffffffffff169050816000806101000a81548173ffffffffffffffffffffffffffffffffffffffff021916908373ffffffffffffffffffffffffffffffffffffffff1602179055508173ffffffffffffffffffffffffffffffffffffffff168173ffffffffffffffffffffffffffffffffffffffff167f8be0079c531659141344cd1fd0a4f28419497f9722a3daafe3b4186f6b6457e060405160405180910390a35050565b600033905090565b8280546115d1906124b8565b90600052602060002090601f0160209004810192826115f3576000855561163a565b82601f1061160c57805160ff191683800117855561163a565b8280016001018555821561163a579182015b8281111561163957825182559160200191906001019061161e565b5b5090506116479190611699565b5090565b6040518060c00160405280600073ffffffffffffffffffffffffffffffffffffffff168152602001606081526020016060815260200160008152602001600015158152602001600081525090565b5b808211156116b257600081600090555060010161169a565b5090565b6000604051905090565b600080fd5b600080fd5b600073ffffffffffffffffffffffffffffffffffffffff82169050919050565b60006116f5826116ca565b9050919050565b611705816116ea565b811461171057600080fd5b50565b600081359050611722816116fc565b92915050565b60006020828403121561173e5761173d6116c0565b5b600061174c84828501611713565b91505092915050565b6000819050919050565b61176881611755565b82525050565b6000602082019050611783600083018461175f565b92915050565b600080fd5b600080fd5b6000601f19601f8301169050919050565b7f4e487b7100000000000000000000000000000000000000000000000000000000600052604160045260246000fd5b6117dc82611793565b810181811067ffffffffffffffff821117156117fb576117fa6117a4565b5b80604052505050565b600061180e6116b6565b905061181a82826117d3565b919050565b600067ffffffffffffffff82111561183a576118396117a4565b5b61184382611793565b9050602081019050919050565b82818337600083830152505050565b600061187261186d8461181f565b611804565b90508281526020810184848401111561188e5761188d61178e565b5b611899848285611850565b509392505050565b600082601f8301126118b6576118b5611789565b5b81356118c684826020860161185f565b91505092915050565b6118d881611755565b81146118e357600080fd5b50565b6000813590506118f5816118cf565b92915050565b6004811061190857600080fd5b50565b60008135905061191a816118fb565b92915050565b600080fd5b600080fd5b6000606082840312156119405761193f611920565b5b61194a6060611804565b9050600061195a84828501611713565b600083015250602082013567ffffffffffffffff81111561197e5761197d611925565b5b61198a848285016118a1565b602083015250604082013567ffffffffffffffff8111156119ae576119ad611925565b5b6119ba848285016118a1565b60408301525092915050565b600067ffffffffffffffff8211156119e1576119e06117a4565b5b602082029050602081019050919050565b600080fd5b60008115159050919050565b611a0c816119f7565b8114611a1757600080fd5b50565b600081359050611a2981611a03565b92915050565b600060c08284031215611a4557611a44611920565b5b611a4f60c0611804565b90506000611a5f84828501611713565b600083015250602082013567ffffffffffffffff811115611a8357611a82611925565b5b611a8f848285016118a1565b602083015250604082013567ffffffffffffffff811115611ab357611ab2611925565b5b611abf848285016118a1565b6040830152506060611ad3848285016118e6565b6060830152506080611ae784828501611a1a565b60808301525060a0611afb848285016118e6565b60a08301525092915050565b6000611b1a611b15846119c6565b611804565b90508083825260208201905060208402830185811115611b3d57611b3c6119f2565b5b835b81811015611b8457803567ffffffffffffffff811115611b6257611b61611789565b5b808601611b6f8982611a2f565b85526020850194505050602081019050611b3f565b5050509392505050565b600082601f830112611ba357611ba2611789565b5b8135611bb3848260208601611b07565b91505092915050565b60008060008060008060008060006101208a8c031215611bdf57611bde6116c0565b5b60008a013567ffffffffffffffff811115611bfd57611bfc6116c5565b5b611c098c828d016118a1565b99505060208a013567ffffffffffffffff811115611c2a57611c296116c5565b5b611c368c828d016118a1565b9850506040611c478c828d016118e6565b9750506060611c588c828d01611713565b9650506080611c698c828d0161190b565b95505060a0611c7a8c828d016118e6565b94505060c08a013567ffffffffffffffff811115611c9b57611c9a6116c5565b5b611ca78c828d0161192a565b93505060e08a013567ffffffffffffffff811115611cc857611cc76116c5565b5b611cd48c828d0161192a565b9250506101008a013567ffffffffffffffff811115611cf657611cf56116c5565b5b611d028c828d01611b8e565b9150509295985092959850929598565b60008060408385031215611d2957611d286116c0565b5b6000611d3785828601611713565b9250506020611d48858286016118e6565b9150509250929050565b600081519050919050565b600082825260208201905092915050565b60005b83811015611d8c578082015181840152602081019050611d71565b83811115611d9b576000848401525b50505050565b6000611dac82611d52565b611db68185611d5d565b9350611dc6818560208601611d6e565b611dcf81611793565b840191505092915050565b7f4e487b7100000000000000000000000000000000000000000000000000000000600052602160045260246000fd5b60048110611e1a57611e19611dda565b5b50565b6000819050611e2b82611e09565b919050565b6000611e3b82611e1d565b9050919050565b611e4b81611e30565b82525050565b611e5a816116ea565b82525050565b60038110611e7157611e70611dda565b5b50565b6000819050611e8282611e60565b919050565b6000611e9282611e74565b9050919050565b611ea281611e87565b82525050565b6000610100820190508181036000830152611ec3818b611da1565b90508181036020830152611ed7818a611da1565b9050611ee66040830189611e42565b611ef3606083018861175f565b611f006080830187611e51565b611f0d60a0830186611e99565b611f1a60c083018561175f565b611f2760e083018461175f565b9998505050505050505050565b6000602082019050611f496000830184611e51565b92915050565b600060208284031215611f6557611f646116c0565b5b6000611f7384828501611a1a565b91505092915050565b611f85816119f7565b82525050565b6000610120820190508181036000830152611fa6818c611da1565b90508181036020830152611fba818b611da1565b9050611fc9604083018a611e42565b611fd6606083018961175f565b611fe36080830188611f7c565b611ff060a083018761175f565b611ffd60c0830186611e99565b61200a60e083018561175f565b61201861010083018461175f565b9a9950505050505050505050565b7f436f6e7472616374206973207061757365640000000000000000000000000000600082015250565b600061205c601283611d5d565b915061206782612026565b602082019050919050565b6000602082019050818103600083015261208b8161204f565b9050919050565b7f496e76616c696420616464726573730000000000000000000000000000000000600082015250565b60006120c8600f83611d5d565b91506120d382612092565b602082019050919050565b600060208201905081810360008301526120f7816120bb565b9050919050565b7f457870656e7365206e616d652069732072657175697265640000000000000000600082015250565b6000612134601883611d5d565b915061213f826120fe565b602082019050919050565b6000602082019050818103600083015261216381612127565b9050919050565b7f616d6f756e74206d7573742062652067726561746572207468616e2030000000600082015250565b60006121a0601d83611d5d565b91506121ab8261216a565b602082019050919050565b600060208201905081810360008301526121cf81612193565b9050919050565b7f496e76616c696420746f6b656e2061646472657373206f7220454e53206e616d60008201527f6573000000000000000000000000000000000000000000000000000000000000602082015250565b6000612232602283611d5d565b915061223d826121d6565b604082019050919050565b6000602082019050818103600083015261226181612225565b9050919050565b7f496e76616c69642020726563697069656e742061646472657373206f7220454e60008201527f53206e616d657300000000000000000000000000000000000000000000000000602082015250565b60006122c4602783611d5d565b91506122cf82612268565b604082019050919050565b600060208201905081810360008301526122f3816122b7565b9050919050565b7f4e487b7100000000000000000000000000000000000000000000000000000000600052601160045260246000fd5b600061233482611755565b915061233f83611755565b9250827fffffffffffffffffffffffffffffffffffffffffffffffffffffffffffffffff03821115612374576123736122fa565b5b828201905092915050565b7f4e487b7100000000000000000000000000000000000000000000000000000000600052603260045260246000fd5b7f696e76616c6964206164647265737320646562746f72206f7220454e53206e6160008201527f6d65000000000000000000000000000000000000000000000000000000000000602082015250565b600061240a602283611d5d565b9150612415826123ae565b604082019050919050565b60006020820190508181036000830152612439816123fd565b9050919050565b600061244b82611755565b91507fffffffffffffffffffffffffffffffffffffffffffffffffffffffffffffffff82141561247e5761247d6122fa565b5b600182019050919050565b7f4e487b7100000000000000000000000000000000000000000000000000000000600052602260045260246000fd5b600060028204905060018216806124d057607f821691505b602082108114156124e4576124e3612489565b5b50919050565b7f4f776e61626c653a206e6577206f776e657220697320746865207a65726f206160008201527f6464726573730000000000000000000000000000000000000000000000000000602082015250565b6000612546602683611d5d565b9150612551826124ea565b604082019050919050565b6000602082019050818103600083015261257581612539565b9050919050565b7f4f776e61626c653a2063616c6c6572206973206e6f7420746865206f776e6572600082015250565b60006125b2602083611d5d565b91506125bd8261257c565b602082019050919050565b600060208201905081810360008301526125e1816125a5565b905091905056fea26469706673582212204ce8c6f80028b20eaef4d4670535307a44363fe1ebbeb36994cecf3a30f116fd64736f6c63430008090033",
  "linkReferences": {},
  "deployedLinkReferences": {}
}