{
  "address": "0xC10DFcc06b37660446cB99a7A2800469F8D58fE5",
  "_format": "hh-sol-artifact-1",
  "contractName": "Split",
  "sourceName": "contracts/Split.sol",
  "abi": [
    {
      "anonymous": false,
      "inputs": [
        {
          "indexed": true,
          "internalType": "uint256",
          "name": "index",
          "type": "uint256"
        },
        {
          "indexed": true,
          "internalType": "address",
          "name": "recipient",
          "type": "address"
        },
        {
          "indexed": true,
          "internalType": "address",
          "name": "debtor",
          "type": "address"
        },
        {
          "indexed": false,
          "internalType": "uint256",
          "name": "amountPaid",
          "type": "uint256"
        }
      ],
      "name": "DebtorPaid",
      "type": "event"
    },
    {
      "anonymous": false,
      "inputs": [
        {
          "indexed": true,
          "internalType": "uint256",
          "name": "index",
          "type": "uint256"
        },
        {
          "indexed": true,
          "internalType": "address",
          "name": "creator",
          "type": "address"
        },
        {
          "indexed": true,
          "internalType": "address",
          "name": "recipient",
          "type": "address"
        }
      ],
      "name": "ExpenseCancelled",
      "type": "event"
    },
    {
      "anonymous": false,
      "inputs": [
        {
          "indexed": true,
          "internalType": "uint256",
          "name": "index",
          "type": "uint256"
        },
        {
          "indexed": false,
          "internalType": "uint8",
          "name": "category",
          "type": "uint8"
        },
        {
          "indexed": false,
          "internalType": "uint8",
          "name": "status",
          "type": "uint8"
        },
        {
          "indexed": true,
          "internalType": "address",
          "name": "creator",
          "type": "address"
        },
        {
          "indexed": false,
          "internalType": "string",
          "name": "name",
          "type": "string"
        },
        {
          "indexed": false,
          "internalType": "string",
          "name": "description",
          "type": "string"
        },
        {
          "indexed": false,
          "internalType": "uint256",
          "name": "amount",
          "type": "uint256"
        }
      ],
      "name": "ExpenseCreated",
      "type": "event"
    },
    {
      "anonymous": false,
      "inputs": [
        {
          "indexed": true,
          "internalType": "address",
          "name": "previousOwner",
          "type": "address"
        },
        {
          "indexed": true,
          "internalType": "address",
          "name": "newOwner",
          "type": "address"
        }
      ],
      "name": "OwnershipTransferred",
      "type": "event"
    },
    {
      "anonymous": false,
      "inputs": [
        {
          "indexed": true,
          "internalType": "uint256",
          "name": "index",
          "type": "uint256"
        },
        {
          "indexed": true,
          "internalType": "address",
          "name": "recipient",
          "type": "address"
        }
      ],
      "name": "RecipientPaid",
      "type": "event"
    },
    {
      "inputs": [],
      "name": "_lpTokenContractAddress",
      "outputs": [
        {
          "internalType": "address",
          "name": "",
          "type": "address"
        }
      ],
      "stateMutability": "view",
      "type": "function"
    },
    {
      "inputs": [],
      "name": "_swapContractAddress",
      "outputs": [
        {
          "internalType": "address",
          "name": "",
          "type": "address"
        }
      ],
      "stateMutability": "view",
      "type": "function"
    },
    {
      "inputs": [
        {
          "internalType": "string",
          "name": "_name",
          "type": "string"
        },
        {
          "internalType": "string",
          "name": "_description",
          "type": "string"
        },
        {
          "internalType": "uint256",
          "name": "_amount",
          "type": "uint256"
        },
        {
          "internalType": "address",
          "name": "_tokenAddress",
          "type": "address"
        },
        {
          "internalType": "enum Split.ExpenseCategory",
          "name": "_category",
          "type": "uint8"
        },
        {
          "internalType": "uint256",
          "name": "_paymentDue",
          "type": "uint256"
        },
        {
          "components": [
            {
              "internalType": "address",
              "name": "_address",
              "type": "address"
            }
          ],
          "internalType": "struct Split.Participant",
          "name": "_recipient",
          "type": "tuple"
        },
        {
          "components": [
            {
              "internalType": "address",
              "name": "_address",
              "type": "address"
            }
          ],
          "internalType": "struct Split.Participant",
          "name": "_creator",
          "type": "tuple"
        },
        {
          "components": [
            {
              "internalType": "address",
              "name": "_address",
              "type": "address"
            },
            {
              "internalType": "uint256",
              "name": "amount",
              "type": "uint256"
            }
          ],
          "internalType": "struct Split.DebtParticipant[]",
          "name": "_debtors",
          "type": "tuple[]"
        }
      ],
      "name": "createExpense",
      "outputs": [],
      "stateMutability": "nonpayable",
      "type": "function"
    },
    {
      "inputs": [
        {
          "internalType": "address",
          "name": "_creatorAddress",
          "type": "address"
        },
        {
          "internalType": "uint256",
          "name": "index",
          "type": "uint256"
        }
      ],
      "name": "getCreatedExpense",
      "outputs": [
        {
          "internalType": "string",
          "name": "",
          "type": "string"
        },
        {
          "internalType": "string",
          "name": "",
          "type": "string"
        },
        {
          "internalType": "enum Split.ExpenseCategory",
          "name": "",
          "type": "uint8"
        },
        {
          "internalType": "uint256",
          "name": "",
          "type": "uint256"
        },
        {
          "internalType": "address",
          "name": "",
          "type": "address"
        },
        {
          "internalType": "enum Split.ExpenseStatus",
          "name": "",
          "type": "uint8"
        },
        {
          "internalType": "uint256",
          "name": "",
          "type": "uint256"
        },
        {
          "internalType": "uint256",
          "name": "",
          "type": "uint256"
        }
      ],
      "stateMutability": "view",
      "type": "function"
    },
    {
      "inputs": [
        {
          "internalType": "uint256",
          "name": "expenseId",
          "type": "uint256"
        },
        {
          "internalType": "address",
          "name": "_debtorAddress",
          "type": "address"
        }
      ],
      "name": "getDebt",
      "outputs": [
        {
          "internalType": "uint256",
          "name": "",
          "type": "uint256"
        }
      ],
      "stateMutability": "view",
      "type": "function"
    },
    {
      "inputs": [
        {
          "internalType": "address",
          "name": "_creatorAddress",
          "type": "address"
        }
      ],
      "name": "getNumberOfCreatedExpenses",
      "outputs": [
        {
          "internalType": "uint256",
          "name": "",
          "type": "uint256"
        }
      ],
      "stateMutability": "view",
      "type": "function"
    },
    {
      "inputs": [
        {
          "internalType": "address",
          "name": "_debtorAddress",
          "type": "address"
        }
      ],
      "name": "getNumberOfOwedExpenses",
      "outputs": [
        {
          "internalType": "uint256",
          "name": "",
          "type": "uint256"
        }
      ],
      "stateMutability": "view",
      "type": "function"
    },
    {
      "inputs": [
        {
          "internalType": "address",
          "name": "_debtorAddress",
          "type": "address"
        },
        {
          "internalType": "uint256",
          "name": "index",
          "type": "uint256"
        }
      ],
      "name": "getOwedExpense",
      "outputs": [
        {
          "internalType": "string",
          "name": "",
          "type": "string"
        },
        {
          "internalType": "string",
          "name": "",
          "type": "string"
        },
        {
          "internalType": "enum Split.ExpenseCategory",
          "name": "",
          "type": "uint8"
        },
        {
          "internalType": "uint256",
          "name": "",
          "type": "uint256"
        },
        {
          "internalType": "bool",
          "name": "",
          "type": "bool"
        },
        {
          "internalType": "uint256",
          "name": "",
          "type": "uint256"
        },
        {
          "internalType": "enum Split.ExpenseStatus",
          "name": "",
          "type": "uint8"
        },
        {
          "internalType": "uint256",
          "name": "",
          "type": "uint256"
        },
        {
          "internalType": "uint256",
          "name": "",
          "type": "uint256"
        }
      ],
      "stateMutability": "view",
      "type": "function"
    },
    {
      "inputs": [],
      "name": "owner",
      "outputs": [
        {
          "internalType": "address",
          "name": "",
          "type": "address"
        }
      ],
      "stateMutability": "view",
      "type": "function"
    },
    {
      "inputs": [
        {
          "internalType": "bool",
          "name": "status",
          "type": "bool"
        }
      ],
      "name": "pauseContract",
      "outputs": [],
      "stateMutability": "nonpayable",
      "type": "function"
    },
    {
      "inputs": [
        {
          "internalType": "address",
          "name": "fromAsset",
          "type": "address"
        },
        {
          "internalType": "uint24",
          "name": "poolFee",
          "type": "uint24"
        },
        {
          "internalType": "uint256",
          "name": "amountIn",
          "type": "uint256"
        },
        {
          "internalType": "uint256",
          "name": "index",
          "type": "uint256"
        }
      ],
      "name": "payDebt",
      "outputs": [],
      "stateMutability": "nonpayable",
      "type": "function"
    },
    {
      "inputs": [],
      "name": "renounceOwnership",
      "outputs": [],
      "stateMutability": "nonpayable",
      "type": "function"
    },
    {
      "inputs": [
        {
          "internalType": "address",
          "name": "_address",
          "type": "address"
        }
      ],
      "name": "setSwapContractAddress",
      "outputs": [],
      "stateMutability": "nonpayable",
      "type": "function"
    },
    {
      "inputs": [
        {
          "internalType": "address",
          "name": "newOwner",
          "type": "address"
        }
      ],
      "name": "transferOwnership",
      "outputs": [],
      "stateMutability": "nonpayable",
      "type": "function"
    }
  ],
  "bytecode": "0x608060405260008060146101000a81548160ff0219169083151502179055503480156200002b57600080fd5b506200004c620000406200005260201b60201c565b6200005a60201b60201c565b6200011e565b600033905090565b60008060009054906101000a900473ffffffffffffffffffffffffffffffffffffffff169050816000806101000a81548173ffffffffffffffffffffffffffffffffffffffff021916908373ffffffffffffffffffffffffffffffffffffffff1602179055508173ffffffffffffffffffffffffffffffffffffffff168173ffffffffffffffffffffffffffffffffffffffff167f8be0079c531659141344cd1fd0a4f28419497f9722a3daafe3b4186f6b6457e060405160405180910390a35050565b612fae806200012e6000396000f3fe608060405234801561001057600080fd5b50600436106100ea5760003560e01c80638da5cb5b1161008c578063e353967411610066578063e35396741461023c578063e5ffd1a81461026c578063e9b28f1a1461028a578063f2fde38b146102c2576100ea565b80638da5cb5b146101e4578063c890b60e14610202578063e272b89214610220576100ea565b80636f0c5179116100c85780636f0c5179146101725780636faaf2231461018e57806370b4d9db146101aa578063715018a6146101da576100ea565b80631164927b146100ef5780634c5eee1f1461011f578063539a6b2c14610156575b600080fd5b61010960048036038101906101049190611d3d565b6102de565b6040516101169190611d83565b60405180910390f35b61013960048036038101906101349190611dca565b6103e6565b60405161014d989796959493929190611f71565b60405180910390f35b610170600480360381019061016b91906122b0565b610645565b005b61018c60048036038101906101879190612409565b610e87565b005b6101a860048036038101906101a39190611d3d565b6113d7565b005b6101c460048036038101906101bf9190611d3d565b611493565b6040516101d19190611d83565b60405180910390f35b6101e261159b565b005b6101ec6115af565b6040516101f99190612470565b60405180910390f35b61020a6115d8565b6040516102179190612470565b60405180910390f35b61023a600480360381019061023591906124c3565b6115fe565b005b610256600480360381019061025191906124f0565b611623565b6040516102639190611d83565b60405180910390f35b6102746116f2565b6040516102819190612470565b60405180910390f35b6102a4600480360381019061029f9190611dca565b611718565b6040516102b99998979695949392919061253f565b60405180910390f35b6102dc60048036038101906102d79190611d3d565b611a36565b005b60008060149054906101000a900460ff161561032f576040517f08c379a000000000000000000000000000000000000000000000000000000000815260040161032690612626565b60405180910390fd5b600073ffffffffffffffffffffffffffffffffffffffff168273ffffffffffffffffffffffffffffffffffffffff16141561039f576040517f08c379a000000000000000000000000000000000000000000000000000000000815260040161039690612692565b60405180910390fd5b600660008373ffffffffffffffffffffffffffffffffffffffff1673ffffffffffffffffffffffffffffffffffffffff168152602001908152602001600020549050919050565b606080600080600080600080600060149054906101000a900460ff1615610442576040517f08c379a000000000000000000000000000000000000000000000000000000000815260040161043990612626565b60405180910390fd5b6000600360008c73ffffffffffffffffffffffffffffffffffffffff1673ffffffffffffffffffffffffffffffffffffffff16815260200190815260200160002060008b8152602001908152602001600020549050600060086000838152602001908152602001600020905080600001816001018260020160009054906101000a900460ff1683600301548460020160019054906101000a900473ffffffffffffffffffffffffffffffffffffffff168560070160009054906101000a900460ff168660050154876006015487805461051a906126e1565b80601f0160208091040260200160405190810160405280929190818152602001828054610546906126e1565b80156105935780601f1061056857610100808354040283529160200191610593565b820191906000526020600020905b81548152906001019060200180831161057657829003601f168201915b505050505097508680546105a6906126e1565b80601f01602080910402602001604051908101604052809291908181526020018280546105d2906126e1565b801561061f5780601f106105f45761010080835404028352916020019161061f565b820191906000526020600020905b81548152906001019060200180831161060257829003601f168201915b505050505096509950995099509950995099509950995050509295985092959890939650565b600060149054906101000a900460ff1615610695576040517f08c379a000000000000000000000000000000000000000000000000000000000815260040161068c90612626565b60405180910390fd5b60008951116106d9576040517f08c379a00000000000000000000000000000000000000000000000000000000081526004016106d09061275f565b60405180910390fd5b6000871161071c576040517f08c379a0000000000000000000000000000000000000000000000000000000008152600401610713906127cb565b60405180910390fd5b600160009054906101000a900473ffffffffffffffffffffffffffffffffffffffff1673ffffffffffffffffffffffffffffffffffffffff16637e723266876040518263ffffffff1660e01b81526004016107779190612470565b60206040518083038186803b15801561078f57600080fd5b505afa1580156107a3573d6000803e3d6000fd5b505050506040513d601f19601f820116820180604052508101906107c79190612800565b610806576040517f08c379a00000000000000000000000000000000000000000000000000000000081526004016107fd9061289f565b60405180910390fd5b600073ffffffffffffffffffffffffffffffffffffffff16836000015173ffffffffffffffffffffffffffffffffffffffff16141561087a576040517f08c379a000000000000000000000000000000000000000000000000000000000815260040161087190612931565b60405180910390fd5b60006108866009611aba565b905060006008600083815260200190815260200160002090508a8160000190805190602001906108b7929190611c28565b50898160010190805190602001906108d0929190611c28565b50888160030181905550878160020160016101000a81548173ffffffffffffffffffffffffffffffffffffffff021916908373ffffffffffffffffffffffffffffffffffffffff160217905550848160090160008201518160000160006101000a81548173ffffffffffffffffffffffffffffffffffffffff021916908373ffffffffffffffffffffffffffffffffffffffff160217905550905050838160080160008201518160000160006101000a81548173ffffffffffffffffffffffffffffffffffffffff021916908373ffffffffffffffffffffffffffffffffffffffff160217905550905050428160060181905550868160020160006101000a81548160ff021916908360038111156109eb576109ea611ea3565b5b021790555060008160070160006101000a81548160ff02191690836002811115610a1857610a17611ea3565b5b0217905550858160050181905550600081600401819055508160036000866000015173ffffffffffffffffffffffffffffffffffffffff1673ffffffffffffffffffffffffffffffffffffffff168152602001908152602001600020600060066000886000015173ffffffffffffffffffffffffffffffffffffffff1673ffffffffffffffffffffffffffffffffffffffff16815260200190815260200160002054815260200190815260200160002081905550600160066000866000015173ffffffffffffffffffffffffffffffffffffffff1673ffffffffffffffffffffffffffffffffffffffff1681526020019081526020016000206000828254610b209190612980565b9250508190555060005b8351811015610ddf576000848281518110610b4857610b476129d6565b5b6020026020010151600001519050600073ffffffffffffffffffffffffffffffffffffffff168173ffffffffffffffffffffffffffffffffffffffff161415610bc6576040517f08c379a0000000000000000000000000000000000000000000000000000000008152600401610bbd90612a77565b60405180910390fd5b6000600760008373ffffffffffffffffffffffffffffffffffffffff1673ffffffffffffffffffffffffffffffffffffffff1681526020019081526020016000205490506001600760008473ffffffffffffffffffffffffffffffffffffffff1673ffffffffffffffffffffffffffffffffffffffff1681526020019081526020016000206000828254610c5a9190612980565b9250508190555084600460008473ffffffffffffffffffffffffffffffffffffffff1673ffffffffffffffffffffffffffffffffffffffff16815260200190815260200160002060008381526020019081526020016000208190555083600a016040518060a001604052808473ffffffffffffffffffffffffffffffffffffffff168152602001888681518110610cf457610cf36129d6565b5b6020026020010151602001518152602001600081526020016000151581526020016000815250908060018154018082558091505060019003906000526020600020906005020160009091909190915060008201518160000160006101000a81548173ffffffffffffffffffffffffffffffffffffffff021916908373ffffffffffffffffffffffffffffffffffffffff160217905550602082015181600101556040820151816002015560608201518160030160006101000a81548160ff02191690831515021790555060808201518160040155505050508080610dd790612a97565b915050610b2a565b50610dea6009611ac8565b836000015173ffffffffffffffffffffffffffffffffffffffff16827f3c79d61c98469e21c55452f60f02d0300aa8fad7f856ffabfcc524d93e4bdfaf896003811115610e3a57610e39611ea3565b5b8460070160009054906101000a900460ff166002811115610e5e57610e5d611ea3565b5b8f8f8f604051610e72959493929190612afc565b60405180910390a35050505050505050505050565b600160009054906101000a900473ffffffffffffffffffffffffffffffffffffffff1673ffffffffffffffffffffffffffffffffffffffff16637e723266856040518263ffffffff1660e01b8152600401610ee29190612470565b60206040518083038186803b158015610efa57600080fd5b505afa158015610f0e573d6000803e3d6000fd5b505050506040513d601f19601f82011682018060405250810190610f329190612800565b610f71576040517f08c379a0000000000000000000000000000000000000000000000000000000008152600401610f6890612ba9565b60405180910390fd5b60008362ffffff1611610fb9576040517f08c379a0000000000000000000000000000000000000000000000000000000008152600401610fb090612c15565b60405180910390fd5b60008211610ffc576040517f08c379a0000000000000000000000000000000000000000000000000000000008152600401610ff390612c81565b60405180910390fd5b6000600160009054906101000a900473ffffffffffffffffffffffffffffffffffffffff1690506000600460003373ffffffffffffffffffffffffffffffffffffffff1673ffffffffffffffffffffffffffffffffffffffff16815260200190815260200160002060008481526020019081526020016000205490506000600860008381526020019081526020016000209050600061109b8333611623565b9050600082600a0182815481106110b5576110b46129d6565b5b9060005260206000209060050201905060008573ffffffffffffffffffffffffffffffffffffffff16638b1ab4058b8660020160019054906101000a900473ffffffffffffffffffffffffffffffffffffffff1633308e8e6040518763ffffffff1660e01b815260040161112e96959493929190612cb0565b602060405180830381600087803b15801561114857600080fd5b505af115801561115c573d6000803e3d6000fd5b505050506040513d601f19601f820116820180604052508101906111809190612d26565b9050808260020160008282546111969190612980565b92505081905550808460040160008282546111b19190612980565b9250508190555081600101548260020154106111e55760018260030160006101000a81548160ff0219169083151502179055505b428260040181905550836003015484600401541061133e5760005b84600a018054905081101561124f57600085600a018281548110611227576112266129d6565b5b906000526020600020906005020160020181905550808061124790612a97565b915050611200565b50600084600401549050600085600401819055508460020160019054906101000a900473ffffffffffffffffffffffffffffffffffffffff1673ffffffffffffffffffffffffffffffffffffffff1663a9059cbb8660090160000160009054906101000a900473ffffffffffffffffffffffffffffffffffffffff16836040518363ffffffff1660e01b81526004016112e9929190612d53565b602060405180830381600087803b15801561130357600080fd5b505af1158015611317573d6000803e3d6000fd5b505050506040513d601f19601f8201168201806040525081019061133b9190612800565b50505b3373ffffffffffffffffffffffffffffffffffffffff168460090160000160009054906101000a900473ffffffffffffffffffffffffffffffffffffffff1673ffffffffffffffffffffffffffffffffffffffff16867f6e7b41b070de33dae21e20e9680390fd4a4cf1827dafb61fc22d9f0f724beed1846040516113c39190611d83565b60405180910390a450505050505050505050565b6113df611ade565b600073ffffffffffffffffffffffffffffffffffffffff168173ffffffffffffffffffffffffffffffffffffffff16141561144f576040517f08c379a000000000000000000000000000000000000000000000000000000000815260040161144690612dee565b60405180910390fd5b80600160006101000a81548173ffffffffffffffffffffffffffffffffffffffff021916908373ffffffffffffffffffffffffffffffffffffffff16021790555050565b60008060149054906101000a900460ff16156114e4576040517f08c379a00000000000000000000000000000000000000000000000000000000081526004016114db90612626565b60405180910390fd5b600073ffffffffffffffffffffffffffffffffffffffff168273ffffffffffffffffffffffffffffffffffffffff161415611554576040517f08c379a000000000000000000000000000000000000000000000000000000000815260040161154b90612692565b60405180910390fd5b600760008373ffffffffffffffffffffffffffffffffffffffff1673ffffffffffffffffffffffffffffffffffffffff168152602001908152602001600020549050919050565b6115a3611ade565b6115ad6000611b5c565b565b60008060009054906101000a900473ffffffffffffffffffffffffffffffffffffffff16905090565b600260009054906101000a900473ffffffffffffffffffffffffffffffffffffffff1681565b611606611ade565b80600060146101000a81548160ff02191690831515021790555050565b60008060086000858152602001908152602001600020905060005b81600a01805490508110156116e5578373ffffffffffffffffffffffffffffffffffffffff1682600a01828154811061167a576116796129d6565b5b906000526020600020906005020160000160009054906101000a900473ffffffffffffffffffffffffffffffffffffffff1673ffffffffffffffffffffffffffffffffffffffff1614156116d25780925050506116ec565b80806116dd90612a97565b91505061163e565b5060009150505b92915050565b600160009054906101000a900473ffffffffffffffffffffffffffffffffffffffff1681565b60608060008060008060008060008060149054906101000a900460ff1615611775576040517f08c379a000000000000000000000000000000000000000000000000000000000815260040161176c90612626565b60405180910390fd5b6000600460008d73ffffffffffffffffffffffffffffffffffffffff1673ffffffffffffffffffffffffffffffffffffffff16815260200190815260200160002060008c8152602001908152602001600020549050600060086000838152602001908152602001600020905060006117ed838f611623565b9050600082600a018281548110611807576118066129d6565b5b906000526020600020906005020190508e73ffffffffffffffffffffffffffffffffffffffff168160000160009054906101000a900473ffffffffffffffffffffffffffffffffffffffff1673ffffffffffffffffffffffffffffffffffffffff16146118a9576040517f08c379a00000000000000000000000000000000000000000000000000000000081526004016118a090612e5a565b60405180910390fd5b82600001836001018460020160009054906101000a900460ff1683600101548460030160009054906101000a900460ff1685600401548860070160009054906101000a900460ff1689600501548a60060154888054611907906126e1565b80601f0160208091040260200160405190810160405280929190818152602001828054611933906126e1565b80156119805780601f1061195557610100808354040283529160200191611980565b820191906000526020600020905b81548152906001019060200180831161196357829003601f168201915b50505050509850878054611993906126e1565b80601f01602080910402602001604051908101604052809291908181526020018280546119bf906126e1565b8015611a0c5780601f106119e157610100808354040283529160200191611a0c565b820191906000526020600020905b8154815290600101906020018083116119ef57829003601f168201915b505050505097509c509c509c509c509c509c509c509c509c50505050509295985092959850929598565b611a3e611ade565b600073ffffffffffffffffffffffffffffffffffffffff168173ffffffffffffffffffffffffffffffffffffffff161415611aae576040517f08c379a0000000000000000000000000000000000000000000000000000000008152600401611aa590612eec565b60405180910390fd5b611ab781611b5c565b50565b600081600001549050919050565b6001816000016000828254019250508190555050565b611ae6611c20565b73ffffffffffffffffffffffffffffffffffffffff16611b046115af565b73ffffffffffffffffffffffffffffffffffffffff1614611b5a576040517f08c379a0000000000000000000000000000000000000000000000000000000008152600401611b5190612f58565b60405180910390fd5b565b60008060009054906101000a900473ffffffffffffffffffffffffffffffffffffffff169050816000806101000a81548173ffffffffffffffffffffffffffffffffffffffff021916908373ffffffffffffffffffffffffffffffffffffffff1602179055508173ffffffffffffffffffffffffffffffffffffffff168173ffffffffffffffffffffffffffffffffffffffff167f8be0079c531659141344cd1fd0a4f28419497f9722a3daafe3b4186f6b6457e060405160405180910390a35050565b600033905090565b828054611c34906126e1565b90600052602060002090601f016020900481019282611c565760008555611c9d565b82601f10611c6f57805160ff1916838001178555611c9d565b82800160010185558215611c9d579182015b82811115611c9c578251825591602001919060010190611c81565b5b509050611caa9190611cae565b5090565b5b80821115611cc7576000816000905550600101611caf565b5090565b6000604051905090565b600080fd5b600080fd5b600073ffffffffffffffffffffffffffffffffffffffff82169050919050565b6000611d0a82611cdf565b9050919050565b611d1a81611cff565b8114611d2557600080fd5b50565b600081359050611d3781611d11565b92915050565b600060208284031215611d5357611d52611cd5565b5b6000611d6184828501611d28565b91505092915050565b6000819050919050565b611d7d81611d6a565b82525050565b6000602082019050611d986000830184611d74565b92915050565b611da781611d6a565b8114611db257600080fd5b50565b600081359050611dc481611d9e565b92915050565b60008060408385031215611de157611de0611cd5565b5b6000611def85828601611d28565b9250506020611e0085828601611db5565b9150509250929050565b600081519050919050565b600082825260208201905092915050565b60005b83811015611e44578082015181840152602081019050611e29565b83811115611e53576000848401525b50505050565b6000601f19601f8301169050919050565b6000611e7582611e0a565b611e7f8185611e15565b9350611e8f818560208601611e26565b611e9881611e59565b840191505092915050565b7f4e487b7100000000000000000000000000000000000000000000000000000000600052602160045260246000fd5b60048110611ee357611ee2611ea3565b5b50565b6000819050611ef482611ed2565b919050565b6000611f0482611ee6565b9050919050565b611f1481611ef9565b82525050565b611f2381611cff565b82525050565b60038110611f3a57611f39611ea3565b5b50565b6000819050611f4b82611f29565b919050565b6000611f5b82611f3d565b9050919050565b611f6b81611f50565b82525050565b6000610100820190508181036000830152611f8c818b611e6a565b90508181036020830152611fa0818a611e6a565b9050611faf6040830189611f0b565b611fbc6060830188611d74565b611fc96080830187611f1a565b611fd660a0830186611f62565b611fe360c0830185611d74565b611ff060e0830184611d74565b9998505050505050505050565b600080fd5b600080fd5b7f4e487b7100000000000000000000000000000000000000000000000000000000600052604160045260246000fd5b61203f82611e59565b810181811067ffffffffffffffff8211171561205e5761205d612007565b5b80604052505050565b6000612071611ccb565b905061207d8282612036565b919050565b600067ffffffffffffffff82111561209d5761209c612007565b5b6120a682611e59565b9050602081019050919050565b82818337600083830152505050565b60006120d56120d084612082565b612067565b9050828152602081018484840111156120f1576120f0612002565b5b6120fc8482856120b3565b509392505050565b600082601f83011261211957612118611ffd565b5b81356121298482602086016120c2565b91505092915050565b6004811061213f57600080fd5b50565b60008135905061215181612132565b92915050565b600080fd5b60006020828403121561217257612171612157565b5b61217c6020612067565b9050600061218c84828501611d28565b60008301525092915050565b600067ffffffffffffffff8211156121b3576121b2612007565b5b602082029050602081019050919050565b600080fd5b6000604082840312156121df576121de612157565b5b6121e96040612067565b905060006121f984828501611d28565b600083015250602061220d84828501611db5565b60208301525092915050565b600061222c61222784612198565b612067565b9050808382526020820190506040840283018581111561224f5761224e6121c4565b5b835b81811015612278578061226488826121c9565b845260208401935050604081019050612251565b5050509392505050565b600082601f83011261229757612296611ffd565b5b81356122a7848260208601612219565b91505092915050565b60008060008060008060008060006101208a8c0312156122d3576122d2611cd5565b5b60008a013567ffffffffffffffff8111156122f1576122f0611cda565b5b6122fd8c828d01612104565b99505060208a013567ffffffffffffffff81111561231e5761231d611cda565b5b61232a8c828d01612104565b985050604061233b8c828d01611db5565b975050606061234c8c828d01611d28565b965050608061235d8c828d01612142565b95505060a061236e8c828d01611db5565b94505060c061237f8c828d0161215c565b93505060e06123908c828d0161215c565b9250506101008a013567ffffffffffffffff8111156123b2576123b1611cda565b5b6123be8c828d01612282565b9150509295985092959850929598565b600062ffffff82169050919050565b6123e6816123ce565b81146123f157600080fd5b50565b600081359050612403816123dd565b92915050565b6000806000806080858703121561242357612422611cd5565b5b600061243187828801611d28565b9450506020612442878288016123f4565b935050604061245387828801611db5565b925050606061246487828801611db5565b91505092959194509250565b60006020820190506124856000830184611f1a565b92915050565b60008115159050919050565b6124a08161248b565b81146124ab57600080fd5b50565b6000813590506124bd81612497565b92915050565b6000602082840312156124d9576124d8611cd5565b5b60006124e7848285016124ae565b91505092915050565b6000806040838503121561250757612506611cd5565b5b600061251585828601611db5565b925050602061252685828601611d28565b9150509250929050565b6125398161248b565b82525050565b600061012082019050818103600083015261255a818c611e6a565b9050818103602083015261256e818b611e6a565b905061257d604083018a611f0b565b61258a6060830189611d74565b6125976080830188612530565b6125a460a0830187611d74565b6125b160c0830186611f62565b6125be60e0830185611d74565b6125cc610100830184611d74565b9a9950505050505050505050565b7f436f6e7472616374206973207061757365640000000000000000000000000000600082015250565b6000612610601283611e15565b915061261b826125da565b602082019050919050565b6000602082019050818103600083015261263f81612603565b9050919050565b7f496e76616c696420616464726573730000000000000000000000000000000000600082015250565b600061267c600f83611e15565b915061268782612646565b602082019050919050565b600060208201905081810360008301526126ab8161266f565b9050919050565b7f4e487b7100000000000000000000000000000000000000000000000000000000600052602260045260246000fd5b600060028204905060018216806126f957607f821691505b6020821081141561270d5761270c6126b2565b5b50919050565b7f457870656e7365206e616d652069732072657175697265640000000000000000600082015250565b6000612749601883611e15565b915061275482612713565b602082019050919050565b600060208201905081810360008301526127788161273c565b9050919050565b7f616d6f756e74206d7573742062652067726561746572207468616e2030000000600082015250565b60006127b5601d83611e15565b91506127c08261277f565b602082019050919050565b600060208201905081810360008301526127e4816127a8565b9050919050565b6000815190506127fa81612497565b92915050565b60006020828403121561281657612815611cd5565b5b6000612824848285016127eb565b91505092915050565b7f496e76616c696420746f6b656e2061646472657373206f7220454e53206e616d60008201527f6573000000000000000000000000000000000000000000000000000000000000602082015250565b6000612889602283611e15565b91506128948261282d565b604082019050919050565b600060208201905081810360008301526128b88161287c565b9050919050565b7f496e76616c69642020726563697069656e742061646472657373206f7220454e60008201527f53206e616d657300000000000000000000000000000000000000000000000000602082015250565b600061291b602783611e15565b9150612926826128bf565b604082019050919050565b6000602082019050818103600083015261294a8161290e565b9050919050565b7f4e487b7100000000000000000000000000000000000000000000000000000000600052601160045260246000fd5b600061298b82611d6a565b915061299683611d6a565b9250827fffffffffffffffffffffffffffffffffffffffffffffffffffffffffffffffff038211156129cb576129ca612951565b5b828201905092915050565b7f4e487b7100000000000000000000000000000000000000000000000000000000600052603260045260246000fd5b7f696e76616c6964206164647265737320646562746f72206f7220454e53206e6160008201527f6d65000000000000000000000000000000000000000000000000000000000000602082015250565b6000612a61602283611e15565b9150612a6c82612a05565b604082019050919050565b60006020820190508181036000830152612a9081612a54565b9050919050565b6000612aa282611d6a565b91507fffffffffffffffffffffffffffffffffffffffffffffffffffffffffffffffff821415612ad557612ad4612951565b5b600182019050919050565b600060ff82169050919050565b612af681612ae0565b82525050565b600060a082019050612b116000830188612aed565b612b1e6020830187612aed565b8181036040830152612b308186611e6a565b90508181036060830152612b448185611e6a565b9050612b536080830184611d74565b9695505050505050565b7f496e76616c696420617373657420616464726573730000000000000000000000600082015250565b6000612b93601583611e15565b9150612b9e82612b5d565b602082019050919050565b60006020820190508181036000830152612bc281612b86565b9050919050565b7f506f6f6c20666565206973206e6f7420656e6f75676800000000000000000000600082015250565b6000612bff601683611e15565b9150612c0a82612bc9565b602082019050919050565b60006020820190508181036000830152612c2e81612bf2565b9050919050565b7f416d6f756e742073656e74206973206e6f7420656e6f75676800000000000000600082015250565b6000612c6b601983611e15565b9150612c7682612c35565b602082019050919050565b60006020820190508181036000830152612c9a81612c5e565b9050919050565b612caa816123ce565b82525050565b600060c082019050612cc56000830189611f1a565b612cd26020830188611f1a565b612cdf6040830187611f1a565b612cec6060830186611f1a565b612cf96080830185612ca1565b612d0660a0830184611d74565b979650505050505050565b600081519050612d2081611d9e565b92915050565b600060208284031215612d3c57612d3b611cd5565b5b6000612d4a84828501612d11565b91505092915050565b6000604082019050612d686000830185611f1a565b612d756020830184611d74565b9392505050565b7f5377617020636f6e747261637420616464726573732063616e6e6f742062652060008201527f3078300000000000000000000000000000000000000000000000000000000000602082015250565b6000612dd8602383611e15565b9150612de382612d7c565b604082019050919050565b60006020820190508181036000830152612e0781612dcb565b9050919050565b7f44656274204e6f7420666f756e64000000000000000000000000000000000000600082015250565b6000612e44600e83611e15565b9150612e4f82612e0e565b602082019050919050565b60006020820190508181036000830152612e7381612e37565b9050919050565b7f4f776e61626c653a206e6577206f776e657220697320746865207a65726f206160008201527f6464726573730000000000000000000000000000000000000000000000000000602082015250565b6000612ed6602683611e15565b9150612ee182612e7a565b604082019050919050565b60006020820190508181036000830152612f0581612ec9565b9050919050565b7f4f776e61626c653a2063616c6c6572206973206e6f7420746865206f776e6572600082015250565b6000612f42602083611e15565b9150612f4d82612f0c565b602082019050919050565b60006020820190508181036000830152612f7181612f35565b905091905056fea2646970667358221220410245b1bc0ead39f67126d9992745137f3ebad1b1e31d2af7d774741b68013264736f6c63430008090033",
  "linkReferences": {},
  "deployedLinkReferences": {}
}