{
  "address": "0x6134C0C7D655CfF2F225CFeB0c06799B588a7E61",
  "_format": "hh-sol-artifact-1",
  "contractName": "Swap",
  "sourceName": "contracts/Swap.sol",
  "abi": [
    {
      "inputs": [
        {
          "internalType": "address",
          "name": "_issuerContract",
          "type": "address"
        }
      ],
      "stateMutability": "nonpayable",
      "type": "constructor"
    },
    {
      "anonymous": false,
      "inputs": [
        {
          "indexed": true,
          "internalType": "address",
          "name": "previousOwner",
          "type": "address"
        },
        {
          "indexed": true,
          "internalType": "address",
          "name": "newOwner",
          "type": "address"
        }
      ],
      "name": "OwnershipTransferred",
      "type": "event"
    },
    {
      "inputs": [
        {
          "internalType": "address",
          "name": "_assetAddress",
          "type": "address"
        }
      ],
      "name": "isValidAssetAddress",
      "outputs": [
        {
          "internalType": "bool",
          "name": "",
          "type": "bool"
        }
      ],
      "stateMutability": "view",
      "type": "function"
    },
    {
      "inputs": [],
      "name": "owner",
      "outputs": [
        {
          "internalType": "address",
          "name": "",
          "type": "address"
        }
      ],
      "stateMutability": "view",
      "type": "function"
    },
    {
      "inputs": [
        {
          "internalType": "bool",
          "name": "status",
          "type": "bool"
        }
      ],
      "name": "pauseContract",
      "outputs": [],
      "stateMutability": "nonpayable",
      "type": "function"
    },
    {
      "inputs": [],
      "name": "renounceOwnership",
      "outputs": [],
      "stateMutability": "nonpayable",
      "type": "function"
    },
    {
      "inputs": [
        {
          "internalType": "address",
          "name": "_issuerContract",
          "type": "address"
        }
      ],
      "name": "setIssuerContract",
      "outputs": [],
      "stateMutability": "nonpayable",
      "type": "function"
    },
    {
      "inputs": [
        {
          "internalType": "address",
          "name": "fromAsset",
          "type": "address"
        },
        {
          "internalType": "address",
          "name": "toAsset",
          "type": "address"
        },
        {
          "internalType": "address",
          "name": "sender",
          "type": "address"
        },
        {
          "internalType": "address",
          "name": "recipient",
          "type": "address"
        },
        {
          "internalType": "uint24",
          "name": "poolFee",
          "type": "uint24"
        },
        {
          "internalType": "uint256",
          "name": "amountIn",
          "type": "uint256"
        }
      ],
      "name": "swapExactInputSingle",
      "outputs": [
        {
          "internalType": "uint256",
          "name": "amountOut",
          "type": "uint256"
        }
      ],
      "stateMutability": "nonpayable",
      "type": "function"
    },
    {
      "inputs": [],
      "name": "swapRouter",
      "outputs": [
        {
          "internalType": "contract ISwapRouter",
          "name": "",
          "type": "address"
        }
      ],
      "stateMutability": "view",
      "type": "function"
    },
    {
      "inputs": [
        {
          "internalType": "address",
          "name": "newOwner",
          "type": "address"
        }
      ],
      "name": "transferOwnership",
      "outputs": [],
      "stateMutability": "nonpayable",
      "type": "function"
    }
  ],
  "bytecode": "0x608060405260008060146101000a81548160ff021916908315150217905550733813e82e6f7098b9583fc0f33a962d02018b6803600260006101000a81548173ffffffffffffffffffffffffffffffffffffffff021916908373ffffffffffffffffffffffffffffffffffffffff16021790555073e11a86849d99f524cac3e7a0ec1241828e332c62600360006101000a81548173ffffffffffffffffffffffffffffffffffffffff021916908373ffffffffffffffffffffffffffffffffffffffff16021790555073d393b1e02da9831ff419e22ea105aae4c47e1253600460006101000a81548173ffffffffffffffffffffffffffffffffffffffff021916908373ffffffffffffffffffffffffffffffffffffffff160217905550739c3c9283d3e44854697cd22d3faa240cfb032889600560006101000a81548173ffffffffffffffffffffffffffffffffffffffff021916908373ffffffffffffffffffffffffffffffffffffffff16021790555073a6fa4fb5f76172d178d61b04b0ecd319c5d1c0aa600660006101000a81548173ffffffffffffffffffffffffffffffffffffffff021916908373ffffffffffffffffffffffffffffffffffffffff160217905550348015620001d457600080fd5b5060405162001810380380620018108339818101604052810190620001fa919062000398565b6200021a6200020e6200026260201b60201c565b6200026a60201b60201c565b80600160006101000a81548173ffffffffffffffffffffffffffffffffffffffff021916908373ffffffffffffffffffffffffffffffffffffffff16021790555050620003ca565b600033905090565b60008060009054906101000a900473ffffffffffffffffffffffffffffffffffffffff169050816000806101000a81548173ffffffffffffffffffffffffffffffffffffffff021916908373ffffffffffffffffffffffffffffffffffffffff1602179055508173ffffffffffffffffffffffffffffffffffffffff168173ffffffffffffffffffffffffffffffffffffffff167f8be0079c531659141344cd1fd0a4f28419497f9722a3daafe3b4186f6b6457e060405160405180910390a35050565b600080fd5b600073ffffffffffffffffffffffffffffffffffffffff82169050919050565b6000620003608262000333565b9050919050565b620003728162000353565b81146200037e57600080fd5b50565b600081519050620003928162000367565b92915050565b600060208284031215620003b157620003b06200032e565b5b6000620003c18482850162000381565b91505092915050565b61143680620003da6000396000f3fe608060405234801561001057600080fd5b50600436106100885760003560e01c8063c31c9c071161005b578063c31c9c0714610115578063e272b89214610133578063e9b4e7e61461014f578063f2fde38b1461016b57610088565b8063715018a61461008d5780637e723266146100975780638b1ab405146100c75780638da5cb5b146100f7575b600080fd5b610095610187565b005b6100b160048036038101906100ac9190610bde565b61019b565b6040516100be9190610c26565b60405180910390f35b6100e160048036038101906100dc9190610cb2565b610366565b6040516100ee9190610d4e565b60405180910390f35b6100ff6105bc565b60405161010c9190610d78565b60405180910390f35b61011d6105e5565b60405161012a9190610df2565b60405180910390f35b61014d60048036038101906101489190610e39565b6105fd565b005b61016960048036038101906101649190610bde565b610622565b005b61018560048036038101906101809190610bde565b610700565b005b61018f610784565b6101996000610802565b565b6000600260009054906101000a900473ffffffffffffffffffffffffffffffffffffffff1673ffffffffffffffffffffffffffffffffffffffff168273ffffffffffffffffffffffffffffffffffffffff1614806102465750600360009054906101000a900473ffffffffffffffffffffffffffffffffffffffff1673ffffffffffffffffffffffffffffffffffffffff168273ffffffffffffffffffffffffffffffffffffffff16145b8061029e5750600460009054906101000a900473ffffffffffffffffffffffffffffffffffffffff1673ffffffffffffffffffffffffffffffffffffffff168273ffffffffffffffffffffffffffffffffffffffff16145b806102f65750600560009054906101000a900473ffffffffffffffffffffffffffffffffffffffff1673ffffffffffffffffffffffffffffffffffffffff168273ffffffffffffffffffffffffffffffffffffffff16145b8061034e5750600660009054906101000a900473ffffffffffffffffffffffffffffffffffffffff1673ffffffffffffffffffffffffffffffffffffffff168273ffffffffffffffffffffffffffffffffffffffff16145b1561035c5760019050610361565b600090505b919050565b6000600160009054906101000a900473ffffffffffffffffffffffffffffffffffffffff1673ffffffffffffffffffffffffffffffffffffffff163373ffffffffffffffffffffffffffffffffffffffff16146103f8576040517f08c379a00000000000000000000000000000000000000000000000000000000081526004016103ef90610ec3565b60405180910390fd5b600060149054906101000a900460ff1615610448576040517f08c379a000000000000000000000000000000000000000000000000000000000815260040161043f90610f2f565b60405180910390fd5b610454878630856108c6565b6104738773e592427a0aece92de3edee1f18e0157c0586156484610a1e565b60006040518061010001604052808973ffffffffffffffffffffffffffffffffffffffff1681526020018873ffffffffffffffffffffffffffffffffffffffff1681526020018562ffffff1681526020018673ffffffffffffffffffffffffffffffffffffffff16815260200142815260200184815260200160008152602001600073ffffffffffffffffffffffffffffffffffffffff16815250905073e592427a0aece92de3edee1f18e0157c0586156473ffffffffffffffffffffffffffffffffffffffff1663414bf389826040518263ffffffff1660e01b815260040161055d919061102d565b602060405180830381600087803b15801561057757600080fd5b505af115801561058b573d6000803e3d6000fd5b505050506040513d601f19601f820116820180604052508101906105af919061105e565b9150509695505050505050565b60008060009054906101000a900473ffffffffffffffffffffffffffffffffffffffff16905090565b73e592427a0aece92de3edee1f18e0157c0586156481565b610605610784565b80600060146101000a81548160ff02191690831515021790555050565b61062a610784565b600073ffffffffffffffffffffffffffffffffffffffff16600160009054906101000a900473ffffffffffffffffffffffffffffffffffffffff1673ffffffffffffffffffffffffffffffffffffffff1614156106bc576040517f08c379a00000000000000000000000000000000000000000000000000000000081526004016106b3906110d7565b60405180910390fd5b80600160006101000a81548173ffffffffffffffffffffffffffffffffffffffff021916908373ffffffffffffffffffffffffffffffffffffffff16021790555050565b610708610784565b600073ffffffffffffffffffffffffffffffffffffffff168173ffffffffffffffffffffffffffffffffffffffff161415610778576040517f08c379a000000000000000000000000000000000000000000000000000000000815260040161076f90611169565b60405180910390fd5b61078181610802565b50565b61078c610b73565b73ffffffffffffffffffffffffffffffffffffffff166107aa6105bc565b73ffffffffffffffffffffffffffffffffffffffff1614610800576040517f08c379a00000000000000000000000000000000000000000000000000000000081526004016107f7906111d5565b60405180910390fd5b565b60008060009054906101000a900473ffffffffffffffffffffffffffffffffffffffff169050816000806101000a81548173ffffffffffffffffffffffffffffffffffffffff021916908373ffffffffffffffffffffffffffffffffffffffff1602179055508173ffffffffffffffffffffffffffffffffffffffff168173ffffffffffffffffffffffffffffffffffffffff167f8be0079c531659141344cd1fd0a4f28419497f9722a3daafe3b4186f6b6457e060405160405180910390a35050565b6000808573ffffffffffffffffffffffffffffffffffffffff166323b872dd60e01b8686866040516024016108fd939291906111f5565b604051602081830303815290604052907bffffffffffffffffffffffffffffffffffffffffffffffffffffffff19166020820180517bffffffffffffffffffffffffffffffffffffffffffffffffffffffff838183161783525050505060405161096791906112a6565b6000604051808303816000865af19150503d80600081146109a4576040519150601f19603f3d011682016040523d82523d6000602084013e6109a9565b606091505b50915091508180156109d757506000815114806109d65750808060200190518101906109d591906112d2565b5b5b610a16576040517f08c379a0000000000000000000000000000000000000000000000000000000008152600401610a0d9061134b565b60405180910390fd5b505050505050565b6000808473ffffffffffffffffffffffffffffffffffffffff1663095ea7b360e01b8585604051602401610a5392919061136b565b604051602081830303815290604052907bffffffffffffffffffffffffffffffffffffffffffffffffffffffff19166020820180517bffffffffffffffffffffffffffffffffffffffffffffffffffffffff8381831617835250505050604051610abd91906112a6565b6000604051808303816000865af19150503d8060008114610afa576040519150601f19603f3d011682016040523d82523d6000602084013e610aff565b606091505b5091509150818015610b2d5750600081511480610b2c575080806020019051810190610b2b91906112d2565b5b5b610b6c576040517f08c379a0000000000000000000000000000000000000000000000000000000008152600401610b63906113e0565b60405180910390fd5b5050505050565b600033905090565b600080fd5b600073ffffffffffffffffffffffffffffffffffffffff82169050919050565b6000610bab82610b80565b9050919050565b610bbb81610ba0565b8114610bc657600080fd5b50565b600081359050610bd881610bb2565b92915050565b600060208284031215610bf457610bf3610b7b565b5b6000610c0284828501610bc9565b91505092915050565b60008115159050919050565b610c2081610c0b565b82525050565b6000602082019050610c3b6000830184610c17565b92915050565b600062ffffff82169050919050565b610c5981610c41565b8114610c6457600080fd5b50565b600081359050610c7681610c50565b92915050565b6000819050919050565b610c8f81610c7c565b8114610c9a57600080fd5b50565b600081359050610cac81610c86565b92915050565b60008060008060008060c08789031215610ccf57610cce610b7b565b5b6000610cdd89828a01610bc9565b9650506020610cee89828a01610bc9565b9550506040610cff89828a01610bc9565b9450506060610d1089828a01610bc9565b9350506080610d2189828a01610c67565b92505060a0610d3289828a01610c9d565b9150509295509295509295565b610d4881610c7c565b82525050565b6000602082019050610d636000830184610d3f565b92915050565b610d7281610ba0565b82525050565b6000602082019050610d8d6000830184610d69565b92915050565b6000819050919050565b6000610db8610db3610dae84610b80565b610d93565b610b80565b9050919050565b6000610dca82610d9d565b9050919050565b6000610ddc82610dbf565b9050919050565b610dec81610dd1565b82525050565b6000602082019050610e076000830184610de3565b92915050565b610e1681610c0b565b8114610e2157600080fd5b50565b600081359050610e3381610e0d565b92915050565b600060208284031215610e4f57610e4e610b7b565b5b6000610e5d84828501610e24565b91505092915050565b600082825260208201905092915050565b7f496e76616c6964206f7065726174696f6e2e204e6f7420497373756572000000600082015250565b6000610ead601d83610e66565b9150610eb882610e77565b602082019050919050565b60006020820190508181036000830152610edc81610ea0565b9050919050565b7f436f6e7472616374206973207061757365640000000000000000000000000000600082015250565b6000610f19601283610e66565b9150610f2482610ee3565b602082019050919050565b60006020820190508181036000830152610f4881610f0c565b9050919050565b610f5881610ba0565b82525050565b610f6781610c41565b82525050565b610f7681610c7c565b82525050565b610f8581610b80565b82525050565b61010082016000820151610fa26000850182610f4f565b506020820151610fb56020850182610f4f565b506040820151610fc86040850182610f5e565b506060820151610fdb6060850182610f4f565b506080820151610fee6080850182610f6d565b5060a082015161100160a0850182610f6d565b5060c082015161101460c0850182610f6d565b5060e082015161102760e0850182610f7c565b50505050565b6000610100820190506110436000830184610f8b565b92915050565b60008151905061105881610c86565b92915050565b60006020828403121561107457611073610b7b565b5b600061108284828501611049565b91505092915050565b7f496e76616c696420616464726573730000000000000000000000000000000000600082015250565b60006110c1600f83610e66565b91506110cc8261108b565b602082019050919050565b600060208201905081810360008301526110f0816110b4565b9050919050565b7f4f776e61626c653a206e6577206f776e657220697320746865207a65726f206160008201527f6464726573730000000000000000000000000000000000000000000000000000602082015250565b6000611153602683610e66565b915061115e826110f7565b604082019050919050565b6000602082019050818103600083015261118281611146565b9050919050565b7f4f776e61626c653a2063616c6c6572206973206e6f7420746865206f776e6572600082015250565b60006111bf602083610e66565b91506111ca82611189565b602082019050919050565b600060208201905081810360008301526111ee816111b2565b9050919050565b600060608201905061120a6000830186610d69565b6112176020830185610d69565b6112246040830184610d3f565b949350505050565b600081519050919050565b600081905092915050565b60005b83811015611260578082015181840152602081019050611245565b8381111561126f576000848401525b50505050565b60006112808261122c565b61128a8185611237565b935061129a818560208601611242565b80840191505092915050565b60006112b28284611275565b915081905092915050565b6000815190506112cc81610e0d565b92915050565b6000602082840312156112e8576112e7610b7b565b5b60006112f6848285016112bd565b91505092915050565b7f5354460000000000000000000000000000000000000000000000000000000000600082015250565b6000611335600383610e66565b9150611340826112ff565b602082019050919050565b6000602082019050818103600083015261136481611328565b9050919050565b60006040820190506113806000830185610d69565b61138d6020830184610d3f565b9392505050565b7f5341000000000000000000000000000000000000000000000000000000000000600082015250565b60006113ca600283610e66565b91506113d582611394565b602082019050919050565b600060208201905081810360008301526113f9816113bd565b905091905056fea264697066735822122056b70802a4555cc9ad4f5605109496113c12d41440a39da418b5b676fb47578464736f6c63430008090033",
  "linkReferences": {},
  "deployedLinkReferences": {}
}