{
  "address": "0x04Cd8B3e384e7bBB01109bc8b6708fCAeD5e9eB0",
  "_format": "hh-sol-artifact-1",
  "contractName": "Swap",
  "sourceName": "contracts/Swap.sol",
  "abi": [
    {
      "inputs": [
        {
          "internalType": "address",
          "name": "_issuerContract",
          "type": "address"
        }
      ],
      "stateMutability": "nonpayable",
      "type": "constructor"
    },
    {
      "anonymous": false,
      "inputs": [
        {
          "indexed": true,
          "internalType": "address",
          "name": "previousOwner",
          "type": "address"
        },
        {
          "indexed": true,
          "internalType": "address",
          "name": "newOwner",
          "type": "address"
        }
      ],
      "name": "OwnershipTransferred",
      "type": "event"
    },
    {
      "inputs": [
        {
          "internalType": "address",
          "name": "_assetAddress",
          "type": "address"
        }
      ],
      "name": "isValidAssetAddress",
      "outputs": [
        {
          "internalType": "bool",
          "name": "",
          "type": "bool"
        }
      ],
      "stateMutability": "view",
      "type": "function"
    },
    {
      "inputs": [],
      "name": "owner",
      "outputs": [
        {
          "internalType": "address",
          "name": "",
          "type": "address"
        }
      ],
      "stateMutability": "view",
      "type": "function"
    },
    {
      "inputs": [
        {
          "internalType": "bool",
          "name": "status",
          "type": "bool"
        }
      ],
      "name": "pauseContract",
      "outputs": [],
      "stateMutability": "nonpayable",
      "type": "function"
    },
    {
      "inputs": [],
      "name": "renounceOwnership",
      "outputs": [],
      "stateMutability": "nonpayable",
      "type": "function"
    },
    {
      "inputs": [
        {
          "internalType": "address",
          "name": "_issuerContract",
          "type": "address"
        }
      ],
      "name": "setIssuerContract",
      "outputs": [],
      "stateMutability": "nonpayable",
      "type": "function"
    },
    {
      "inputs": [
        {
          "internalType": "address",
          "name": "fromAsset",
          "type": "address"
        },
        {
          "internalType": "address",
          "name": "toAsset",
          "type": "address"
        },
        {
          "internalType": "address",
          "name": "sender",
          "type": "address"
        },
        {
          "internalType": "address",
          "name": "recipient",
          "type": "address"
        },
        {
          "internalType": "uint24",
          "name": "poolFee",
          "type": "uint24"
        },
        {
          "internalType": "uint256",
          "name": "amountIn",
          "type": "uint256"
        }
      ],
      "name": "swapExactInputSingle",
      "outputs": [
        {
          "internalType": "uint256",
          "name": "amountOut",
          "type": "uint256"
        }
      ],
      "stateMutability": "nonpayable",
      "type": "function"
    },
    {
      "inputs": [],
      "name": "swapRouter",
      "outputs": [
        {
          "internalType": "contract ISwapRouter",
          "name": "",
          "type": "address"
        }
      ],
      "stateMutability": "view",
      "type": "function"
    },
    {
      "inputs": [
        {
          "internalType": "address",
          "name": "newOwner",
          "type": "address"
        }
      ],
      "name": "transferOwnership",
      "outputs": [],
      "stateMutability": "nonpayable",
      "type": "function"
    }
  ],
  "bytecode": "0x608060405260008060146101000a81548160ff02191690831515021790555073c2132d05d31c914a87c6611c10748aeb04b58e8f600260006101000a81548173ffffffffffffffffffffffffffffffffffffffff021916908373ffffffffffffffffffffffffffffffffffffffff160217905550732791bca1f2de4661ed88a30c99a7a9449aa84174600360006101000a81548173ffffffffffffffffffffffffffffffffffffffff021916908373ffffffffffffffffffffffffffffffffffffffff160217905550738f3cf7ad23cd3cadbd9735aff958023239c6a063600460006101000a81548173ffffffffffffffffffffffffffffffffffffffff021916908373ffffffffffffffffffffffffffffffffffffffff160217905550730d500b1d8e8ef31e21c99d1db9a6444d3adf1270600560006101000a81548173ffffffffffffffffffffffffffffffffffffffff021916908373ffffffffffffffffffffffffffffffffffffffff160217905550737ceb23fd6bc0add59e62ac25578270cff1b9f619600660006101000a81548173ffffffffffffffffffffffffffffffffffffffff021916908373ffffffffffffffffffffffffffffffffffffffff160217905550731bfd67037b42cf73acf2047067bd4f2c47d9bfd6600760006101000a81548173ffffffffffffffffffffffffffffffffffffffff021916908373ffffffffffffffffffffffffffffffffffffffff1602179055503480156200022957600080fd5b50604051620018bd380380620018bd83398181016040528101906200024f9190620003ed565b6200026f62000263620002b760201b60201c565b620002bf60201b60201c565b80600160006101000a81548173ffffffffffffffffffffffffffffffffffffffff021916908373ffffffffffffffffffffffffffffffffffffffff160217905550506200041f565b600033905090565b60008060009054906101000a900473ffffffffffffffffffffffffffffffffffffffff169050816000806101000a81548173ffffffffffffffffffffffffffffffffffffffff021916908373ffffffffffffffffffffffffffffffffffffffff1602179055508173ffffffffffffffffffffffffffffffffffffffff168173ffffffffffffffffffffffffffffffffffffffff167f8be0079c531659141344cd1fd0a4f28419497f9722a3daafe3b4186f6b6457e060405160405180910390a35050565b600080fd5b600073ffffffffffffffffffffffffffffffffffffffff82169050919050565b6000620003b58262000388565b9050919050565b620003c781620003a8565b8114620003d357600080fd5b50565b600081519050620003e781620003bc565b92915050565b60006020828403121562000406576200040562000383565b5b60006200041684828501620003d6565b91505092915050565b61148e806200042f6000396000f3fe608060405234801561001057600080fd5b50600436106100885760003560e01c8063c31c9c071161005b578063c31c9c0714610115578063e272b89214610133578063e9b4e7e61461014f578063f2fde38b1461016b57610088565b8063715018a61461008d5780637e723266146100975780638b1ab405146100c75780638da5cb5b146100f7575b600080fd5b610095610187565b005b6100b160048036038101906100ac9190610c36565b61019b565b6040516100be9190610c7e565b60405180910390f35b6100e160048036038101906100dc9190610d0a565b6103be565b6040516100ee9190610da6565b60405180910390f35b6100ff610614565b60405161010c9190610dd0565b60405180910390f35b61011d61063d565b60405161012a9190610e4a565b60405180910390f35b61014d60048036038101906101489190610e91565b610655565b005b61016960048036038101906101649190610c36565b61067a565b005b61018560048036038101906101809190610c36565b610758565b005b61018f6107dc565b610199600061085a565b565b6000600260009054906101000a900473ffffffffffffffffffffffffffffffffffffffff1673ffffffffffffffffffffffffffffffffffffffff168273ffffffffffffffffffffffffffffffffffffffff1614806102465750600360009054906101000a900473ffffffffffffffffffffffffffffffffffffffff1673ffffffffffffffffffffffffffffffffffffffff168273ffffffffffffffffffffffffffffffffffffffff16145b8061029e5750600460009054906101000a900473ffffffffffffffffffffffffffffffffffffffff1673ffffffffffffffffffffffffffffffffffffffff168273ffffffffffffffffffffffffffffffffffffffff16145b806102f65750600560009054906101000a900473ffffffffffffffffffffffffffffffffffffffff1673ffffffffffffffffffffffffffffffffffffffff168273ffffffffffffffffffffffffffffffffffffffff16145b8061034e5750600660009054906101000a900473ffffffffffffffffffffffffffffffffffffffff1673ffffffffffffffffffffffffffffffffffffffff168273ffffffffffffffffffffffffffffffffffffffff16145b806103a65750600760009054906101000a900473ffffffffffffffffffffffffffffffffffffffff1673ffffffffffffffffffffffffffffffffffffffff168273ffffffffffffffffffffffffffffffffffffffff16145b156103b457600190506103b9565b600090505b919050565b6000600160009054906101000a900473ffffffffffffffffffffffffffffffffffffffff1673ffffffffffffffffffffffffffffffffffffffff163373ffffffffffffffffffffffffffffffffffffffff1614610450576040517f08c379a000000000000000000000000000000000000000000000000000000000815260040161044790610f1b565b60405180910390fd5b600060149054906101000a900460ff16156104a0576040517f08c379a000000000000000000000000000000000000000000000000000000000815260040161049790610f87565b60405180910390fd5b6104ac8786308561091e565b6104cb8773e592427a0aece92de3edee1f18e0157c0586156484610a76565b60006040518061010001604052808973ffffffffffffffffffffffffffffffffffffffff1681526020018873ffffffffffffffffffffffffffffffffffffffff1681526020018562ffffff1681526020018673ffffffffffffffffffffffffffffffffffffffff16815260200142815260200184815260200160008152602001600073ffffffffffffffffffffffffffffffffffffffff16815250905073e592427a0aece92de3edee1f18e0157c0586156473ffffffffffffffffffffffffffffffffffffffff1663414bf389826040518263ffffffff1660e01b81526004016105b59190611085565b602060405180830381600087803b1580156105cf57600080fd5b505af11580156105e3573d6000803e3d6000fd5b505050506040513d601f19601f8201168201806040525081019061060791906110b6565b9150509695505050505050565b60008060009054906101000a900473ffffffffffffffffffffffffffffffffffffffff16905090565b73e592427a0aece92de3edee1f18e0157c0586156481565b61065d6107dc565b80600060146101000a81548160ff02191690831515021790555050565b6106826107dc565b600073ffffffffffffffffffffffffffffffffffffffff16600160009054906101000a900473ffffffffffffffffffffffffffffffffffffffff1673ffffffffffffffffffffffffffffffffffffffff161415610714576040517f08c379a000000000000000000000000000000000000000000000000000000000815260040161070b9061112f565b60405180910390fd5b80600160006101000a81548173ffffffffffffffffffffffffffffffffffffffff021916908373ffffffffffffffffffffffffffffffffffffffff16021790555050565b6107606107dc565b600073ffffffffffffffffffffffffffffffffffffffff168173ffffffffffffffffffffffffffffffffffffffff1614156107d0576040517f08c379a00000000000000000000000000000000000000000000000000000000081526004016107c7906111c1565b60405180910390fd5b6107d98161085a565b50565b6107e4610bcb565b73ffffffffffffffffffffffffffffffffffffffff16610802610614565b73ffffffffffffffffffffffffffffffffffffffff1614610858576040517f08c379a000000000000000000000000000000000000000000000000000000000815260040161084f9061122d565b60405180910390fd5b565b60008060009054906101000a900473ffffffffffffffffffffffffffffffffffffffff169050816000806101000a81548173ffffffffffffffffffffffffffffffffffffffff021916908373ffffffffffffffffffffffffffffffffffffffff1602179055508173ffffffffffffffffffffffffffffffffffffffff168173ffffffffffffffffffffffffffffffffffffffff167f8be0079c531659141344cd1fd0a4f28419497f9722a3daafe3b4186f6b6457e060405160405180910390a35050565b6000808573ffffffffffffffffffffffffffffffffffffffff166323b872dd60e01b8686866040516024016109559392919061124d565b604051602081830303815290604052907bffffffffffffffffffffffffffffffffffffffffffffffffffffffff19166020820180517bffffffffffffffffffffffffffffffffffffffffffffffffffffffff83818316178352505050506040516109bf91906112fe565b6000604051808303816000865af19150503d80600081146109fc576040519150601f19603f3d011682016040523d82523d6000602084013e610a01565b606091505b5091509150818015610a2f5750600081511480610a2e575080806020019051810190610a2d919061132a565b5b5b610a6e576040517f08c379a0000000000000000000000000000000000000000000000000000000008152600401610a65906113a3565b60405180910390fd5b505050505050565b6000808473ffffffffffffffffffffffffffffffffffffffff1663095ea7b360e01b8585604051602401610aab9291906113c3565b604051602081830303815290604052907bffffffffffffffffffffffffffffffffffffffffffffffffffffffff19166020820180517bffffffffffffffffffffffffffffffffffffffffffffffffffffffff8381831617835250505050604051610b1591906112fe565b6000604051808303816000865af19150503d8060008114610b52576040519150601f19603f3d011682016040523d82523d6000602084013e610b57565b606091505b5091509150818015610b855750600081511480610b84575080806020019051810190610b83919061132a565b5b5b610bc4576040517f08c379a0000000000000000000000000000000000000000000000000000000008152600401610bbb90611438565b60405180910390fd5b5050505050565b600033905090565b600080fd5b600073ffffffffffffffffffffffffffffffffffffffff82169050919050565b6000610c0382610bd8565b9050919050565b610c1381610bf8565b8114610c1e57600080fd5b50565b600081359050610c3081610c0a565b92915050565b600060208284031215610c4c57610c4b610bd3565b5b6000610c5a84828501610c21565b91505092915050565b60008115159050919050565b610c7881610c63565b82525050565b6000602082019050610c936000830184610c6f565b92915050565b600062ffffff82169050919050565b610cb181610c99565b8114610cbc57600080fd5b50565b600081359050610cce81610ca8565b92915050565b6000819050919050565b610ce781610cd4565b8114610cf257600080fd5b50565b600081359050610d0481610cde565b92915050565b60008060008060008060c08789031215610d2757610d26610bd3565b5b6000610d3589828a01610c21565b9650506020610d4689828a01610c21565b9550506040610d5789828a01610c21565b9450506060610d6889828a01610c21565b9350506080610d7989828a01610cbf565b92505060a0610d8a89828a01610cf5565b9150509295509295509295565b610da081610cd4565b82525050565b6000602082019050610dbb6000830184610d97565b92915050565b610dca81610bf8565b82525050565b6000602082019050610de56000830184610dc1565b92915050565b6000819050919050565b6000610e10610e0b610e0684610bd8565b610deb565b610bd8565b9050919050565b6000610e2282610df5565b9050919050565b6000610e3482610e17565b9050919050565b610e4481610e29565b82525050565b6000602082019050610e5f6000830184610e3b565b92915050565b610e6e81610c63565b8114610e7957600080fd5b50565b600081359050610e8b81610e65565b92915050565b600060208284031215610ea757610ea6610bd3565b5b6000610eb584828501610e7c565b91505092915050565b600082825260208201905092915050565b7f496e76616c6964206f7065726174696f6e2e204e6f7420497373756572000000600082015250565b6000610f05601d83610ebe565b9150610f1082610ecf565b602082019050919050565b60006020820190508181036000830152610f3481610ef8565b9050919050565b7f436f6e7472616374206973207061757365640000000000000000000000000000600082015250565b6000610f71601283610ebe565b9150610f7c82610f3b565b602082019050919050565b60006020820190508181036000830152610fa081610f64565b9050919050565b610fb081610bf8565b82525050565b610fbf81610c99565b82525050565b610fce81610cd4565b82525050565b610fdd81610bd8565b82525050565b61010082016000820151610ffa6000850182610fa7565b50602082015161100d6020850182610fa7565b5060408201516110206040850182610fb6565b5060608201516110336060850182610fa7565b5060808201516110466080850182610fc5565b5060a082015161105960a0850182610fc5565b5060c082015161106c60c0850182610fc5565b5060e082015161107f60e0850182610fd4565b50505050565b60006101008201905061109b6000830184610fe3565b92915050565b6000815190506110b081610cde565b92915050565b6000602082840312156110cc576110cb610bd3565b5b60006110da848285016110a1565b91505092915050565b7f496e76616c696420616464726573730000000000000000000000000000000000600082015250565b6000611119600f83610ebe565b9150611124826110e3565b602082019050919050565b600060208201905081810360008301526111488161110c565b9050919050565b7f4f776e61626c653a206e6577206f776e657220697320746865207a65726f206160008201527f6464726573730000000000000000000000000000000000000000000000000000602082015250565b60006111ab602683610ebe565b91506111b68261114f565b604082019050919050565b600060208201905081810360008301526111da8161119e565b9050919050565b7f4f776e61626c653a2063616c6c6572206973206e6f7420746865206f776e6572600082015250565b6000611217602083610ebe565b9150611222826111e1565b602082019050919050565b600060208201905081810360008301526112468161120a565b9050919050565b60006060820190506112626000830186610dc1565b61126f6020830185610dc1565b61127c6040830184610d97565b949350505050565b600081519050919050565b600081905092915050565b60005b838110156112b857808201518184015260208101905061129d565b838111156112c7576000848401525b50505050565b60006112d882611284565b6112e2818561128f565b93506112f281856020860161129a565b80840191505092915050565b600061130a82846112cd565b915081905092915050565b60008151905061132481610e65565b92915050565b6000602082840312156113405761133f610bd3565b5b600061134e84828501611315565b91505092915050565b7f5354460000000000000000000000000000000000000000000000000000000000600082015250565b600061138d600383610ebe565b915061139882611357565b602082019050919050565b600060208201905081810360008301526113bc81611380565b9050919050565b60006040820190506113d86000830185610dc1565b6113e56020830184610d97565b9392505050565b7f5341000000000000000000000000000000000000000000000000000000000000600082015250565b6000611422600283610ebe565b915061142d826113ec565b602082019050919050565b6000602082019050818103600083015261145181611415565b905091905056fea264697066735822122032a01c40ec3ce980b466b50086f2d13e984b956fbe14a87f7f1d54a21f535f1064736f6c63430008090033",
  "linkReferences": {},
  "deployedLinkReferences": {}
}