{
  "_format": "hh-sol-artifact-1",
  "contractName": "Split",
  "sourceName": "contracts/Split.sol",
  "abi": [
    {
      "anonymous": false,
      "inputs": [
        {
          "indexed": true,
          "internalType": "uint256",
          "name": "index",
          "type": "uint256"
        },
        {
          "indexed": true,
          "internalType": "address",
          "name": "recipient",
          "type": "address"
        },
        {
          "indexed": true,
          "internalType": "address",
          "name": "debtor",
          "type": "address"
        },
        {
          "indexed": false,
          "internalType": "uint256",
          "name": "amountPaid",
          "type": "uint256"
        }
      ],
      "name": "DebtorPaid",
      "type": "event"
    },
    {
      "anonymous": false,
      "inputs": [
        {
          "indexed": true,
          "internalType": "uint256",
          "name": "index",
          "type": "uint256"
        },
        {
          "indexed": true,
          "internalType": "address",
          "name": "creator",
          "type": "address"
        },
        {
          "indexed": true,
          "internalType": "address",
          "name": "recipient",
          "type": "address"
        }
      ],
      "name": "ExpenseCancelled",
      "type": "event"
    },
    {
      "anonymous": false,
      "inputs": [
        {
          "indexed": true,
          "internalType": "uint256",
          "name": "index",
          "type": "uint256"
        },
        {
          "indexed": false,
          "internalType": "uint8",
          "name": "category",
          "type": "uint8"
        },
        {
          "indexed": false,
          "internalType": "uint8",
          "name": "status",
          "type": "uint8"
        },
        {
          "indexed": true,
          "internalType": "address",
          "name": "creator",
          "type": "address"
        },
        {
          "indexed": false,
          "internalType": "string",
          "name": "name",
          "type": "string"
        },
        {
          "indexed": false,
          "internalType": "string",
          "name": "description",
          "type": "string"
        },
        {
          "indexed": false,
          "internalType": "uint256",
          "name": "amount",
          "type": "uint256"
        }
      ],
      "name": "ExpenseCreated",
      "type": "event"
    },
    {
      "anonymous": false,
      "inputs": [
        {
          "indexed": true,
          "internalType": "address",
          "name": "previousOwner",
          "type": "address"
        },
        {
          "indexed": true,
          "internalType": "address",
          "name": "newOwner",
          "type": "address"
        }
      ],
      "name": "OwnershipTransferred",
      "type": "event"
    },
    {
      "anonymous": false,
      "inputs": [
        {
          "indexed": true,
          "internalType": "uint256",
          "name": "index",
          "type": "uint256"
        },
        {
          "indexed": true,
          "internalType": "address",
          "name": "recipient",
          "type": "address"
        }
      ],
      "name": "RecipientPaid",
      "type": "event"
    },
    {
      "inputs": [
        {
          "internalType": "string",
          "name": "_name",
          "type": "string"
        },
        {
          "internalType": "string",
          "name": "_description",
          "type": "string"
        },
        {
          "internalType": "uint256",
          "name": "_amount",
          "type": "uint256"
        },
        {
          "internalType": "address",
          "name": "_tokenAddress",
          "type": "address"
        },
        {
          "internalType": "enum Split.ExpenseCategory",
          "name": "_category",
          "type": "uint8"
        },
        {
          "internalType": "uint256",
          "name": "_paymentDue",
          "type": "uint256"
        },
        {
          "components": [
            {
              "internalType": "address",
              "name": "_address",
              "type": "address"
            }
          ],
          "internalType": "struct Split.Participant",
          "name": "_recipient",
          "type": "tuple"
        },
        {
          "components": [
            {
              "internalType": "address",
              "name": "_address",
              "type": "address"
            }
          ],
          "internalType": "struct Split.Participant",
          "name": "_creator",
          "type": "tuple"
        },
        {
          "components": [
            {
              "internalType": "address",
              "name": "_address",
              "type": "address"
            },
            {
              "internalType": "uint256",
              "name": "amount",
              "type": "uint256"
            }
          ],
          "internalType": "struct Split.DebtParticipant[]",
          "name": "_debtors",
          "type": "tuple[]"
        }
      ],
      "name": "createExpense",
      "outputs": [],
      "stateMutability": "nonpayable",
      "type": "function"
    },
    {
      "inputs": [
        {
          "internalType": "address",
          "name": "_creatorAddress",
          "type": "address"
        },
        {
          "internalType": "uint256",
          "name": "index",
          "type": "uint256"
        }
      ],
      "name": "getCreatedExpense",
      "outputs": [
        {
          "internalType": "string",
          "name": "",
          "type": "string"
        },
        {
          "internalType": "string",
          "name": "",
          "type": "string"
        },
        {
          "internalType": "enum Split.ExpenseCategory",
          "name": "",
          "type": "uint8"
        },
        {
          "internalType": "address",
          "name": "",
          "type": "address"
        },
        {
          "internalType": "uint256",
          "name": "",
          "type": "uint256"
        },
        {
          "internalType": "uint256",
          "name": "",
          "type": "uint256"
        },
        {
          "internalType": "uint256",
          "name": "",
          "type": "uint256"
        },
        {
          "internalType": "enum Split.ExpenseStatus",
          "name": "",
          "type": "uint8"
        },
        {
          "internalType": "address",
          "name": "",
          "type": "address"
        },
        {
          "internalType": "address",
          "name": "",
          "type": "address"
        },
        {
          "components": [
            {
              "internalType": "address",
              "name": "_address",
              "type": "address"
            },
            {
              "internalType": "uint256",
              "name": "amount",
              "type": "uint256"
            },
            {
              "internalType": "uint256",
              "name": "amountOut",
              "type": "uint256"
            },
            {
              "internalType": "bool",
              "name": "hasPaid",
              "type": "bool"
            },
            {
              "internalType": "uint256",
              "name": "paidAt",
              "type": "uint256"
            }
          ],
          "internalType": "struct Split.Debtor[]",
          "name": "",
          "type": "tuple[]"
        }
      ],
      "stateMutability": "view",
      "type": "function"
    },
    {
      "inputs": [
        {
          "internalType": "uint256",
          "name": "expenseId",
          "type": "uint256"
        },
        {
          "internalType": "address",
          "name": "_debtorAddress",
          "type": "address"
        }
      ],
      "name": "getDebt",
      "outputs": [
        {
          "internalType": "uint256",
          "name": "",
          "type": "uint256"
        }
      ],
      "stateMutability": "view",
      "type": "function"
    },
    {
      "inputs": [
        {
          "internalType": "address",
          "name": "_creatorAddress",
          "type": "address"
        }
      ],
      "name": "getNumberOfCreatedExpenses",
      "outputs": [
        {
          "internalType": "uint256",
          "name": "",
          "type": "uint256"
        }
      ],
      "stateMutability": "view",
      "type": "function"
    },
    {
      "inputs": [
        {
          "internalType": "address",
          "name": "_debtorAddress",
          "type": "address"
        }
      ],
      "name": "getNumberOfOwedExpenses",
      "outputs": [
        {
          "internalType": "uint256",
          "name": "",
          "type": "uint256"
        }
      ],
      "stateMutability": "view",
      "type": "function"
    },
    {
      "inputs": [
        {
          "internalType": "address",
          "name": "_debtorAddress",
          "type": "address"
        },
        {
          "internalType": "uint256",
          "name": "index",
          "type": "uint256"
        }
      ],
      "name": "getOwedExpense",
      "outputs": [
        {
          "internalType": "string",
          "name": "",
          "type": "string"
        },
        {
          "internalType": "string",
          "name": "",
          "type": "string"
        },
        {
          "internalType": "enum Split.ExpenseCategory",
          "name": "",
          "type": "uint8"
        },
        {
          "internalType": "address",
          "name": "",
          "type": "address"
        },
        {
          "internalType": "uint256",
          "name": "",
          "type": "uint256"
        },
        {
          "internalType": "uint256",
          "name": "",
          "type": "uint256"
        },
        {
          "internalType": "uint256",
          "name": "",
          "type": "uint256"
        },
        {
          "internalType": "enum Split.ExpenseStatus",
          "name": "",
          "type": "uint8"
        },
        {
          "internalType": "address",
          "name": "",
          "type": "address"
        },
        {
          "internalType": "address",
          "name": "",
          "type": "address"
        },
        {
          "components": [
            {
              "internalType": "address",
              "name": "_address",
              "type": "address"
            },
            {
              "internalType": "uint256",
              "name": "amount",
              "type": "uint256"
            },
            {
              "internalType": "uint256",
              "name": "amountOut",
              "type": "uint256"
            },
            {
              "internalType": "bool",
              "name": "hasPaid",
              "type": "bool"
            },
            {
              "internalType": "uint256",
              "name": "paidAt",
              "type": "uint256"
            }
          ],
          "internalType": "struct Split.Debtor[]",
          "name": "",
          "type": "tuple[]"
        }
      ],
      "stateMutability": "view",
      "type": "function"
    },
    {
      "inputs": [],
      "name": "owner",
      "outputs": [
        {
          "internalType": "address",
          "name": "",
          "type": "address"
        }
      ],
      "stateMutability": "view",
      "type": "function"
    },
    {
      "inputs": [
        {
          "internalType": "bool",
          "name": "status",
          "type": "bool"
        }
      ],
      "name": "pauseContract",
      "outputs": [],
      "stateMutability": "nonpayable",
      "type": "function"
    },
    {
      "inputs": [
        {
          "internalType": "address",
          "name": "fromAsset",
          "type": "address"
        },
        {
          "internalType": "uint24",
          "name": "poolFee",
          "type": "uint24"
        },
        {
          "internalType": "uint256",
          "name": "amountIn",
          "type": "uint256"
        },
        {
          "internalType": "uint256",
          "name": "index",
          "type": "uint256"
        }
      ],
      "name": "payDebt",
      "outputs": [],
      "stateMutability": "nonpayable",
      "type": "function"
    },
    {
      "inputs": [],
      "name": "renounceOwnership",
      "outputs": [],
      "stateMutability": "nonpayable",
      "type": "function"
    },
    {
      "inputs": [
        {
          "internalType": "address",
          "name": "_address",
          "type": "address"
        }
      ],
      "name": "setSwapContractAddress",
      "outputs": [],
      "stateMutability": "nonpayable",
      "type": "function"
    },
    {
      "inputs": [
        {
          "internalType": "address",
          "name": "newOwner",
          "type": "address"
        }
      ],
      "name": "transferOwnership",
      "outputs": [],
      "stateMutability": "nonpayable",
      "type": "function"
    }
  ],
  "bytecode": "0x608060405260008060146101000a81548160ff0219169083151502179055503480156200002b57600080fd5b506200004c620000406200005260201b60201c565b6200005a60201b60201c565b6200011e565b600033905090565b60008060009054906101000a900473ffffffffffffffffffffffffffffffffffffffff169050816000806101000a81548173ffffffffffffffffffffffffffffffffffffffff021916908373ffffffffffffffffffffffffffffffffffffffff1602179055508173ffffffffffffffffffffffffffffffffffffffff168173ffffffffffffffffffffffffffffffffffffffff167f8be0079c531659141344cd1fd0a4f28419497f9722a3daafe3b4186f6b6457e060405160405180910390a35050565b61312c806200012e6000396000f3fe608060405234801561001057600080fd5b50600436106100b45760003560e01c8063715018a611610071578063715018a6146101a75780638da5cb5b146101b1578063e272b892146101cf578063e3539674146101eb578063e9b28f1a1461021b578063f2fde38b14610255576100b4565b80631164927b146100b95780634c5eee1f146100e9578063539a6b2c146101235780636f0c51791461013f5780636faaf2231461015b57806370b4d9db14610177575b600080fd5b6100d360048036038101906100ce9190611e59565b610271565b6040516100e09190611e9f565b60405180910390f35b61010360048036038101906100fe9190611ee6565b610379565b60405161011a9b9a999897969594939291906121dd565b60405180910390f35b61013d60048036038101906101389190612550565b610722565b005b610159600480360381019061015491906126a9565b610f64565b005b61017560048036038101906101709190611e59565b6114b4565b005b610191600480360381019061018c9190611e59565b611570565b60405161019e9190611e9f565b60405180910390f35b6101af611678565b005b6101b961168c565b6040516101c69190612710565b60405180910390f35b6101e960048036038101906101e49190612757565b6116b5565b005b61020560048036038101906102009190612784565b6116da565b6040516102129190611e9f565b60405180910390f35b61023560048036038101906102309190611ee6565b6117a9565b60405161024c9b9a999897969594939291906121dd565b60405180910390f35b61026f600480360381019061026a9190611e59565b611b52565b005b60008060149054906101000a900460ff16156102c2576040517f08c379a00000000000000000000000000000000000000000000000000000000081526004016102b990612810565b60405180910390fd5b600073ffffffffffffffffffffffffffffffffffffffff168273ffffffffffffffffffffffffffffffffffffffff161415610332576040517f08c379a00000000000000000000000000000000000000000000000000000000081526004016103299061287c565b60405180910390fd5b600660008373ffffffffffffffffffffffffffffffffffffffff1673ffffffffffffffffffffffffffffffffffffffff168152602001908152602001600020549050919050565b6060806000806000806000806000806060600060149054906101000a900460ff16156103da576040517f08c379a00000000000000000000000000000000000000000000000000000000081526004016103d190612810565b60405180910390fd5b6000600360008f73ffffffffffffffffffffffffffffffffffffffff1673ffffffffffffffffffffffffffffffffffffffff16815260200190815260200160002060008e8152602001908152602001600020549050600060086000838152602001908152602001600020905080600001816001018260020160009054906101000a900460ff168360020160019054906101000a900473ffffffffffffffffffffffffffffffffffffffff168460030154856005015486600601548760070160009054906101000a900460ff168860080160000160009054906101000a900473ffffffffffffffffffffffffffffffffffffffff168960090160000160009054906101000a900473ffffffffffffffffffffffffffffffffffffffff168a600a018a8054610506906128cb565b80601f0160208091040260200160405190810160405280929190818152602001828054610532906128cb565b801561057f5780601f106105545761010080835404028352916020019161057f565b820191906000526020600020905b81548152906001019060200180831161056257829003601f168201915b50505050509a50898054610592906128cb565b80601f01602080910402602001604051908101604052809291908181526020018280546105be906128cb565b801561060b5780601f106105e05761010080835404028352916020019161060b565b820191906000526020600020905b8154815290600101906020018083116105ee57829003601f168201915b5050505050995080805480602002602001604051908101604052809291908181526020016000905b828210156106f457838290600052602060002090600502016040518060a00160405290816000820160009054906101000a900473ffffffffffffffffffffffffffffffffffffffff1673ffffffffffffffffffffffffffffffffffffffff1673ffffffffffffffffffffffffffffffffffffffff16815260200160018201548152602001600282015481526020016003820160009054906101000a900460ff1615151515815260200160048201548152505081526020019060010190610633565b5050505090509c509c509c509c509c509c509c509c509c509c509c5050509295989b509295989b9093969950565b600060149054906101000a900460ff1615610772576040517f08c379a000000000000000000000000000000000000000000000000000000000815260040161076990612810565b60405180910390fd5b60008951116107b6576040517f08c379a00000000000000000000000000000000000000000000000000000000081526004016107ad90612949565b60405180910390fd5b600087116107f9576040517f08c379a00000000000000000000000000000000000000000000000000000000081526004016107f0906129b5565b60405180910390fd5b600160009054906101000a900473ffffffffffffffffffffffffffffffffffffffff1673ffffffffffffffffffffffffffffffffffffffff16637e723266876040518263ffffffff1660e01b81526004016108549190612710565b60206040518083038186803b15801561086c57600080fd5b505afa158015610880573d6000803e3d6000fd5b505050506040513d601f19601f820116820180604052508101906108a491906129ea565b6108e3576040517f08c379a00000000000000000000000000000000000000000000000000000000081526004016108da90612a89565b60405180910390fd5b600073ffffffffffffffffffffffffffffffffffffffff16836000015173ffffffffffffffffffffffffffffffffffffffff161415610957576040517f08c379a000000000000000000000000000000000000000000000000000000000815260040161094e90612b1b565b60405180910390fd5b60006109636009611bd6565b905060006008600083815260200190815260200160002090508a816000019080519060200190610994929190611d44565b50898160010190805190602001906109ad929190611d44565b50888160030181905550878160020160016101000a81548173ffffffffffffffffffffffffffffffffffffffff021916908373ffffffffffffffffffffffffffffffffffffffff160217905550848160090160008201518160000160006101000a81548173ffffffffffffffffffffffffffffffffffffffff021916908373ffffffffffffffffffffffffffffffffffffffff160217905550905050838160080160008201518160000160006101000a81548173ffffffffffffffffffffffffffffffffffffffff021916908373ffffffffffffffffffffffffffffffffffffffff160217905550905050428160060181905550868160020160006101000a81548160ff02191690836003811115610ac857610ac7611fbf565b5b021790555060008160070160006101000a81548160ff02191690836002811115610af557610af4611fbf565b5b0217905550858160050181905550600081600401819055508160036000866000015173ffffffffffffffffffffffffffffffffffffffff1673ffffffffffffffffffffffffffffffffffffffff168152602001908152602001600020600060066000886000015173ffffffffffffffffffffffffffffffffffffffff1673ffffffffffffffffffffffffffffffffffffffff16815260200190815260200160002054815260200190815260200160002081905550600160066000866000015173ffffffffffffffffffffffffffffffffffffffff1673ffffffffffffffffffffffffffffffffffffffff1681526020019081526020016000206000828254610bfd9190612b6a565b9250508190555060005b8351811015610ebc576000848281518110610c2557610c24612bc0565b5b6020026020010151600001519050600073ffffffffffffffffffffffffffffffffffffffff168173ffffffffffffffffffffffffffffffffffffffff161415610ca3576040517f08c379a0000000000000000000000000000000000000000000000000000000008152600401610c9a90612c61565b60405180910390fd5b6000600760008373ffffffffffffffffffffffffffffffffffffffff1673ffffffffffffffffffffffffffffffffffffffff1681526020019081526020016000205490506001600760008473ffffffffffffffffffffffffffffffffffffffff1673ffffffffffffffffffffffffffffffffffffffff1681526020019081526020016000206000828254610d379190612b6a565b9250508190555084600460008473ffffffffffffffffffffffffffffffffffffffff1673ffffffffffffffffffffffffffffffffffffffff16815260200190815260200160002060008381526020019081526020016000208190555083600a016040518060a001604052808473ffffffffffffffffffffffffffffffffffffffff168152602001888681518110610dd157610dd0612bc0565b5b6020026020010151602001518152602001600081526020016000151581526020016000815250908060018154018082558091505060019003906000526020600020906005020160009091909190915060008201518160000160006101000a81548173ffffffffffffffffffffffffffffffffffffffff021916908373ffffffffffffffffffffffffffffffffffffffff160217905550602082015181600101556040820151816002015560608201518160030160006101000a81548160ff02191690831515021790555060808201518160040155505050508080610eb490612c81565b915050610c07565b50610ec76009611be4565b836000015173ffffffffffffffffffffffffffffffffffffffff16827f3c79d61c98469e21c55452f60f02d0300aa8fad7f856ffabfcc524d93e4bdfaf896003811115610f1757610f16611fbf565b5b8460070160009054906101000a900460ff166002811115610f3b57610f3a611fbf565b5b8f8f8f604051610f4f959493929190612ce6565b60405180910390a35050505050505050505050565b600160009054906101000a900473ffffffffffffffffffffffffffffffffffffffff1673ffffffffffffffffffffffffffffffffffffffff16637e723266856040518263ffffffff1660e01b8152600401610fbf9190612710565b60206040518083038186803b158015610fd757600080fd5b505afa158015610feb573d6000803e3d6000fd5b505050506040513d601f19601f8201168201806040525081019061100f91906129ea565b61104e576040517f08c379a000000000000000000000000000000000000000000000000000000000815260040161104590612d93565b60405180910390fd5b60008362ffffff1611611096576040517f08c379a000000000000000000000000000000000000000000000000000000000815260040161108d90612dff565b60405180910390fd5b600082116110d9576040517f08c379a00000000000000000000000000000000000000000000000000000000081526004016110d090612e6b565b60405180910390fd5b6000600160009054906101000a900473ffffffffffffffffffffffffffffffffffffffff1690506000600460003373ffffffffffffffffffffffffffffffffffffffff1673ffffffffffffffffffffffffffffffffffffffff16815260200190815260200160002060008481526020019081526020016000205490506000600860008381526020019081526020016000209050600061117883336116da565b9050600082600a01828154811061119257611191612bc0565b5b9060005260206000209060050201905060008573ffffffffffffffffffffffffffffffffffffffff16638b1ab4058b8660020160019054906101000a900473ffffffffffffffffffffffffffffffffffffffff1633308e8e6040518763ffffffff1660e01b815260040161120b96959493929190612e9a565b602060405180830381600087803b15801561122557600080fd5b505af1158015611239573d6000803e3d6000fd5b505050506040513d601f19601f8201168201806040525081019061125d9190612f10565b9050808260020160008282546112739190612b6a565b925050819055508084600401600082825461128e9190612b6a565b9250508190555081600101548260020154106112c25760018260030160006101000a81548160ff0219169083151502179055505b428260040181905550836003015484600401541061141b5760005b84600a018054905081101561132c57600085600a01828154811061130457611303612bc0565b5b906000526020600020906005020160020181905550808061132490612c81565b9150506112dd565b50600084600401549050600085600401819055508460020160019054906101000a900473ffffffffffffffffffffffffffffffffffffffff1673ffffffffffffffffffffffffffffffffffffffff1663a9059cbb8660090160000160009054906101000a900473ffffffffffffffffffffffffffffffffffffffff16836040518363ffffffff1660e01b81526004016113c6929190612f3d565b602060405180830381600087803b1580156113e057600080fd5b505af11580156113f4573d6000803e3d6000fd5b505050506040513d601f19601f8201168201806040525081019061141891906129ea565b50505b3373ffffffffffffffffffffffffffffffffffffffff168460090160000160009054906101000a900473ffffffffffffffffffffffffffffffffffffffff1673ffffffffffffffffffffffffffffffffffffffff16867f6e7b41b070de33dae21e20e9680390fd4a4cf1827dafb61fc22d9f0f724beed1846040516114a09190611e9f565b60405180910390a450505050505050505050565b6114bc611bfa565b600073ffffffffffffffffffffffffffffffffffffffff168173ffffffffffffffffffffffffffffffffffffffff16141561152c576040517f08c379a000000000000000000000000000000000000000000000000000000000815260040161152390612fd8565b60405180910390fd5b80600160006101000a81548173ffffffffffffffffffffffffffffffffffffffff021916908373ffffffffffffffffffffffffffffffffffffffff16021790555050565b60008060149054906101000a900460ff16156115c1576040517f08c379a00000000000000000000000000000000000000000000000000000000081526004016115b890612810565b60405180910390fd5b600073ffffffffffffffffffffffffffffffffffffffff168273ffffffffffffffffffffffffffffffffffffffff161415611631576040517f08c379a00000000000000000000000000000000000000000000000000000000081526004016116289061287c565b60405180910390fd5b600760008373ffffffffffffffffffffffffffffffffffffffff1673ffffffffffffffffffffffffffffffffffffffff168152602001908152602001600020549050919050565b611680611bfa565b61168a6000611c78565b565b60008060009054906101000a900473ffffffffffffffffffffffffffffffffffffffff16905090565b6116bd611bfa565b80600060146101000a81548160ff02191690831515021790555050565b60008060086000858152602001908152602001600020905060005b81600a018054905081101561179c578373ffffffffffffffffffffffffffffffffffffffff1682600a01828154811061173157611730612bc0565b5b906000526020600020906005020160000160009054906101000a900473ffffffffffffffffffffffffffffffffffffffff1673ffffffffffffffffffffffffffffffffffffffff1614156117895780925050506117a3565b808061179490612c81565b9150506116f5565b5060009150505b92915050565b6060806000806000806000806000806060600060149054906101000a900460ff161561180a576040517f08c379a000000000000000000000000000000000000000000000000000000000815260040161180190612810565b60405180910390fd5b6000600460008f73ffffffffffffffffffffffffffffffffffffffff1673ffffffffffffffffffffffffffffffffffffffff16815260200190815260200160002060008e8152602001908152602001600020549050600060086000838152602001908152602001600020905080600001816001018260020160009054906101000a900460ff168360020160019054906101000a900473ffffffffffffffffffffffffffffffffffffffff168460030154856005015486600601548760070160009054906101000a900460ff168860080160000160009054906101000a900473ffffffffffffffffffffffffffffffffffffffff168960090160000160009054906101000a900473ffffffffffffffffffffffffffffffffffffffff168a600a018a8054611936906128cb565b80601f0160208091040260200160405190810160405280929190818152602001828054611962906128cb565b80156119af5780601f10611984576101008083540402835291602001916119af565b820191906000526020600020905b81548152906001019060200180831161199257829003601f168201915b50505050509a508980546119c2906128cb565b80601f01602080910402602001604051908101604052809291908181526020018280546119ee906128cb565b8015611a3b5780601f10611a1057610100808354040283529160200191611a3b565b820191906000526020600020905b815481529060010190602001808311611a1e57829003601f168201915b5050505050995080805480602002602001604051908101604052809291908181526020016000905b82821015611b2457838290600052602060002090600502016040518060a00160405290816000820160009054906101000a900473ffffffffffffffffffffffffffffffffffffffff1673ffffffffffffffffffffffffffffffffffffffff1673ffffffffffffffffffffffffffffffffffffffff16815260200160018201548152602001600282015481526020016003820160009054906101000a900460ff1615151515815260200160048201548152505081526020019060010190611a63565b5050505090509c509c509c509c509c509c509c509c509c509c509c5050509295989b509295989b9093969950565b611b5a611bfa565b600073ffffffffffffffffffffffffffffffffffffffff168173ffffffffffffffffffffffffffffffffffffffff161415611bca576040517f08c379a0000000000000000000000000000000000000000000000000000000008152600401611bc19061306a565b60405180910390fd5b611bd381611c78565b50565b600081600001549050919050565b6001816000016000828254019250508190555050565b611c02611d3c565b73ffffffffffffffffffffffffffffffffffffffff16611c2061168c565b73ffffffffffffffffffffffffffffffffffffffff1614611c76576040517f08c379a0000000000000000000000000000000000000000000000000000000008152600401611c6d906130d6565b60405180910390fd5b565b60008060009054906101000a900473ffffffffffffffffffffffffffffffffffffffff169050816000806101000a81548173ffffffffffffffffffffffffffffffffffffffff021916908373ffffffffffffffffffffffffffffffffffffffff1602179055508173ffffffffffffffffffffffffffffffffffffffff168173ffffffffffffffffffffffffffffffffffffffff167f8be0079c531659141344cd1fd0a4f28419497f9722a3daafe3b4186f6b6457e060405160405180910390a35050565b600033905090565b828054611d50906128cb565b90600052602060002090601f016020900481019282611d725760008555611db9565b82601f10611d8b57805160ff1916838001178555611db9565b82800160010185558215611db9579182015b82811115611db8578251825591602001919060010190611d9d565b5b509050611dc69190611dca565b5090565b5b80821115611de3576000816000905550600101611dcb565b5090565b6000604051905090565b600080fd5b600080fd5b600073ffffffffffffffffffffffffffffffffffffffff82169050919050565b6000611e2682611dfb565b9050919050565b611e3681611e1b565b8114611e4157600080fd5b50565b600081359050611e5381611e2d565b92915050565b600060208284031215611e6f57611e6e611df1565b5b6000611e7d84828501611e44565b91505092915050565b6000819050919050565b611e9981611e86565b82525050565b6000602082019050611eb46000830184611e90565b92915050565b611ec381611e86565b8114611ece57600080fd5b50565b600081359050611ee081611eba565b92915050565b60008060408385031215611efd57611efc611df1565b5b6000611f0b85828601611e44565b9250506020611f1c85828601611ed1565b9150509250929050565b600081519050919050565b600082825260208201905092915050565b60005b83811015611f60578082015181840152602081019050611f45565b83811115611f6f576000848401525b50505050565b6000601f19601f8301169050919050565b6000611f9182611f26565b611f9b8185611f31565b9350611fab818560208601611f42565b611fb481611f75565b840191505092915050565b7f4e487b7100000000000000000000000000000000000000000000000000000000600052602160045260246000fd5b60048110611fff57611ffe611fbf565b5b50565b600081905061201082611fee565b919050565b600061202082612002565b9050919050565b61203081612015565b82525050565b61203f81611e1b565b82525050565b6003811061205657612055611fbf565b5b50565b600081905061206782612045565b919050565b600061207782612059565b9050919050565b6120878161206c565b82525050565b600081519050919050565b600082825260208201905092915050565b6000819050602082019050919050565b6120c281611e1b565b82525050565b6120d181611e86565b82525050565b60008115159050919050565b6120ec816120d7565b82525050565b60a08201600082015161210860008501826120b9565b50602082015161211b60208501826120c8565b50604082015161212e60408501826120c8565b50606082015161214160608501826120e3565b50608082015161215460808501826120c8565b50505050565b600061216683836120f2565b60a08301905092915050565b6000602082019050919050565b600061218a8261208d565b6121948185612098565b935061219f836120a9565b8060005b838110156121d05781516121b7888261215a565b97506121c283612172565b9250506001810190506121a3565b5085935050505092915050565b60006101608201905081810360008301526121f8818e611f86565b9050818103602083015261220c818d611f86565b905061221b604083018c612027565b612228606083018b612036565b612235608083018a611e90565b61224260a0830189611e90565b61224f60c0830188611e90565b61225c60e083018761207e565b61226a610100830186612036565b612278610120830185612036565b81810361014083015261228b818461217f565b90509c9b505050505050505050505050565b600080fd5b600080fd5b7f4e487b7100000000000000000000000000000000000000000000000000000000600052604160045260246000fd5b6122df82611f75565b810181811067ffffffffffffffff821117156122fe576122fd6122a7565b5b80604052505050565b6000612311611de7565b905061231d82826122d6565b919050565b600067ffffffffffffffff82111561233d5761233c6122a7565b5b61234682611f75565b9050602081019050919050565b82818337600083830152505050565b600061237561237084612322565b612307565b905082815260208101848484011115612391576123906122a2565b5b61239c848285612353565b509392505050565b600082601f8301126123b9576123b861229d565b5b81356123c9848260208601612362565b91505092915050565b600481106123df57600080fd5b50565b6000813590506123f1816123d2565b92915050565b600080fd5b600060208284031215612412576124116123f7565b5b61241c6020612307565b9050600061242c84828501611e44565b60008301525092915050565b600067ffffffffffffffff821115612453576124526122a7565b5b602082029050602081019050919050565b600080fd5b60006040828403121561247f5761247e6123f7565b5b6124896040612307565b9050600061249984828501611e44565b60008301525060206124ad84828501611ed1565b60208301525092915050565b60006124cc6124c784612438565b612307565b905080838252602082019050604084028301858111156124ef576124ee612464565b5b835b8181101561251857806125048882612469565b8452602084019350506040810190506124f1565b5050509392505050565b600082601f8301126125375761253661229d565b5b81356125478482602086016124b9565b91505092915050565b60008060008060008060008060006101208a8c03121561257357612572611df1565b5b60008a013567ffffffffffffffff81111561259157612590611df6565b5b61259d8c828d016123a4565b99505060208a013567ffffffffffffffff8111156125be576125bd611df6565b5b6125ca8c828d016123a4565b98505060406125db8c828d01611ed1565b97505060606125ec8c828d01611e44565b96505060806125fd8c828d016123e2565b95505060a061260e8c828d01611ed1565b94505060c061261f8c828d016123fc565b93505060e06126308c828d016123fc565b9250506101008a013567ffffffffffffffff81111561265257612651611df6565b5b61265e8c828d01612522565b9150509295985092959850929598565b600062ffffff82169050919050565b6126868161266e565b811461269157600080fd5b50565b6000813590506126a38161267d565b92915050565b600080600080608085870312156126c3576126c2611df1565b5b60006126d187828801611e44565b94505060206126e287828801612694565b93505060406126f387828801611ed1565b925050606061270487828801611ed1565b91505092959194509250565b60006020820190506127256000830184612036565b92915050565b612734816120d7565b811461273f57600080fd5b50565b6000813590506127518161272b565b92915050565b60006020828403121561276d5761276c611df1565b5b600061277b84828501612742565b91505092915050565b6000806040838503121561279b5761279a611df1565b5b60006127a985828601611ed1565b92505060206127ba85828601611e44565b9150509250929050565b7f436f6e7472616374206973207061757365640000000000000000000000000000600082015250565b60006127fa601283611f31565b9150612805826127c4565b602082019050919050565b60006020820190508181036000830152612829816127ed565b9050919050565b7f496e76616c696420616464726573730000000000000000000000000000000000600082015250565b6000612866600f83611f31565b915061287182612830565b602082019050919050565b6000602082019050818103600083015261289581612859565b9050919050565b7f4e487b7100000000000000000000000000000000000000000000000000000000600052602260045260246000fd5b600060028204905060018216806128e357607f821691505b602082108114156128f7576128f661289c565b5b50919050565b7f457870656e7365206e616d652069732072657175697265640000000000000000600082015250565b6000612933601883611f31565b915061293e826128fd565b602082019050919050565b6000602082019050818103600083015261296281612926565b9050919050565b7f616d6f756e74206d7573742062652067726561746572207468616e2030000000600082015250565b600061299f601d83611f31565b91506129aa82612969565b602082019050919050565b600060208201905081810360008301526129ce81612992565b9050919050565b6000815190506129e48161272b565b92915050565b600060208284031215612a00576129ff611df1565b5b6000612a0e848285016129d5565b91505092915050565b7f496e76616c696420746f6b656e2061646472657373206f7220454e53206e616d60008201527f6573000000000000000000000000000000000000000000000000000000000000602082015250565b6000612a73602283611f31565b9150612a7e82612a17565b604082019050919050565b60006020820190508181036000830152612aa281612a66565b9050919050565b7f496e76616c69642020726563697069656e742061646472657373206f7220454e60008201527f53206e616d657300000000000000000000000000000000000000000000000000602082015250565b6000612b05602783611f31565b9150612b1082612aa9565b604082019050919050565b60006020820190508181036000830152612b3481612af8565b9050919050565b7f4e487b7100000000000000000000000000000000000000000000000000000000600052601160045260246000fd5b6000612b7582611e86565b9150612b8083611e86565b9250827fffffffffffffffffffffffffffffffffffffffffffffffffffffffffffffffff03821115612bb557612bb4612b3b565b5b828201905092915050565b7f4e487b7100000000000000000000000000000000000000000000000000000000600052603260045260246000fd5b7f696e76616c6964206164647265737320646562746f72206f7220454e53206e6160008201527f6d65000000000000000000000000000000000000000000000000000000000000602082015250565b6000612c4b602283611f31565b9150612c5682612bef565b604082019050919050565b60006020820190508181036000830152612c7a81612c3e565b9050919050565b6000612c8c82611e86565b91507fffffffffffffffffffffffffffffffffffffffffffffffffffffffffffffffff821415612cbf57612cbe612b3b565b5b600182019050919050565b600060ff82169050919050565b612ce081612cca565b82525050565b600060a082019050612cfb6000830188612cd7565b612d086020830187612cd7565b8181036040830152612d1a8186611f86565b90508181036060830152612d2e8185611f86565b9050612d3d6080830184611e90565b9695505050505050565b7f496e76616c696420617373657420616464726573730000000000000000000000600082015250565b6000612d7d601583611f31565b9150612d8882612d47565b602082019050919050565b60006020820190508181036000830152612dac81612d70565b9050919050565b7f506f6f6c20666565206973206e6f7420656e6f75676800000000000000000000600082015250565b6000612de9601683611f31565b9150612df482612db3565b602082019050919050565b60006020820190508181036000830152612e1881612ddc565b9050919050565b7f416d6f756e742073656e74206973206e6f7420656e6f75676800000000000000600082015250565b6000612e55601983611f31565b9150612e6082612e1f565b602082019050919050565b60006020820190508181036000830152612e8481612e48565b9050919050565b612e948161266e565b82525050565b600060c082019050612eaf6000830189612036565b612ebc6020830188612036565b612ec96040830187612036565b612ed66060830186612036565b612ee36080830185612e8b565b612ef060a0830184611e90565b979650505050505050565b600081519050612f0a81611eba565b92915050565b600060208284031215612f2657612f25611df1565b5b6000612f3484828501612efb565b91505092915050565b6000604082019050612f526000830185612036565b612f5f6020830184611e90565b9392505050565b7f5377617020636f6e747261637420616464726573732063616e6e6f742062652060008201527f3078300000000000000000000000000000000000000000000000000000000000602082015250565b6000612fc2602383611f31565b9150612fcd82612f66565b604082019050919050565b60006020820190508181036000830152612ff181612fb5565b9050919050565b7f4f776e61626c653a206e6577206f776e657220697320746865207a65726f206160008201527f6464726573730000000000000000000000000000000000000000000000000000602082015250565b6000613054602683611f31565b915061305f82612ff8565b604082019050919050565b6000602082019050818103600083015261308381613047565b9050919050565b7f4f776e61626c653a2063616c6c6572206973206e6f7420746865206f776e6572600082015250565b60006130c0602083611f31565b91506130cb8261308a565b602082019050919050565b600060208201905081810360008301526130ef816130b3565b905091905056fea2646970667358221220a402b77ce061e8657f2f6ba496397b61f2e86f8c941cad6ed2769f78da7e508464736f6c63430008090033",
  "linkReferences": {},
  "deployedLinkReferences": {}
}