{
  "address": "0xC10DFcc06b37660446cB99a7A2800469F8D58fE5",
  "_format": "hh-sol-artifact-1",
  "contractName": "Split",
  "sourceName": "contracts/Split.sol",
  "abi": [
    {
      "anonymous": false,
      "inputs": [
        {
          "indexed": true,
          "internalType": "uint256",
          "name": "index",
          "type": "uint256"
        },
        {
          "indexed": true,
          "internalType": "address",
          "name": "recipient",
          "type": "address"
        },
        {
          "indexed": true,
          "internalType": "address",
          "name": "debtor",
          "type": "address"
        },
        {
          "indexed": false,
          "internalType": "uint256",
          "name": "amountPaid",
          "type": "uint256"
        }
      ],
      "name": "DebtorPaid",
      "type": "event"
    },
    {
      "anonymous": false,
      "inputs": [
        {
          "indexed": true,
          "internalType": "uint256",
          "name": "index",
          "type": "uint256"
        },
        {
          "indexed": true,
          "internalType": "address",
          "name": "creator",
          "type": "address"
        },
        {
          "indexed": true,
          "internalType": "address",
          "name": "recipient",
          "type": "address"
        }
      ],
      "name": "ExpenseCancelled",
      "type": "event"
    },
    {
      "anonymous": false,
      "inputs": [
        {
          "indexed": true,
          "internalType": "uint256",
          "name": "index",
          "type": "uint256"
        },
        {
          "indexed": false,
          "internalType": "uint8",
          "name": "category",
          "type": "uint8"
        },
        {
          "indexed": false,
          "internalType": "uint8",
          "name": "status",
          "type": "uint8"
        },
        {
          "indexed": true,
          "internalType": "address",
          "name": "creator",
          "type": "address"
        },
        {
          "indexed": false,
          "internalType": "string",
          "name": "name",
          "type": "string"
        },
        {
          "indexed": false,
          "internalType": "string",
          "name": "description",
          "type": "string"
        },
        {
          "indexed": false,
          "internalType": "uint256",
          "name": "amount",
          "type": "uint256"
        }
      ],
      "name": "ExpenseCreated",
      "type": "event"
    },
    {
      "anonymous": false,
      "inputs": [
        {
          "indexed": true,
          "internalType": "address",
          "name": "previousOwner",
          "type": "address"
        },
        {
          "indexed": true,
          "internalType": "address",
          "name": "newOwner",
          "type": "address"
        }
      ],
      "name": "OwnershipTransferred",
      "type": "event"
    },
    {
      "anonymous": false,
      "inputs": [
        {
          "indexed": true,
          "internalType": "uint256",
          "name": "index",
          "type": "uint256"
        },
        {
          "indexed": true,
          "internalType": "address",
          "name": "recipient",
          "type": "address"
        }
      ],
      "name": "RecipientPaid",
      "type": "event"
    },
    {
      "inputs": [
        {
          "internalType": "string",
          "name": "_name",
          "type": "string"
        },
        {
          "internalType": "string",
          "name": "_description",
          "type": "string"
        },
        {
          "internalType": "uint256",
          "name": "_amount",
          "type": "uint256"
        },
        {
          "internalType": "address",
          "name": "_tokenAddress",
          "type": "address"
        },
        {
          "internalType": "enum Split.ExpenseCategory",
          "name": "_category",
          "type": "uint8"
        },
        {
          "internalType": "uint256",
          "name": "_paymentDue",
          "type": "uint256"
        },
        {
          "components": [
            {
              "internalType": "address",
              "name": "_address",
              "type": "address"
            }
          ],
          "internalType": "struct Split.Participant",
          "name": "_recipient",
          "type": "tuple"
        },
        {
          "components": [
            {
              "internalType": "address",
              "name": "_address",
              "type": "address"
            }
          ],
          "internalType": "struct Split.Participant",
          "name": "_creator",
          "type": "tuple"
        },
        {
          "components": [
            {
              "internalType": "address",
              "name": "_address",
              "type": "address"
            },
            {
              "internalType": "uint256",
              "name": "amount",
              "type": "uint256"
            }
          ],
          "internalType": "struct Split.DebtParticipant[]",
          "name": "_debtors",
          "type": "tuple[]"
        }
      ],
      "name": "createExpense",
      "outputs": [],
      "stateMutability": "nonpayable",
      "type": "function"
    },
    {
      "inputs": [
        {
          "internalType": "address",
          "name": "_creatorAddress",
          "type": "address"
        },
        {
          "internalType": "uint256",
          "name": "index",
          "type": "uint256"
        }
      ],
      "name": "getCreatedExpense",
      "outputs": [
        {
          "internalType": "string",
          "name": "",
          "type": "string"
        },
        {
          "internalType": "string",
          "name": "",
          "type": "string"
        },
        {
          "internalType": "enum Split.ExpenseCategory",
          "name": "",
          "type": "uint8"
        },
        {
          "internalType": "uint256",
          "name": "",
          "type": "uint256"
        },
        {
          "internalType": "address",
          "name": "",
          "type": "address"
        },
        {
          "internalType": "enum Split.ExpenseStatus",
          "name": "",
          "type": "uint8"
        },
        {
          "internalType": "uint256",
          "name": "",
          "type": "uint256"
        },
        {
          "internalType": "uint256",
          "name": "",
          "type": "uint256"
        }
      ],
      "stateMutability": "view",
      "type": "function"
    },
    {
      "inputs": [
        {
          "internalType": "uint256",
          "name": "expenseId",
          "type": "uint256"
        },
        {
          "internalType": "address",
          "name": "_debtorAddress",
          "type": "address"
        }
      ],
      "name": "getDebt",
      "outputs": [
        {
          "internalType": "uint256",
          "name": "",
          "type": "uint256"
        }
      ],
      "stateMutability": "view",
      "type": "function"
    },
    {
      "inputs": [
        {
          "internalType": "address",
          "name": "_creatorAddress",
          "type": "address"
        }
      ],
      "name": "getNumberOfCreatedExpenses",
      "outputs": [
        {
          "internalType": "uint256",
          "name": "",
          "type": "uint256"
        }
      ],
      "stateMutability": "view",
      "type": "function"
    },
    {
      "inputs": [
        {
          "internalType": "address",
          "name": "_debtorAddress",
          "type": "address"
        }
      ],
      "name": "getNumberOfOwedExpenses",
      "outputs": [
        {
          "internalType": "uint256",
          "name": "",
          "type": "uint256"
        }
      ],
      "stateMutability": "view",
      "type": "function"
    },
    {
      "inputs": [
        {
          "internalType": "address",
          "name": "_debtorAddress",
          "type": "address"
        },
        {
          "internalType": "uint256",
          "name": "index",
          "type": "uint256"
        }
      ],
      "name": "getOwedExpense",
      "outputs": [
        {
          "internalType": "string",
          "name": "",
          "type": "string"
        },
        {
          "internalType": "string",
          "name": "",
          "type": "string"
        },
        {
          "internalType": "enum Split.ExpenseCategory",
          "name": "",
          "type": "uint8"
        },
        {
          "internalType": "uint256",
          "name": "",
          "type": "uint256"
        },
        {
          "internalType": "bool",
          "name": "",
          "type": "bool"
        },
        {
          "internalType": "uint256",
          "name": "",
          "type": "uint256"
        },
        {
          "internalType": "enum Split.ExpenseStatus",
          "name": "",
          "type": "uint8"
        },
        {
          "internalType": "uint256",
          "name": "",
          "type": "uint256"
        },
        {
          "internalType": "uint256",
          "name": "",
          "type": "uint256"
        }
      ],
      "stateMutability": "view",
      "type": "function"
    },
    {
      "inputs": [],
      "name": "owner",
      "outputs": [
        {
          "internalType": "address",
          "name": "",
          "type": "address"
        }
      ],
      "stateMutability": "view",
      "type": "function"
    },
    {
      "inputs": [
        {
          "internalType": "bool",
          "name": "status",
          "type": "bool"
        }
      ],
      "name": "pauseContract",
      "outputs": [],
      "stateMutability": "nonpayable",
      "type": "function"
    },
    {
      "inputs": [
        {
          "internalType": "address",
          "name": "fromAsset",
          "type": "address"
        },
        {
          "internalType": "uint24",
          "name": "poolFee",
          "type": "uint24"
        },
        {
          "internalType": "uint256",
          "name": "amountIn",
          "type": "uint256"
        },
        {
          "internalType": "uint256",
          "name": "index",
          "type": "uint256"
        }
      ],
      "name": "payDebt",
      "outputs": [],
      "stateMutability": "nonpayable",
      "type": "function"
    },
    {
      "inputs": [],
      "name": "renounceOwnership",
      "outputs": [],
      "stateMutability": "nonpayable",
      "type": "function"
    },
    {
      "inputs": [
        {
          "internalType": "address",
          "name": "_address",
          "type": "address"
        }
      ],
      "name": "setSwapContractAddress",
      "outputs": [],
      "stateMutability": "nonpayable",
      "type": "function"
    },
    {
      "inputs": [
        {
          "internalType": "address",
          "name": "newOwner",
          "type": "address"
        }
      ],
      "name": "transferOwnership",
      "outputs": [],
      "stateMutability": "nonpayable",
      "type": "function"
    }
  ],
  "bytecode": "0x608060405260008060146101000a81548160ff0219169083151502179055503480156200002b57600080fd5b506200004c620000406200005260201b60201c565b6200005a60201b60201c565b6200011e565b600033905090565b60008060009054906101000a900473ffffffffffffffffffffffffffffffffffffffff169050816000806101000a81548173ffffffffffffffffffffffffffffffffffffffff021916908373ffffffffffffffffffffffffffffffffffffffff1602179055508173ffffffffffffffffffffffffffffffffffffffff168173ffffffffffffffffffffffffffffffffffffffff167f8be0079c531659141344cd1fd0a4f28419497f9722a3daafe3b4186f6b6457e060405160405180910390a35050565b612ef0806200012e6000396000f3fe608060405234801561001057600080fd5b50600436106100b45760003560e01c8063715018a611610071578063715018a6146101a45780638da5cb5b146101ae578063e272b892146101cc578063e3539674146101e8578063e9b28f1a14610218578063f2fde38b14610250576100b4565b80631164927b146100b95780634c5eee1f146100e9578063539a6b2c146101205780636f0c51791461013c5780636faaf2231461015857806370b4d9db14610174575b600080fd5b6100d360048036038101906100ce9190611c7f565b61026c565b6040516100e09190611cc5565b60405180910390f35b61010360048036038101906100fe9190611d0c565b610374565b604051610117989796959493929190611eb3565b60405180910390f35b61013a600480360381019061013591906121f2565b6105d3565b005b6101566004803603810190610151919061234b565b610e15565b005b610172600480360381019061016d9190611c7f565b611365565b005b61018e60048036038101906101899190611c7f565b611421565b60405161019b9190611cc5565b60405180910390f35b6101ac611529565b005b6101b661153d565b6040516101c391906123b2565b60405180910390f35b6101e660048036038101906101e19190612405565b611566565b005b61020260048036038101906101fd9190612432565b61158b565b60405161020f9190611cc5565b60405180910390f35b610232600480360381019061022d9190611d0c565b61165a565b60405161024799989796959493929190612481565b60405180910390f35b61026a60048036038101906102659190611c7f565b611978565b005b60008060149054906101000a900460ff16156102bd576040517f08c379a00000000000000000000000000000000000000000000000000000000081526004016102b490612568565b60405180910390fd5b600073ffffffffffffffffffffffffffffffffffffffff168273ffffffffffffffffffffffffffffffffffffffff16141561032d576040517f08c379a0000000000000000000000000000000000000000000000000000000008152600401610324906125d4565b60405180910390fd5b600660008373ffffffffffffffffffffffffffffffffffffffff1673ffffffffffffffffffffffffffffffffffffffff168152602001908152602001600020549050919050565b606080600080600080600080600060149054906101000a900460ff16156103d0576040517f08c379a00000000000000000000000000000000000000000000000000000000081526004016103c790612568565b60405180910390fd5b6000600360008c73ffffffffffffffffffffffffffffffffffffffff1673ffffffffffffffffffffffffffffffffffffffff16815260200190815260200160002060008b8152602001908152602001600020549050600060086000838152602001908152602001600020905080600001816001018260020160009054906101000a900460ff1683600301548460020160019054906101000a900473ffffffffffffffffffffffffffffffffffffffff168560070160009054906101000a900460ff16866005015487600601548780546104a890612623565b80601f01602080910402602001604051908101604052809291908181526020018280546104d490612623565b80156105215780601f106104f657610100808354040283529160200191610521565b820191906000526020600020905b81548152906001019060200180831161050457829003601f168201915b5050505050975086805461053490612623565b80601f016020809104026020016040519081016040528092919081815260200182805461056090612623565b80156105ad5780601f10610582576101008083540402835291602001916105ad565b820191906000526020600020905b81548152906001019060200180831161059057829003601f168201915b505050505096509950995099509950995099509950995050509295985092959890939650565b600060149054906101000a900460ff1615610623576040517f08c379a000000000000000000000000000000000000000000000000000000000815260040161061a90612568565b60405180910390fd5b6000895111610667576040517f08c379a000000000000000000000000000000000000000000000000000000000815260040161065e906126a1565b60405180910390fd5b600087116106aa576040517f08c379a00000000000000000000000000000000000000000000000000000000081526004016106a19061270d565b60405180910390fd5b600160009054906101000a900473ffffffffffffffffffffffffffffffffffffffff1673ffffffffffffffffffffffffffffffffffffffff16637e723266876040518263ffffffff1660e01b815260040161070591906123b2565b60206040518083038186803b15801561071d57600080fd5b505afa158015610731573d6000803e3d6000fd5b505050506040513d601f19601f820116820180604052508101906107559190612742565b610794576040517f08c379a000000000000000000000000000000000000000000000000000000000815260040161078b906127e1565b60405180910390fd5b600073ffffffffffffffffffffffffffffffffffffffff16836000015173ffffffffffffffffffffffffffffffffffffffff161415610808576040517f08c379a00000000000000000000000000000000000000000000000000000000081526004016107ff90612873565b60405180910390fd5b600061081460096119fc565b905060006008600083815260200190815260200160002090508a816000019080519060200190610845929190611b6a565b508981600101908051906020019061085e929190611b6a565b50888160030181905550878160020160016101000a81548173ffffffffffffffffffffffffffffffffffffffff021916908373ffffffffffffffffffffffffffffffffffffffff160217905550848160090160008201518160000160006101000a81548173ffffffffffffffffffffffffffffffffffffffff021916908373ffffffffffffffffffffffffffffffffffffffff160217905550905050838160080160008201518160000160006101000a81548173ffffffffffffffffffffffffffffffffffffffff021916908373ffffffffffffffffffffffffffffffffffffffff160217905550905050428160060181905550868160020160006101000a81548160ff0219169083600381111561097957610978611de5565b5b021790555060008160070160006101000a81548160ff021916908360028111156109a6576109a5611de5565b5b0217905550858160050181905550600081600401819055508160036000866000015173ffffffffffffffffffffffffffffffffffffffff1673ffffffffffffffffffffffffffffffffffffffff168152602001908152602001600020600060066000886000015173ffffffffffffffffffffffffffffffffffffffff1673ffffffffffffffffffffffffffffffffffffffff16815260200190815260200160002054815260200190815260200160002081905550600160066000866000015173ffffffffffffffffffffffffffffffffffffffff1673ffffffffffffffffffffffffffffffffffffffff1681526020019081526020016000206000828254610aae91906128c2565b9250508190555060005b8351811015610d6d576000848281518110610ad657610ad5612918565b5b6020026020010151600001519050600073ffffffffffffffffffffffffffffffffffffffff168173ffffffffffffffffffffffffffffffffffffffff161415610b54576040517f08c379a0000000000000000000000000000000000000000000000000000000008152600401610b4b906129b9565b60405180910390fd5b6000600760008373ffffffffffffffffffffffffffffffffffffffff1673ffffffffffffffffffffffffffffffffffffffff1681526020019081526020016000205490506001600760008473ffffffffffffffffffffffffffffffffffffffff1673ffffffffffffffffffffffffffffffffffffffff1681526020019081526020016000206000828254610be891906128c2565b9250508190555084600460008473ffffffffffffffffffffffffffffffffffffffff1673ffffffffffffffffffffffffffffffffffffffff16815260200190815260200160002060008381526020019081526020016000208190555083600a016040518060a001604052808473ffffffffffffffffffffffffffffffffffffffff168152602001888681518110610c8257610c81612918565b5b6020026020010151602001518152602001600081526020016000151581526020016000815250908060018154018082558091505060019003906000526020600020906005020160009091909190915060008201518160000160006101000a81548173ffffffffffffffffffffffffffffffffffffffff021916908373ffffffffffffffffffffffffffffffffffffffff160217905550602082015181600101556040820151816002015560608201518160030160006101000a81548160ff02191690831515021790555060808201518160040155505050508080610d65906129d9565b915050610ab8565b50610d786009611a0a565b836000015173ffffffffffffffffffffffffffffffffffffffff16827f3c79d61c98469e21c55452f60f02d0300aa8fad7f856ffabfcc524d93e4bdfaf896003811115610dc857610dc7611de5565b5b8460070160009054906101000a900460ff166002811115610dec57610deb611de5565b5b8f8f8f604051610e00959493929190612a3e565b60405180910390a35050505050505050505050565b600160009054906101000a900473ffffffffffffffffffffffffffffffffffffffff1673ffffffffffffffffffffffffffffffffffffffff16637e723266856040518263ffffffff1660e01b8152600401610e7091906123b2565b60206040518083038186803b158015610e8857600080fd5b505afa158015610e9c573d6000803e3d6000fd5b505050506040513d601f19601f82011682018060405250810190610ec09190612742565b610eff576040517f08c379a0000000000000000000000000000000000000000000000000000000008152600401610ef690612aeb565b60405180910390fd5b60008362ffffff1611610f47576040517f08c379a0000000000000000000000000000000000000000000000000000000008152600401610f3e90612b57565b60405180910390fd5b60008211610f8a576040517f08c379a0000000000000000000000000000000000000000000000000000000008152600401610f8190612bc3565b60405180910390fd5b6000600160009054906101000a900473ffffffffffffffffffffffffffffffffffffffff1690506000600460003373ffffffffffffffffffffffffffffffffffffffff1673ffffffffffffffffffffffffffffffffffffffff168152602001908152602001600020600084815260200190815260200160002054905060006008600083815260200190815260200160002090506000611029833361158b565b9050600082600a01828154811061104357611042612918565b5b9060005260206000209060050201905060008573ffffffffffffffffffffffffffffffffffffffff16638b1ab4058b8660020160019054906101000a900473ffffffffffffffffffffffffffffffffffffffff1633308e8e6040518763ffffffff1660e01b81526004016110bc96959493929190612bf2565b602060405180830381600087803b1580156110d657600080fd5b505af11580156110ea573d6000803e3d6000fd5b505050506040513d601f19601f8201168201806040525081019061110e9190612c68565b90508082600201600082825461112491906128c2565b925050819055508084600401600082825461113f91906128c2565b9250508190555081600101548260020154106111735760018260030160006101000a81548160ff0219169083151502179055505b42826004018190555083600301548460040154106112cc5760005b84600a01805490508110156111dd57600085600a0182815481106111b5576111b4612918565b5b90600052602060002090600502016002018190555080806111d5906129d9565b91505061118e565b50600084600401549050600085600401819055508460020160019054906101000a900473ffffffffffffffffffffffffffffffffffffffff1673ffffffffffffffffffffffffffffffffffffffff1663a9059cbb8660090160000160009054906101000a900473ffffffffffffffffffffffffffffffffffffffff16836040518363ffffffff1660e01b8152600401611277929190612c95565b602060405180830381600087803b15801561129157600080fd5b505af11580156112a5573d6000803e3d6000fd5b505050506040513d601f19601f820116820180604052508101906112c99190612742565b50505b3373ffffffffffffffffffffffffffffffffffffffff168460090160000160009054906101000a900473ffffffffffffffffffffffffffffffffffffffff1673ffffffffffffffffffffffffffffffffffffffff16867f6e7b41b070de33dae21e20e9680390fd4a4cf1827dafb61fc22d9f0f724beed1846040516113519190611cc5565b60405180910390a450505050505050505050565b61136d611a20565b600073ffffffffffffffffffffffffffffffffffffffff168173ffffffffffffffffffffffffffffffffffffffff1614156113dd576040517f08c379a00000000000000000000000000000000000000000000000000000000081526004016113d490612d30565b60405180910390fd5b80600160006101000a81548173ffffffffffffffffffffffffffffffffffffffff021916908373ffffffffffffffffffffffffffffffffffffffff16021790555050565b60008060149054906101000a900460ff1615611472576040517f08c379a000000000000000000000000000000000000000000000000000000000815260040161146990612568565b60405180910390fd5b600073ffffffffffffffffffffffffffffffffffffffff168273ffffffffffffffffffffffffffffffffffffffff1614156114e2576040517f08c379a00000000000000000000000000000000000000000000000000000000081526004016114d9906125d4565b60405180910390fd5b600760008373ffffffffffffffffffffffffffffffffffffffff1673ffffffffffffffffffffffffffffffffffffffff168152602001908152602001600020549050919050565b611531611a20565b61153b6000611a9e565b565b60008060009054906101000a900473ffffffffffffffffffffffffffffffffffffffff16905090565b61156e611a20565b80600060146101000a81548160ff02191690831515021790555050565b60008060086000858152602001908152602001600020905060005b81600a018054905081101561164d578373ffffffffffffffffffffffffffffffffffffffff1682600a0182815481106115e2576115e1612918565b5b906000526020600020906005020160000160009054906101000a900473ffffffffffffffffffffffffffffffffffffffff1673ffffffffffffffffffffffffffffffffffffffff16141561163a578092505050611654565b8080611645906129d9565b9150506115a6565b5060009150505b92915050565b60608060008060008060008060008060149054906101000a900460ff16156116b7576040517f08c379a00000000000000000000000000000000000000000000000000000000081526004016116ae90612568565b60405180910390fd5b6000600460008d73ffffffffffffffffffffffffffffffffffffffff1673ffffffffffffffffffffffffffffffffffffffff16815260200190815260200160002060008c81526020019081526020016000205490506000600860008381526020019081526020016000209050600061172f838f61158b565b9050600082600a01828154811061174957611748612918565b5b906000526020600020906005020190508e73ffffffffffffffffffffffffffffffffffffffff168160000160009054906101000a900473ffffffffffffffffffffffffffffffffffffffff1673ffffffffffffffffffffffffffffffffffffffff16146117eb576040517f08c379a00000000000000000000000000000000000000000000000000000000081526004016117e290612d9c565b60405180910390fd5b82600001836001018460020160009054906101000a900460ff1683600101548460030160009054906101000a900460ff1685600401548860070160009054906101000a900460ff1689600501548a6006015488805461184990612623565b80601f016020809104026020016040519081016040528092919081815260200182805461187590612623565b80156118c25780601f10611897576101008083540402835291602001916118c2565b820191906000526020600020905b8154815290600101906020018083116118a557829003601f168201915b505050505098508780546118d590612623565b80601f016020809104026020016040519081016040528092919081815260200182805461190190612623565b801561194e5780601f106119235761010080835404028352916020019161194e565b820191906000526020600020905b81548152906001019060200180831161193157829003601f168201915b505050505097509c509c509c509c509c509c509c509c509c50505050509295985092959850929598565b611980611a20565b600073ffffffffffffffffffffffffffffffffffffffff168173ffffffffffffffffffffffffffffffffffffffff1614156119f0576040517f08c379a00000000000000000000000000000000000000000000000000000000081526004016119e790612e2e565b60405180910390fd5b6119f981611a9e565b50565b600081600001549050919050565b6001816000016000828254019250508190555050565b611a28611b62565b73ffffffffffffffffffffffffffffffffffffffff16611a4661153d565b73ffffffffffffffffffffffffffffffffffffffff1614611a9c576040517f08c379a0000000000000000000000000000000000000000000000000000000008152600401611a9390612e9a565b60405180910390fd5b565b60008060009054906101000a900473ffffffffffffffffffffffffffffffffffffffff169050816000806101000a81548173ffffffffffffffffffffffffffffffffffffffff021916908373ffffffffffffffffffffffffffffffffffffffff1602179055508173ffffffffffffffffffffffffffffffffffffffff168173ffffffffffffffffffffffffffffffffffffffff167f8be0079c531659141344cd1fd0a4f28419497f9722a3daafe3b4186f6b6457e060405160405180910390a35050565b600033905090565b828054611b7690612623565b90600052602060002090601f016020900481019282611b985760008555611bdf565b82601f10611bb157805160ff1916838001178555611bdf565b82800160010185558215611bdf579182015b82811115611bde578251825591602001919060010190611bc3565b5b509050611bec9190611bf0565b5090565b5b80821115611c09576000816000905550600101611bf1565b5090565b6000604051905090565b600080fd5b600080fd5b600073ffffffffffffffffffffffffffffffffffffffff82169050919050565b6000611c4c82611c21565b9050919050565b611c5c81611c41565b8114611c6757600080fd5b50565b600081359050611c7981611c53565b92915050565b600060208284031215611c9557611c94611c17565b5b6000611ca384828501611c6a565b91505092915050565b6000819050919050565b611cbf81611cac565b82525050565b6000602082019050611cda6000830184611cb6565b92915050565b611ce981611cac565b8114611cf457600080fd5b50565b600081359050611d0681611ce0565b92915050565b60008060408385031215611d2357611d22611c17565b5b6000611d3185828601611c6a565b9250506020611d4285828601611cf7565b9150509250929050565b600081519050919050565b600082825260208201905092915050565b60005b83811015611d86578082015181840152602081019050611d6b565b83811115611d95576000848401525b50505050565b6000601f19601f8301169050919050565b6000611db782611d4c565b611dc18185611d57565b9350611dd1818560208601611d68565b611dda81611d9b565b840191505092915050565b7f4e487b7100000000000000000000000000000000000000000000000000000000600052602160045260246000fd5b60048110611e2557611e24611de5565b5b50565b6000819050611e3682611e14565b919050565b6000611e4682611e28565b9050919050565b611e5681611e3b565b82525050565b611e6581611c41565b82525050565b60038110611e7c57611e7b611de5565b5b50565b6000819050611e8d82611e6b565b919050565b6000611e9d82611e7f565b9050919050565b611ead81611e92565b82525050565b6000610100820190508181036000830152611ece818b611dac565b90508181036020830152611ee2818a611dac565b9050611ef16040830189611e4d565b611efe6060830188611cb6565b611f0b6080830187611e5c565b611f1860a0830186611ea4565b611f2560c0830185611cb6565b611f3260e0830184611cb6565b9998505050505050505050565b600080fd5b600080fd5b7f4e487b7100000000000000000000000000000000000000000000000000000000600052604160045260246000fd5b611f8182611d9b565b810181811067ffffffffffffffff82111715611fa057611f9f611f49565b5b80604052505050565b6000611fb3611c0d565b9050611fbf8282611f78565b919050565b600067ffffffffffffffff821115611fdf57611fde611f49565b5b611fe882611d9b565b9050602081019050919050565b82818337600083830152505050565b600061201761201284611fc4565b611fa9565b90508281526020810184848401111561203357612032611f44565b5b61203e848285611ff5565b509392505050565b600082601f83011261205b5761205a611f3f565b5b813561206b848260208601612004565b91505092915050565b6004811061208157600080fd5b50565b60008135905061209381612074565b92915050565b600080fd5b6000602082840312156120b4576120b3612099565b5b6120be6020611fa9565b905060006120ce84828501611c6a565b60008301525092915050565b600067ffffffffffffffff8211156120f5576120f4611f49565b5b602082029050602081019050919050565b600080fd5b60006040828403121561212157612120612099565b5b61212b6040611fa9565b9050600061213b84828501611c6a565b600083015250602061214f84828501611cf7565b60208301525092915050565b600061216e612169846120da565b611fa9565b9050808382526020820190506040840283018581111561219157612190612106565b5b835b818110156121ba57806121a6888261210b565b845260208401935050604081019050612193565b5050509392505050565b600082601f8301126121d9576121d8611f3f565b5b81356121e984826020860161215b565b91505092915050565b60008060008060008060008060006101208a8c03121561221557612214611c17565b5b60008a013567ffffffffffffffff81111561223357612232611c1c565b5b61223f8c828d01612046565b99505060208a013567ffffffffffffffff8111156122605761225f611c1c565b5b61226c8c828d01612046565b985050604061227d8c828d01611cf7565b975050606061228e8c828d01611c6a565b965050608061229f8c828d01612084565b95505060a06122b08c828d01611cf7565b94505060c06122c18c828d0161209e565b93505060e06122d28c828d0161209e565b9250506101008a013567ffffffffffffffff8111156122f4576122f3611c1c565b5b6123008c828d016121c4565b9150509295985092959850929598565b600062ffffff82169050919050565b61232881612310565b811461233357600080fd5b50565b6000813590506123458161231f565b92915050565b6000806000806080858703121561236557612364611c17565b5b600061237387828801611c6a565b945050602061238487828801612336565b935050604061239587828801611cf7565b92505060606123a687828801611cf7565b91505092959194509250565b60006020820190506123c76000830184611e5c565b92915050565b60008115159050919050565b6123e2816123cd565b81146123ed57600080fd5b50565b6000813590506123ff816123d9565b92915050565b60006020828403121561241b5761241a611c17565b5b6000612429848285016123f0565b91505092915050565b6000806040838503121561244957612448611c17565b5b600061245785828601611cf7565b925050602061246885828601611c6a565b9150509250929050565b61247b816123cd565b82525050565b600061012082019050818103600083015261249c818c611dac565b905081810360208301526124b0818b611dac565b90506124bf604083018a611e4d565b6124cc6060830189611cb6565b6124d96080830188612472565b6124e660a0830187611cb6565b6124f360c0830186611ea4565b61250060e0830185611cb6565b61250e610100830184611cb6565b9a9950505050505050505050565b7f436f6e7472616374206973207061757365640000000000000000000000000000600082015250565b6000612552601283611d57565b915061255d8261251c565b602082019050919050565b6000602082019050818103600083015261258181612545565b9050919050565b7f496e76616c696420616464726573730000000000000000000000000000000000600082015250565b60006125be600f83611d57565b91506125c982612588565b602082019050919050565b600060208201905081810360008301526125ed816125b1565b9050919050565b7f4e487b7100000000000000000000000000000000000000000000000000000000600052602260045260246000fd5b6000600282049050600182168061263b57607f821691505b6020821081141561264f5761264e6125f4565b5b50919050565b7f457870656e7365206e616d652069732072657175697265640000000000000000600082015250565b600061268b601883611d57565b915061269682612655565b602082019050919050565b600060208201905081810360008301526126ba8161267e565b9050919050565b7f616d6f756e74206d7573742062652067726561746572207468616e2030000000600082015250565b60006126f7601d83611d57565b9150612702826126c1565b602082019050919050565b60006020820190508181036000830152612726816126ea565b9050919050565b60008151905061273c816123d9565b92915050565b60006020828403121561275857612757611c17565b5b60006127668482850161272d565b91505092915050565b7f496e76616c696420746f6b656e2061646472657373206f7220454e53206e616d60008201527f6573000000000000000000000000000000000000000000000000000000000000602082015250565b60006127cb602283611d57565b91506127d68261276f565b604082019050919050565b600060208201905081810360008301526127fa816127be565b9050919050565b7f496e76616c69642020726563697069656e742061646472657373206f7220454e60008201527f53206e616d657300000000000000000000000000000000000000000000000000602082015250565b600061285d602783611d57565b915061286882612801565b604082019050919050565b6000602082019050818103600083015261288c81612850565b9050919050565b7f4e487b7100000000000000000000000000000000000000000000000000000000600052601160045260246000fd5b60006128cd82611cac565b91506128d883611cac565b9250827fffffffffffffffffffffffffffffffffffffffffffffffffffffffffffffffff0382111561290d5761290c612893565b5b828201905092915050565b7f4e487b7100000000000000000000000000000000000000000000000000000000600052603260045260246000fd5b7f696e76616c6964206164647265737320646562746f72206f7220454e53206e6160008201527f6d65000000000000000000000000000000000000000000000000000000000000602082015250565b60006129a3602283611d57565b91506129ae82612947565b604082019050919050565b600060208201905081810360008301526129d281612996565b9050919050565b60006129e482611cac565b91507fffffffffffffffffffffffffffffffffffffffffffffffffffffffffffffffff821415612a1757612a16612893565b5b600182019050919050565b600060ff82169050919050565b612a3881612a22565b82525050565b600060a082019050612a536000830188612a2f565b612a606020830187612a2f565b8181036040830152612a728186611dac565b90508181036060830152612a868185611dac565b9050612a956080830184611cb6565b9695505050505050565b7f496e76616c696420617373657420616464726573730000000000000000000000600082015250565b6000612ad5601583611d57565b9150612ae082612a9f565b602082019050919050565b60006020820190508181036000830152612b0481612ac8565b9050919050565b7f506f6f6c20666565206973206e6f7420656e6f75676800000000000000000000600082015250565b6000612b41601683611d57565b9150612b4c82612b0b565b602082019050919050565b60006020820190508181036000830152612b7081612b34565b9050919050565b7f416d6f756e742073656e74206973206e6f7420656e6f75676800000000000000600082015250565b6000612bad601983611d57565b9150612bb882612b77565b602082019050919050565b60006020820190508181036000830152612bdc81612ba0565b9050919050565b612bec81612310565b82525050565b600060c082019050612c076000830189611e5c565b612c146020830188611e5c565b612c216040830187611e5c565b612c2e6060830186611e5c565b612c3b6080830185612be3565b612c4860a0830184611cb6565b979650505050505050565b600081519050612c6281611ce0565b92915050565b600060208284031215612c7e57612c7d611c17565b5b6000612c8c84828501612c53565b91505092915050565b6000604082019050612caa6000830185611e5c565b612cb76020830184611cb6565b9392505050565b7f5377617020636f6e747261637420616464726573732063616e6e6f742062652060008201527f3078300000000000000000000000000000000000000000000000000000000000602082015250565b6000612d1a602383611d57565b9150612d2582612cbe565b604082019050919050565b60006020820190508181036000830152612d4981612d0d565b9050919050565b7f44656274204e6f7420666f756e64000000000000000000000000000000000000600082015250565b6000612d86600e83611d57565b9150612d9182612d50565b602082019050919050565b60006020820190508181036000830152612db581612d79565b9050919050565b7f4f776e61626c653a206e6577206f776e657220697320746865207a65726f206160008201527f6464726573730000000000000000000000000000000000000000000000000000602082015250565b6000612e18602683611d57565b9150612e2382612dbc565b604082019050919050565b60006020820190508181036000830152612e4781612e0b565b9050919050565b7f4f776e61626c653a2063616c6c6572206973206e6f7420746865206f776e6572600082015250565b6000612e84602083611d57565b9150612e8f82612e4e565b602082019050919050565b60006020820190508181036000830152612eb381612e77565b905091905056fea264697066735822122095c1582fa3abf76d197976f338becbab7eb66be473dddac2b02f29aec2eaac8764736f6c63430008090033",
  "linkReferences": {},
  "deployedLinkReferences": {}
}